{
	"contracts/BimodalLib.sol": {
		"BimodalLib": {
			"abi": [
				{
					"constant": true,
					"inputs": [
						{
							"name": "self",
							"type": "BimodalLib.Ledger storage"
						},
						{
							"name": "token",
							"type": "ERC20"
						},
						{
							"name": "eon",
							"type": "uint256"
						}
					],
					"name": "getPendingWithdrawalsAtEon",
					"outputs": [
						{
							"name": "",
							"type": "uint256"
						}
					],
					"payable": false,
					"stateMutability": "view",
					"type": "function"
				},
				{
					"constant": true,
					"inputs": [
						{
							"name": "self",
							"type": "BimodalLib.Ledger storage"
						}
					],
					"name": "currentEon",
					"outputs": [
						{
							"name": "",
							"type": "uint256"
						}
					],
					"payable": false,
					"stateMutability": "view",
					"type": "function"
				},
				{
					"constant": true,
					"inputs": [
						{
							"name": "self",
							"type": "BimodalLib.Ledger storage"
						},
						{
							"name": "eon",
							"type": "uint256"
						}
					],
					"name": "getLiveChallenges",
					"outputs": [
						{
							"name": "",
							"type": "uint256"
						}
					],
					"payable": false,
					"stateMutability": "view",
					"type": "function"
				},
				{
					"constant": false,
					"inputs": [
						{
							"name": "self",
							"type": "BimodalLib.Ledger storage"
						},
						{
							"name": "blocksPerEon",
							"type": "uint256"
						},
						{
							"name": "operator",
							"type": "address"
						}
					],
					"name": "init",
					"outputs": [],
					"payable": false,
					"stateMutability": "nonpayable",
					"type": "function"
				},
				{
					"constant": true,
					"inputs": [
						{
							"name": "self",
							"type": "BimodalLib.Ledger storage"
						}
					],
					"name": "currentEra",
					"outputs": [
						{
							"name": "",
							"type": "uint256"
						}
					],
					"payable": false,
					"stateMutability": "view",
					"type": "function"
				},
				{
					"constant": true,
					"inputs": [
						{
							"name": "message",
							"type": "bytes32"
						},
						{
							"name": "r",
							"type": "bytes32"
						},
						{
							"name": "s",
							"type": "bytes32"
						},
						{
							"name": "v",
							"type": "uint8"
						}
					],
					"name": "signedMessageECRECOVER",
					"outputs": [
						{
							"name": "",
							"type": "address"
						}
					],
					"payable": false,
					"stateMutability": "view",
					"type": "function"
				},
				{
					"constant": false,
					"inputs": [
						{
							"name": "aggregate",
							"type": "BimodalLib.AmountAggregate storage"
						},
						{
							"name": "eon",
							"type": "uint256"
						},
						{
							"name": "value",
							"type": "uint256"
						}
					],
					"name": "addToAggregate",
					"outputs": [],
					"payable": false,
					"stateMutability": "nonpayable",
					"type": "function"
				},
				{
					"constant": true,
					"inputs": [
						{
							"name": "self",
							"type": "BimodalLib.Ledger storage"
						},
						{
							"name": "token",
							"type": "ERC20"
						},
						{
							"name": "holder",
							"type": "address"
						},
						{
							"name": "eon",
							"type": "uint256"
						}
					],
					"name": "getWalletPendingWithdrawalAmountAtEon",
					"outputs": [
						{
							"name": "amount",
							"type": "uint256"
						}
					],
					"payable": false,
					"stateMutability": "view",
					"type": "function"
				},
				{
					"constant": false,
					"inputs": [
						{
							"name": "self",
							"type": "BimodalLib.Ledger storage"
						},
						{
							"name": "token",
							"type": "ERC20"
						},
						{
							"name": "eon",
							"type": "uint256"
						},
						{
							"name": "value",
							"type": "uint256"
						}
					],
					"name": "addToRunningPendingWithdrawals",
					"outputs": [],
					"payable": false,
					"stateMutability": "nonpayable",
					"type": "function"
				},
				{
					"constant": false,
					"inputs": [
						{
							"name": "self",
							"type": "BimodalLib.Ledger storage"
						},
						{
							"name": "token",
							"type": "ERC20"
						},
						{
							"name": "eon",
							"type": "uint256"
						},
						{
							"name": "latestEon",
							"type": "uint256"
						},
						{
							"name": "value",
							"type": "uint256"
						}
					],
					"name": "deductFromRunningPendingWithdrawals",
					"outputs": [],
					"payable": false,
					"stateMutability": "nonpayable",
					"type": "function"
				},
				{
					"constant": false,
					"inputs": [
						{
							"name": "self",
							"type": "BimodalLib.Ledger storage"
						},
						{
							"name": "targetEon",
							"type": "uint256"
						},
						{
							"name": "latestEon",
							"type": "uint256"
						}
					],
					"name": "getOrCreateCheckpoint",
					"outputs": [
						{
							"name": "checkpoint",
							"type": "BimodalLib.Checkpoint storage"
						}
					],
					"payable": false,
					"stateMutability": "nonpayable",
					"type": "function"
				},
				{
					"constant": true,
					"inputs": [
						{
							"name": "self",
							"type": "BimodalLib.Ledger storage"
						},
						{
							"name": "token",
							"type": "ERC20"
						},
						{
							"name": "holder",
							"type": "address"
						}
					],
					"name": "getCurrentEonDepositsWithdrawals",
					"outputs": [
						{
							"name": "currentEonDeposits",
							"type": "uint256"
						},
						{
							"name": "currentEonWithdrawals",
							"type": "uint256"
						}
					],
					"payable": false,
					"stateMutability": "view",
					"type": "function"
				},
				{
					"constant": false,
					"inputs": [
						{
							"name": "aggregate",
							"type": "BimodalLib.AmountAggregate storage"
						}
					],
					"name": "clearAggregate",
					"outputs": [],
					"payable": false,
					"stateMutability": "nonpayable",
					"type": "function"
				},
				{
					"constant": false,
					"inputs": [
						{
							"name": "self",
							"type": "BimodalLib.Ledger storage"
						},
						{
							"name": "eon",
							"type": "uint256"
						},
						{
							"name": "token",
							"type": "ERC20"
						},
						{
							"name": "participant",
							"type": "address"
						},
						{
							"name": "operation",
							"type": "BimodalLib.Operation"
						},
						{
							"name": "value",
							"type": "uint256"
						}
					],
					"name": "appendOperationToEonAccumulator",
					"outputs": [],
					"payable": false,
					"stateMutability": "nonpayable",
					"type": "function"
				}
			],
			"devdoc": {
				"methods": {}
			},
			"evm": {
				"assembly": "    /* \"contracts/BimodalLib.sol\":221:10995  library BimodalLib {... */\n  dataSize(sub_0)\n  dataOffset(sub_0)\n    /* \"--CODEGEN--\":132:134   */\n  0xb\n    /* \"--CODEGEN--\":166:173   */\n  dup3\n    /* \"--CODEGEN--\":155:164   */\n  dup3\n    /* \"--CODEGEN--\":146:153   */\n  dup3\n    /* \"--CODEGEN--\":137:174   */\n  codecopy\n    /* \"--CODEGEN--\":252:259   */\n  dup1\n    /* \"--CODEGEN--\":246:260   */\n  mload\n    /* \"--CODEGEN--\":243:244   */\n  0x0\n    /* \"--CODEGEN--\":238:261   */\n  byte\n    /* \"--CODEGEN--\":232:236   */\n  0x73\n    /* \"--CODEGEN--\":229:262   */\n  eq\n    /* \"--CODEGEN--\":270:271   */\n  0x0\n    /* \"--CODEGEN--\":265:285   */\n  dup2\n  eq\n  tag_2\n  jumpi\n    /* \"--CODEGEN--\":222:285   */\n  jump(tag_1)\n    /* \"--CODEGEN--\":265:285   */\ntag_2:\n    /* \"--CODEGEN--\":274:283   */\n  invalid\n    /* \"--CODEGEN--\":222:285   */\ntag_1:\n  pop\n    /* \"--CODEGEN--\":298:307   */\n  address\n    /* \"--CODEGEN--\":295:296   */\n  0x0\n    /* \"--CODEGEN--\":288:308   */\n  mstore\n    /* \"--CODEGEN--\":328:332   */\n  0x73\n    /* \"--CODEGEN--\":319:326   */\n  dup2\n    /* \"--CODEGEN--\":311:333   */\n  mstore8\n    /* \"--CODEGEN--\":352:359   */\n  dup3\n    /* \"--CODEGEN--\":343:350   */\n  dup2\n    /* \"--CODEGEN--\":336:360   */\n  return\nstop\n\nsub_0: assembly {\n        /* \"contracts/BimodalLib.sol\":221:10995  library BimodalLib {... */\n      eq(address, deployTimeAddress())\n      mstore(0x40, 0x80)\n      jumpi(tag_1, lt(calldatasize, 0x4))\n      calldataload(0x0)\n      0x100000000000000000000000000000000000000000000000000000000\n      swap1\n      div\n      0xffffffff\n      and\n      dup1\n      0x207cbaba\n      eq\n      tag_2\n      jumpi\n      dup1\n      0x26df6e49\n      eq\n      tag_3\n      jumpi\n      dup1\n      0x378a4719\n      eq\n      tag_4\n      jumpi\n      dup1\n      0x7fcacff9\n      eq\n      tag_5\n      jumpi\n      dup1\n      0x87d5cab9\n      eq\n      tag_6\n      jumpi\n      dup1\n      0x8e9f9072\n      eq\n      tag_7\n      jumpi\n      dup1\n      0x971bff52\n      eq\n      tag_8\n      jumpi\n      dup1\n      0xa7e478ba\n      eq\n      tag_9\n      jumpi\n      dup1\n      0xb0abcbbb\n      eq\n      tag_10\n      jumpi\n      dup1\n      0xe37e06ea\n      eq\n      tag_11\n      jumpi\n      dup1\n      0xe72b5713\n      eq\n      tag_12\n      jumpi\n      dup1\n      0xe7f24bad\n      eq\n      tag_13\n      jumpi\n      dup1\n      0xe8e95a3d\n      eq\n      tag_14\n      jumpi\n      dup1\n      0xf9ac8fca\n      eq\n      tag_15\n      jumpi\n    tag_1:\n      0x0\n      dup1\n      revert\n        /* \"contracts/BimodalLib.sol\":4657:5611  function getPendingWithdrawalsAtEon(... */\n    tag_2:\n      tag_16\n      0x4\n      dup1\n      calldatasize\n      sub\n      dup2\n      add\n      swap1\n      dup1\n      dup1\n      calldataload\n      swap1\n      0x20\n      add\n      swap1\n      swap3\n      swap2\n      swap1\n      dup1\n      calldataload\n      0xffffffffffffffffffffffffffffffffffffffff\n      and\n      swap1\n      0x20\n      add\n      swap1\n      swap3\n      swap2\n      swap1\n      dup1\n      calldataload\n      swap1\n      0x20\n      add\n      swap1\n      swap3\n      swap2\n      swap1\n      pop\n      pop\n      pop\n      jump(tag_17)\n    tag_16:\n      mload(0x40)\n      dup1\n      dup3\n      dup2\n      mstore\n      0x20\n      add\n      swap2\n      pop\n      pop\n      mload(0x40)\n      dup1\n      swap2\n      sub\n      swap1\n      return\n        /* \"contracts/BimodalLib.sol\":3503:3676  function currentEon(... */\n    tag_3:\n      tag_18\n      0x4\n      dup1\n      calldatasize\n      sub\n      dup2\n      add\n      swap1\n      dup1\n      dup1\n      calldataload\n      swap1\n      0x20\n      add\n      swap1\n      swap3\n      swap2\n      swap1\n      pop\n      pop\n      pop\n      jump(tag_19)\n    tag_18:\n      mload(0x40)\n      dup1\n      dup3\n      dup2\n      mstore\n      0x20\n      add\n      swap2\n      pop\n      pop\n      mload(0x40)\n      dup1\n      swap2\n      sub\n      swap1\n      return\n        /* \"contracts/BimodalLib.sol\":7598:7895  function getLiveChallenges(... */\n    tag_4:\n      tag_20\n      0x4\n      dup1\n      calldatasize\n      sub\n      dup2\n      add\n      swap1\n      dup1\n      dup1\n      calldataload\n      swap1\n      0x20\n      add\n      swap1\n      swap3\n      swap2\n      swap1\n      dup1\n      calldataload\n      swap1\n      0x20\n      add\n      swap1\n      swap3\n      swap2\n      swap1\n      pop\n      pop\n      pop\n      jump(tag_21)\n    tag_20:\n      mload(0x40)\n      dup1\n      dup3\n      dup2\n      mstore\n      0x20\n      add\n      swap2\n      pop\n      pop\n      mload(0x40)\n      dup1\n      swap2\n      sub\n      swap1\n      return\n        /* \"contracts/BimodalLib.sol\":2834:3365  function init(... */\n    tag_5:\n      dup2\n        /* \"--CODEGEN--\":8:17   */\n      dup1\n        /* \"--CODEGEN--\":5:7   */\n      iszero\n      tag_22\n      jumpi\n        /* \"--CODEGEN--\":30:31   */\n      0x0\n        /* \"--CODEGEN--\":27:28   */\n      dup1\n        /* \"--CODEGEN--\":20:32   */\n      revert\n        /* \"--CODEGEN--\":5:7   */\n    tag_22:\n        /* \"contracts/BimodalLib.sol\":2834:3365  function init(... */\n      pop\n      tag_23\n      0x4\n      dup1\n      calldatasize\n      sub\n      dup2\n      add\n      swap1\n      dup1\n      dup1\n      calldataload\n      swap1\n      0x20\n      add\n      swap1\n      swap3\n      swap2\n      swap1\n      dup1\n      calldataload\n      swap1\n      0x20\n      add\n      swap1\n      swap3\n      swap2\n      swap1\n      dup1\n      calldataload\n      0xffffffffffffffffffffffffffffffffffffffff\n      and\n      swap1\n      0x20\n      add\n      swap1\n      swap3\n      swap2\n      swap1\n      pop\n      pop\n      pop\n      jump(tag_24)\n    tag_23:\n      stop\n        /* \"contracts/BimodalLib.sol\":3743:3909  function currentEra(... */\n    tag_6:\n      tag_25\n      0x4\n      dup1\n      calldatasize\n      sub\n      dup2\n      add\n      swap1\n      dup1\n      dup1\n      calldataload\n      swap1\n      0x20\n      add\n      swap1\n      swap3\n      swap2\n      swap1\n      pop\n      pop\n      pop\n      jump(tag_26)\n    tag_25:\n      mload(0x40)\n      dup1\n      dup3\n      dup2\n      mstore\n      0x20\n      add\n      swap2\n      pop\n      pop\n      mload(0x40)\n      dup1\n      swap2\n      sub\n      swap1\n      return\n        /* \"contracts/BimodalLib.sol\":10623:10993  function signedMessageECRECOVER(... */\n    tag_7:\n      tag_27\n      0x4\n      dup1\n      calldatasize\n      sub\n      dup2\n      add\n      swap1\n      dup1\n      dup1\n      calldataload\n      not(0x0)\n      and\n      swap1\n      0x20\n      add\n      swap1\n      swap3\n      swap2\n      swap1\n      dup1\n      calldataload\n      not(0x0)\n      and\n      swap1\n      0x20\n      add\n      swap1\n      swap3\n      swap2\n      swap1\n      dup1\n      calldataload\n      not(0x0)\n      and\n      swap1\n      0x20\n      add\n      swap1\n      swap3\n      swap2\n      swap1\n      dup1\n      calldataload\n      0xff\n      and\n      swap1\n      0x20\n      add\n      swap1\n      swap3\n      swap2\n      swap1\n      pop\n      pop\n      pop\n      jump(tag_28)\n    tag_27:\n      mload(0x40)\n      dup1\n      dup3\n      0xffffffffffffffffffffffffffffffffffffffff\n      and\n      0xffffffffffffffffffffffffffffffffffffffff\n      and\n      dup2\n      mstore\n      0x20\n      add\n      swap2\n      pop\n      pop\n      mload(0x40)\n      dup1\n      swap2\n      sub\n      swap1\n      return\n        /* \"contracts/BimodalLib.sol\":10197:10481  function addToAggregate(... */\n    tag_8:\n      dup2\n        /* \"--CODEGEN--\":8:17   */\n      dup1\n        /* \"--CODEGEN--\":5:7   */\n      iszero\n      tag_29\n      jumpi\n        /* \"--CODEGEN--\":30:31   */\n      0x0\n        /* \"--CODEGEN--\":27:28   */\n      dup1\n        /* \"--CODEGEN--\":20:32   */\n      revert\n        /* \"--CODEGEN--\":5:7   */\n    tag_29:\n        /* \"contracts/BimodalLib.sol\":10197:10481  function addToAggregate(... */\n      pop\n      tag_30\n      0x4\n      dup1\n      calldatasize\n      sub\n      dup2\n      add\n      swap1\n      dup1\n      dup1\n      calldataload\n      swap1\n      0x20\n      add\n      swap1\n      swap3\n      swap2\n      swap1\n      dup1\n      calldataload\n      swap1\n      0x20\n      add\n      swap1\n      swap3\n      swap2\n      swap1\n      dup1\n      calldataload\n      swap1\n      0x20\n      add\n      swap1\n      swap3\n      swap2\n      swap1\n      pop\n      pop\n      pop\n      jump(tag_31)\n    tag_30:\n      stop\n        /* \"contracts/BimodalLib.sol\":8609:9210  function getWalletPendingWithdrawalAmountAtEon(... */\n    tag_9:\n      tag_32\n      0x4\n      dup1\n      calldatasize\n      sub\n      dup2\n      add\n      swap1\n      dup1\n      dup1\n      calldataload\n      swap1\n      0x20\n      add\n      swap1\n      swap3\n      swap2\n      swap1\n      dup1\n      calldataload\n      0xffffffffffffffffffffffffffffffffffffffff\n      and\n      swap1\n      0x20\n      add\n      swap1\n      swap3\n      swap2\n      swap1\n      dup1\n      calldataload\n      0xffffffffffffffffffffffffffffffffffffffff\n      and\n      swap1\n      0x20\n      add\n      swap1\n      swap3\n      swap2\n      swap1\n      dup1\n      calldataload\n      swap1\n      0x20\n      add\n      swap1\n      swap3\n      swap2\n      swap1\n      pop\n      pop\n      pop\n      jump(tag_33)\n    tag_32:\n      mload(0x40)\n      dup1\n      dup3\n      dup2\n      mstore\n      0x20\n      add\n      swap2\n      pop\n      pop\n      mload(0x40)\n      dup1\n      swap2\n      sub\n      swap1\n      return\n        /* \"contracts/BimodalLib.sol\":5697:6304  function addToRunningPendingWithdrawals(... */\n    tag_10:\n      dup2\n        /* \"--CODEGEN--\":8:17   */\n      dup1\n        /* \"--CODEGEN--\":5:7   */\n      iszero\n      tag_34\n      jumpi\n        /* \"--CODEGEN--\":30:31   */\n      0x0\n        /* \"--CODEGEN--\":27:28   */\n      dup1\n        /* \"--CODEGEN--\":20:32   */\n      revert\n        /* \"--CODEGEN--\":5:7   */\n    tag_34:\n        /* \"contracts/BimodalLib.sol\":5697:6304  function addToRunningPendingWithdrawals(... */\n      pop\n      tag_35\n      0x4\n      dup1\n      calldatasize\n      sub\n      dup2\n      add\n      swap1\n      dup1\n      dup1\n      calldataload\n      swap1\n      0x20\n      add\n      swap1\n      swap3\n      swap2\n      swap1\n      dup1\n      calldataload\n      0xffffffffffffffffffffffffffffffffffffffff\n      and\n      swap1\n      0x20\n      add\n      swap1\n      swap3\n      swap2\n      swap1\n      dup1\n      calldataload\n      swap1\n      0x20\n      add\n      swap1\n      swap3\n      swap2\n      swap1\n      dup1\n      calldataload\n      swap1\n      0x20\n      add\n      swap1\n      swap3\n      swap2\n      swap1\n      pop\n      pop\n      pop\n      jump(tag_36)\n    tag_35:\n      stop\n        /* \"contracts/BimodalLib.sol\":6392:7517  function deductFromRunningPendingWithdrawals(... */\n    tag_11:\n      dup2\n        /* \"--CODEGEN--\":8:17   */\n      dup1\n        /* \"--CODEGEN--\":5:7   */\n      iszero\n      tag_37\n      jumpi\n        /* \"--CODEGEN--\":30:31   */\n      0x0\n        /* \"--CODEGEN--\":27:28   */\n      dup1\n        /* \"--CODEGEN--\":20:32   */\n      revert\n        /* \"--CODEGEN--\":5:7   */\n    tag_37:\n        /* \"contracts/BimodalLib.sol\":6392:7517  function deductFromRunningPendingWithdrawals(... */\n      pop\n      tag_38\n      0x4\n      dup1\n      calldatasize\n      sub\n      dup2\n      add\n      swap1\n      dup1\n      dup1\n      calldataload\n      swap1\n      0x20\n      add\n      swap1\n      swap3\n      swap2\n      swap1\n      dup1\n      calldataload\n      0xffffffffffffffffffffffffffffffffffffffff\n      and\n      swap1\n      0x20\n      add\n      swap1\n      swap3\n      swap2\n      swap1\n      dup1\n      calldataload\n      swap1\n      0x20\n      add\n      swap1\n      swap3\n      swap2\n      swap1\n      dup1\n      calldataload\n      swap1\n      0x20\n      add\n      swap1\n      swap3\n      swap2\n      swap1\n      dup1\n      calldataload\n      swap1\n      0x20\n      add\n      swap1\n      swap3\n      swap2\n      swap1\n      pop\n      pop\n      pop\n      jump(tag_39)\n    tag_38:\n      stop\n        /* \"contracts/BimodalLib.sol\":7978:8517  function getOrCreateCheckpoint(... */\n    tag_12:\n      dup2\n        /* \"--CODEGEN--\":8:17   */\n      dup1\n        /* \"--CODEGEN--\":5:7   */\n      iszero\n      tag_40\n      jumpi\n        /* \"--CODEGEN--\":30:31   */\n      0x0\n        /* \"--CODEGEN--\":27:28   */\n      dup1\n        /* \"--CODEGEN--\":20:32   */\n      revert\n        /* \"--CODEGEN--\":5:7   */\n    tag_40:\n        /* \"contracts/BimodalLib.sol\":7978:8517  function getOrCreateCheckpoint(... */\n      pop\n      tag_41\n      0x4\n      dup1\n      calldatasize\n      sub\n      dup2\n      add\n      swap1\n      dup1\n      dup1\n      calldataload\n      swap1\n      0x20\n      add\n      swap1\n      swap3\n      swap2\n      swap1\n      dup1\n      calldataload\n      swap1\n      0x20\n      add\n      swap1\n      swap3\n      swap2\n      swap1\n      dup1\n      calldataload\n      swap1\n      0x20\n      add\n      swap1\n      swap3\n      swap2\n      swap1\n      pop\n      pop\n      pop\n      jump(tag_42)\n    tag_41:\n      mload(0x40)\n      dup1\n      dup3\n      dup2\n      mstore\n      0x20\n      add\n      swap2\n      pop\n      pop\n      mload(0x40)\n      dup1\n      swap2\n      sub\n      swap1\n      return\n        /* \"contracts/BimodalLib.sol\":9306:10180  function getCurrentEonDepositsWithdrawals(... */\n    tag_13:\n      tag_43\n      0x4\n      dup1\n      calldatasize\n      sub\n      dup2\n      add\n      swap1\n      dup1\n      dup1\n      calldataload\n      swap1\n      0x20\n      add\n      swap1\n      swap3\n      swap2\n      swap1\n      dup1\n      calldataload\n      0xffffffffffffffffffffffffffffffffffffffff\n      and\n      swap1\n      0x20\n      add\n      swap1\n      swap3\n      swap2\n      swap1\n      dup1\n      calldataload\n      0xffffffffffffffffffffffffffffffffffffffff\n      and\n      swap1\n      0x20\n      add\n      swap1\n      swap3\n      swap2\n      swap1\n      pop\n      pop\n      pop\n      jump(tag_44)\n    tag_43:\n      mload(0x40)\n      dup1\n      dup4\n      dup2\n      mstore\n      0x20\n      add\n      dup3\n      dup2\n      mstore\n      0x20\n      add\n      swap3\n      pop\n      pop\n      pop\n      mload(0x40)\n      dup1\n      swap2\n      sub\n      swap1\n      return\n        /* \"contracts/BimodalLib.sol\":10485:10619  function clearAggregate(... */\n    tag_14:\n      dup2\n        /* \"--CODEGEN--\":8:17   */\n      dup1\n        /* \"--CODEGEN--\":5:7   */\n      iszero\n      tag_45\n      jumpi\n        /* \"--CODEGEN--\":30:31   */\n      0x0\n        /* \"--CODEGEN--\":27:28   */\n      dup1\n        /* \"--CODEGEN--\":20:32   */\n      revert\n        /* \"--CODEGEN--\":5:7   */\n    tag_45:\n        /* \"contracts/BimodalLib.sol\":10485:10619  function clearAggregate(... */\n      pop\n      tag_46\n      0x4\n      dup1\n      calldatasize\n      sub\n      dup2\n      add\n      swap1\n      dup1\n      dup1\n      calldataload\n      swap1\n      0x20\n      add\n      swap1\n      swap3\n      swap2\n      swap1\n      pop\n      pop\n      pop\n      jump(tag_47)\n    tag_46:\n      stop\n        /* \"contracts/BimodalLib.sol\":4158:4571  function appendOperationToEonAccumulator(... */\n    tag_15:\n      dup2\n        /* \"--CODEGEN--\":8:17   */\n      dup1\n        /* \"--CODEGEN--\":5:7   */\n      iszero\n      tag_48\n      jumpi\n        /* \"--CODEGEN--\":30:31   */\n      0x0\n        /* \"--CODEGEN--\":27:28   */\n      dup1\n        /* \"--CODEGEN--\":20:32   */\n      revert\n        /* \"--CODEGEN--\":5:7   */\n    tag_48:\n        /* \"contracts/BimodalLib.sol\":4158:4571  function appendOperationToEonAccumulator(... */\n      pop\n      tag_49\n      0x4\n      dup1\n      calldatasize\n      sub\n      dup2\n      add\n      swap1\n      dup1\n      dup1\n      calldataload\n      swap1\n      0x20\n      add\n      swap1\n      swap3\n      swap2\n      swap1\n      dup1\n      calldataload\n      swap1\n      0x20\n      add\n      swap1\n      swap3\n      swap2\n      swap1\n      dup1\n      calldataload\n      0xffffffffffffffffffffffffffffffffffffffff\n      and\n      swap1\n      0x20\n      add\n      swap1\n      swap3\n      swap2\n      swap1\n      dup1\n      calldataload\n      0xffffffffffffffffffffffffffffffffffffffff\n      and\n      swap1\n      0x20\n      add\n      swap1\n      swap3\n      swap2\n      swap1\n      dup1\n      calldataload\n      0xff\n      and\n      swap1\n      0x20\n      add\n      swap1\n      swap3\n      swap2\n      swap1\n      dup1\n      calldataload\n      swap1\n      0x20\n      add\n      swap1\n      swap3\n      swap2\n      swap1\n      pop\n      pop\n      pop\n      jump(tag_50)\n    tag_49:\n      stop\n        /* \"contracts/BimodalLib.sol\":4657:5611  function getPendingWithdrawalsAtEon(... */\n    tag_17:\n        /* \"contracts/BimodalLib.sol\":4789:4796  uint256 */\n      0x0\n        /* \"contracts/BimodalLib.sol\":4806:4830  uint256 lastAggregateEon */\n      dup1\n        /* \"contracts/BimodalLib.sol\":4845:4854  uint256 i */\n      0x0\n        /* \"contracts/BimodalLib.sol\":4893:4933  AmountAggregate storage currentAggregate */\n      dup1\n        /* \"contracts/BimodalLib.sol\":4833:4834  0 */\n      0x0\n        /* \"contracts/BimodalLib.sol\":4806:4834  uint256 lastAggregateEon = 0 */\n      swap3\n      pop\n        /* \"contracts/BimodalLib.sol\":4857:4858  0 */\n      0x0\n        /* \"contracts/BimodalLib.sol\":4845:4858  uint256 i = 0 */\n      swap2\n      pop\n        /* \"contracts/BimodalLib.sol\":4840:5464  for (uint256 i = 0; i < self.EONS_KEPT; i++) {... */\n    tag_52:\n        /* \"contracts/BimodalLib.sol\":4864:4868  self */\n      dup7\n        /* \"contracts/BimodalLib.sol\":4864:4878  self.EONS_KEPT */\n      0x0\n      add\n      0x0\n      swap1\n      sload\n      swap1\n      0x100\n      exp\n      swap1\n      div\n      0xff\n      and\n        /* \"contracts/BimodalLib.sol\":4860:4878  i < self.EONS_KEPT */\n      0xff\n      and\n        /* \"contracts/BimodalLib.sol\":4860:4861  i */\n      dup3\n        /* \"contracts/BimodalLib.sol\":4860:4878  i < self.EONS_KEPT */\n      lt\n        /* \"contracts/BimodalLib.sol\":4840:5464  for (uint256 i = 0; i < self.EONS_KEPT; i++) {... */\n      iszero\n      tag_53\n      jumpi\n        /* \"contracts/BimodalLib.sol\":4936:4940  self */\n      dup7\n        /* \"contracts/BimodalLib.sol\":4936:4959  self.pendingWithdrawals */\n      0x1f\n      add\n        /* \"contracts/BimodalLib.sol\":4936:4966  self.pendingWithdrawals[token] */\n      0x0\n        /* \"contracts/BimodalLib.sol\":4960:4965  token */\n      dup8\n        /* \"contracts/BimodalLib.sol\":4936:4966  self.pendingWithdrawals[token] */\n      0xffffffffffffffffffffffffffffffffffffffff\n      and\n      0xffffffffffffffffffffffffffffffffffffffff\n      and\n      dup2\n      mstore\n      0x20\n      add\n      swap1\n      dup2\n      mstore\n      0x20\n      add\n      0x0\n      keccak256\n        /* \"contracts/BimodalLib.sol\":4967:4990  eon.mod(self.EONS_KEPT) */\n      tag_55\n        /* \"contracts/BimodalLib.sol\":4975:4979  self */\n      dup9\n        /* \"contracts/BimodalLib.sol\":4975:4989  self.EONS_KEPT */\n      0x0\n      add\n      0x0\n      swap1\n      sload\n      swap1\n      0x100\n      exp\n      swap1\n      div\n      0xff\n      and\n        /* \"contracts/BimodalLib.sol\":4967:4990  eon.mod(self.EONS_KEPT) */\n      0xff\n      and\n        /* \"contracts/BimodalLib.sol\":4967:4970  eon */\n      dup8\n        /* \"contracts/BimodalLib.sol\":4967:4974  eon.mod */\n      tag_56\n      swap1\n        /* \"contracts/BimodalLib.sol\":4967:4990  eon.mod(self.EONS_KEPT) */\n      swap2\n      swap1\n      0xffffffff\n      and\n      jump\t// in\n    tag_55:\n        /* \"contracts/BimodalLib.sol\":4936:4991  self.pendingWithdrawals[token][eon.mod(self.EONS_KEPT)] */\n      0x5\n      dup2\n      lt\n      iszero\n      iszero\n      tag_57\n      jumpi\n      invalid\n    tag_57:\n      0x2\n      mul\n      add\n        /* \"contracts/BimodalLib.sol\":4893:4991  AmountAggregate storage currentAggregate = self.pendingWithdrawals[token][eon.mod(self.EONS_KEPT)] */\n      swap1\n      pop\n        /* \"contracts/BimodalLib.sol\":5027:5030  eon */\n      dup5\n        /* \"contracts/BimodalLib.sol\":5003:5019  currentAggregate */\n      dup2\n        /* \"contracts/BimodalLib.sol\":5003:5023  currentAggregate.eon */\n      0x0\n      add\n      sload\n        /* \"contracts/BimodalLib.sol\":5003:5030  currentAggregate.eon == eon */\n      eq\n        /* \"contracts/BimodalLib.sol\":4999:5389  if (currentAggregate.eon == eon) {... */\n      iszero\n      tag_59\n      jumpi\n        /* \"contracts/BimodalLib.sol\":5049:5065  currentAggregate */\n      dup1\n        /* \"contracts/BimodalLib.sol\":5049:5072  currentAggregate.amount */\n      0x1\n      add\n      sload\n        /* \"contracts/BimodalLib.sol\":5042:5072  return currentAggregate.amount */\n      swap4\n      pop\n      jump(tag_51)\n        /* \"contracts/BimodalLib.sol\":4999:5389  if (currentAggregate.eon == eon) {... */\n    tag_59:\n        /* \"contracts/BimodalLib.sol\":5114:5130  lastAggregateEon */\n      dup3\n        /* \"contracts/BimodalLib.sol\":5091:5107  currentAggregate */\n      dup2\n        /* \"contracts/BimodalLib.sol\":5091:5111  currentAggregate.eon */\n      0x0\n      add\n      sload\n        /* \"contracts/BimodalLib.sol\":5091:5130  currentAggregate.eon > lastAggregateEon */\n      gt\n        /* \"contracts/BimodalLib.sol\":5091:5160  currentAggregate.eon > lastAggregateEon && currentAggregate.eon < eon */\n      dup1\n      iszero\n      tag_61\n      jumpi\n      pop\n        /* \"contracts/BimodalLib.sol\":5157:5160  eon */\n      dup5\n        /* \"contracts/BimodalLib.sol\":5134:5150  currentAggregate */\n      dup2\n        /* \"contracts/BimodalLib.sol\":5134:5154  currentAggregate.eon */\n      0x0\n      add\n      sload\n        /* \"contracts/BimodalLib.sol\":5134:5160  currentAggregate.eon < eon */\n      lt\n        /* \"contracts/BimodalLib.sol\":5091:5160  currentAggregate.eon > lastAggregateEon && currentAggregate.eon < eon */\n    tag_61:\n        /* \"contracts/BimodalLib.sol\":5087:5389  if (currentAggregate.eon > lastAggregateEon && currentAggregate.eon < eon) {... */\n      iszero\n      tag_62\n      jumpi\n        /* \"contracts/BimodalLib.sol\":5360:5376  currentAggregate */\n      dup1\n        /* \"contracts/BimodalLib.sol\":5360:5380  currentAggregate.eon */\n      0x0\n      add\n      sload\n        /* \"contracts/BimodalLib.sol\":5341:5380  lastAggregateEon = currentAggregate.eon */\n      swap3\n      pop\n        /* \"contracts/BimodalLib.sol\":5087:5389  if (currentAggregate.eon > lastAggregateEon && currentAggregate.eon < eon) {... */\n    tag_62:\n        /* \"contracts/BimodalLib.sol\":5407:5408  0 */\n      0x0\n        /* \"contracts/BimodalLib.sol\":5400:5403  eon */\n      dup6\n        /* \"contracts/BimodalLib.sol\":5400:5408  eon == 0 */\n      eq\n        /* \"contracts/BimodalLib.sol\":5396:5434  if (eon == 0) {... */\n      iszero\n      tag_63\n      jumpi\n        /* \"contracts/BimodalLib.sol\":5420:5425  break */\n      jump(tag_53)\n        /* \"contracts/BimodalLib.sol\":5396:5434  if (eon == 0) {... */\n    tag_63:\n        /* \"contracts/BimodalLib.sol\":5447:5457  eon.sub(1) */\n      tag_64\n        /* \"contracts/BimodalLib.sol\":5455:5456  1 */\n      0x1\n        /* \"contracts/BimodalLib.sol\":5447:5450  eon */\n      dup7\n        /* \"contracts/BimodalLib.sol\":5447:5454  eon.sub */\n      tag_65\n      swap1\n        /* \"contracts/BimodalLib.sol\":5447:5457  eon.sub(1) */\n      swap2\n      swap1\n      0xffffffff\n      and\n      jump\t// in\n    tag_64:\n        /* \"contracts/BimodalLib.sol\":5441:5457  eon = eon.sub(1) */\n      swap5\n      pop\n        /* \"contracts/BimodalLib.sol\":4880:4883  i++ */\n      dup2\n      dup1\n      0x1\n      add\n      swap3\n      pop\n      pop\n        /* \"contracts/BimodalLib.sol\":4840:5464  for (uint256 i = 0; i < self.EONS_KEPT; i++) {... */\n      jump(tag_52)\n    tag_53:\n        /* \"contracts/BimodalLib.sol\":5493:5494  0 */\n      0x0\n        /* \"contracts/BimodalLib.sol\":5473:5489  lastAggregateEon */\n      dup4\n        /* \"contracts/BimodalLib.sol\":5473:5494  lastAggregateEon == 0 */\n      eq\n        /* \"contracts/BimodalLib.sol\":5469:5519  if (lastAggregateEon == 0) {... */\n      iszero\n      tag_66\n      jumpi\n        /* \"contracts/BimodalLib.sol\":5511:5512  0 */\n      0x0\n        /* \"contracts/BimodalLib.sol\":5504:5512  return 0 */\n      swap4\n      pop\n      jump(tag_51)\n        /* \"contracts/BimodalLib.sol\":5469:5519  if (lastAggregateEon == 0) {... */\n    tag_66:\n        /* \"contracts/BimodalLib.sol\":5531:5535  self */\n      dup7\n        /* \"contracts/BimodalLib.sol\":5531:5554  self.pendingWithdrawals */\n      0x1f\n      add\n        /* \"contracts/BimodalLib.sol\":5531:5561  self.pendingWithdrawals[token] */\n      0x0\n        /* \"contracts/BimodalLib.sol\":5555:5560  token */\n      dup8\n        /* \"contracts/BimodalLib.sol\":5531:5561  self.pendingWithdrawals[token] */\n      0xffffffffffffffffffffffffffffffffffffffff\n      and\n      0xffffffffffffffffffffffffffffffffffffffff\n      and\n      dup2\n      mstore\n      0x20\n      add\n      swap1\n      dup2\n      mstore\n      0x20\n      add\n      0x0\n      keccak256\n        /* \"contracts/BimodalLib.sol\":5562:5598  lastAggregateEon.mod(self.EONS_KEPT) */\n      tag_67\n        /* \"contracts/BimodalLib.sol\":5583:5587  self */\n      dup9\n        /* \"contracts/BimodalLib.sol\":5583:5597  self.EONS_KEPT */\n      0x0\n      add\n      0x0\n      swap1\n      sload\n      swap1\n      0x100\n      exp\n      swap1\n      div\n      0xff\n      and\n        /* \"contracts/BimodalLib.sol\":5562:5598  lastAggregateEon.mod(self.EONS_KEPT) */\n      0xff\n      and\n        /* \"contracts/BimodalLib.sol\":5562:5578  lastAggregateEon */\n      dup6\n        /* \"contracts/BimodalLib.sol\":5562:5582  lastAggregateEon.mod */\n      tag_56\n      swap1\n        /* \"contracts/BimodalLib.sol\":5562:5598  lastAggregateEon.mod(self.EONS_KEPT) */\n      swap2\n      swap1\n      0xffffffff\n      and\n      jump\t// in\n    tag_67:\n        /* \"contracts/BimodalLib.sol\":5531:5599  self.pendingWithdrawals[token][lastAggregateEon.mod(self.EONS_KEPT)] */\n      0x5\n      dup2\n      lt\n      iszero\n      iszero\n      tag_68\n      jumpi\n      invalid\n    tag_68:\n      0x2\n      mul\n      add\n        /* \"contracts/BimodalLib.sol\":5531:5606  self.pendingWithdrawals[token][lastAggregateEon.mod(self.EONS_KEPT)].amount */\n      0x1\n      add\n      sload\n        /* \"contracts/BimodalLib.sol\":5524:5606  return self.pendingWithdrawals[token][lastAggregateEon.mod(self.EONS_KEPT)].amount */\n      swap4\n      pop\n        /* \"contracts/BimodalLib.sol\":4657:5611  function getPendingWithdrawalsAtEon(... */\n    tag_51:\n      pop\n      pop\n      pop\n      swap4\n      swap3\n      pop\n      pop\n      pop\n      jump\t// out\n        /* \"contracts/BimodalLib.sol\":3503:3676  function currentEon(... */\n    tag_19:\n        /* \"contracts/BimodalLib.sol\":3585:3592  uint256 */\n      0x0\n        /* \"contracts/BimodalLib.sol\":3609:3671  block.number.sub(self.genesis).div(self.BLOCKS_PER_EON).add(1) */\n      tag_71\n        /* \"contracts/BimodalLib.sol\":3669:3670  1 */\n      0x1\n        /* \"contracts/BimodalLib.sol\":3609:3664  block.number.sub(self.genesis).div(self.BLOCKS_PER_EON) */\n      tag_72\n        /* \"contracts/BimodalLib.sol\":3644:3648  self */\n      dup5\n        /* \"contracts/BimodalLib.sol\":3644:3663  self.BLOCKS_PER_EON */\n      0x2\n      add\n      sload\n        /* \"contracts/BimodalLib.sol\":3609:3639  block.number.sub(self.genesis) */\n      tag_73\n        /* \"contracts/BimodalLib.sol\":3626:3630  self */\n      dup7\n        /* \"contracts/BimodalLib.sol\":3626:3638  self.genesis */\n      0x5\n      add\n      sload\n        /* \"contracts/BimodalLib.sol\":3609:3621  block.number */\n      number\n        /* \"contracts/BimodalLib.sol\":3609:3625  block.number.sub */\n      tag_65\n      swap1\n        /* \"contracts/BimodalLib.sol\":3609:3639  block.number.sub(self.genesis) */\n      swap2\n      swap1\n      0xffffffff\n      and\n      jump\t// in\n    tag_73:\n        /* \"contracts/BimodalLib.sol\":3609:3643  block.number.sub(self.genesis).div */\n      tag_74\n      swap1\n        /* \"contracts/BimodalLib.sol\":3609:3664  block.number.sub(self.genesis).div(self.BLOCKS_PER_EON) */\n      swap2\n      swap1\n      0xffffffff\n      and\n      jump\t// in\n    tag_72:\n        /* \"contracts/BimodalLib.sol\":3609:3668  block.number.sub(self.genesis).div(self.BLOCKS_PER_EON).add */\n      tag_75\n      swap1\n        /* \"contracts/BimodalLib.sol\":3609:3671  block.number.sub(self.genesis).div(self.BLOCKS_PER_EON).add(1) */\n      swap2\n      swap1\n      0xffffffff\n      and\n      jump\t// in\n    tag_71:\n        /* \"contracts/BimodalLib.sol\":3602:3671  return block.number.sub(self.genesis).div(self.BLOCKS_PER_EON).add(1) */\n      swap1\n      pop\n        /* \"contracts/BimodalLib.sol\":3503:3676  function currentEon(... */\n      swap2\n      swap1\n      pop\n      jump\t// out\n        /* \"contracts/BimodalLib.sol\":7598:7895  function getLiveChallenges(... */\n    tag_21:\n        /* \"contracts/BimodalLib.sol\":7704:7708  uint */\n      0x0\n        /* \"contracts/BimodalLib.sol\":7718:7747  Checkpoint storage checkpoint */\n      dup1\n        /* \"contracts/BimodalLib.sol\":7750:7754  self */\n      dup4\n        /* \"contracts/BimodalLib.sol\":7750:7766  self.checkpoints */\n      0x7\n      add\n        /* \"contracts/BimodalLib.sol\":7767:7790  eon.mod(self.EONS_KEPT) */\n      tag_77\n        /* \"contracts/BimodalLib.sol\":7775:7779  self */\n      dup6\n        /* \"contracts/BimodalLib.sol\":7775:7789  self.EONS_KEPT */\n      0x0\n      add\n      0x0\n      swap1\n      sload\n      swap1\n      0x100\n      exp\n      swap1\n      div\n      0xff\n      and\n        /* \"contracts/BimodalLib.sol\":7767:7790  eon.mod(self.EONS_KEPT) */\n      0xff\n      and\n        /* \"contracts/BimodalLib.sol\":7767:7770  eon */\n      dup6\n        /* \"contracts/BimodalLib.sol\":7767:7774  eon.mod */\n      tag_56\n      swap1\n        /* \"contracts/BimodalLib.sol\":7767:7790  eon.mod(self.EONS_KEPT) */\n      swap2\n      swap1\n      0xffffffff\n      and\n      jump\t// in\n    tag_77:\n        /* \"contracts/BimodalLib.sol\":7750:7791  self.checkpoints[eon.mod(self.EONS_KEPT)] */\n      0x5\n      dup2\n      lt\n      iszero\n      iszero\n      tag_78\n      jumpi\n      invalid\n    tag_78:\n      0x3\n      mul\n      add\n        /* \"contracts/BimodalLib.sol\":7718:7791  Checkpoint storage checkpoint = self.checkpoints[eon.mod(self.EONS_KEPT)] */\n      swap1\n      pop\n        /* \"contracts/BimodalLib.sol\":7825:7828  eon */\n      dup3\n        /* \"contracts/BimodalLib.sol\":7801:7811  checkpoint */\n      dup2\n        /* \"contracts/BimodalLib.sol\":7801:7821  checkpoint.eonNumber */\n      0x0\n      add\n      sload\n        /* \"contracts/BimodalLib.sol\":7801:7828  checkpoint.eonNumber != eon */\n      eq\n      iszero\n        /* \"contracts/BimodalLib.sol\":7797:7853  if (checkpoint.eonNumber != eon) {... */\n      iszero\n      tag_80\n      jumpi\n        /* \"contracts/BimodalLib.sol\":7845:7846  0 */\n      0x0\n        /* \"contracts/BimodalLib.sol\":7838:7846  return 0 */\n      swap2\n      pop\n      jump(tag_76)\n        /* \"contracts/BimodalLib.sol\":7797:7853  if (checkpoint.eonNumber != eon) {... */\n    tag_80:\n        /* \"contracts/BimodalLib.sol\":7865:7875  checkpoint */\n      dup1\n        /* \"contracts/BimodalLib.sol\":7865:7890  checkpoint.liveChallenges */\n      0x2\n      add\n      sload\n        /* \"contracts/BimodalLib.sol\":7858:7890  return checkpoint.liveChallenges */\n      swap2\n      pop\n        /* \"contracts/BimodalLib.sol\":7598:7895  function getLiveChallenges(... */\n    tag_76:\n      pop\n      swap3\n      swap2\n      pop\n      pop\n      jump\t// out\n        /* \"contracts/BimodalLib.sol\":2834:3365  function init(... */\n    tag_24:\n        /* \"contracts/BimodalLib.sol\":2966:2978  blocksPerEon */\n      dup2\n        /* \"contracts/BimodalLib.sol\":2944:2948  self */\n      dup4\n        /* \"contracts/BimodalLib.sol\":2944:2963  self.BLOCKS_PER_EON */\n      0x2\n      add\n        /* \"contracts/BimodalLib.sol\":2944:2978  self.BLOCKS_PER_EON = blocksPerEon */\n      dup2\n      swap1\n      sstore\n      pop\n        /* \"contracts/BimodalLib.sol\":3008:3034  self.BLOCKS_PER_EON.div(4) */\n      tag_82\n        /* \"contracts/BimodalLib.sol\":3032:3033  4 */\n      0x4\n        /* \"contracts/BimodalLib.sol\":3008:3012  self */\n      dup5\n        /* \"contracts/BimodalLib.sol\":3008:3027  self.BLOCKS_PER_EON */\n      0x2\n      add\n      sload\n        /* \"contracts/BimodalLib.sol\":3008:3031  self.BLOCKS_PER_EON.div */\n      tag_74\n      swap1\n        /* \"contracts/BimodalLib.sol\":3008:3034  self.BLOCKS_PER_EON.div(4) */\n      swap2\n      swap1\n      0xffffffff\n      and\n      jump\t// in\n    tag_82:\n        /* \"contracts/BimodalLib.sol\":2984:2988  self */\n      dup4\n        /* \"contracts/BimodalLib.sol\":2984:3005  self.BLOCKS_PER_EPOCH */\n      0x3\n      add\n        /* \"contracts/BimodalLib.sol\":2984:3034  self.BLOCKS_PER_EPOCH = self.BLOCKS_PER_EON.div(4) */\n      dup2\n      swap1\n      sstore\n      pop\n        /* \"contracts/BimodalLib.sol\":3073:3099  self.BLOCKS_PER_EON.div(3) */\n      tag_83\n        /* \"contracts/BimodalLib.sol\":3097:3098  3 */\n      0x3\n        /* \"contracts/BimodalLib.sol\":3073:3077  self */\n      dup5\n        /* \"contracts/BimodalLib.sol\":3073:3092  self.BLOCKS_PER_EON */\n      0x2\n      add\n      sload\n        /* \"contracts/BimodalLib.sol\":3073:3096  self.BLOCKS_PER_EON.div */\n      tag_74\n      swap1\n        /* \"contracts/BimodalLib.sol\":3073:3099  self.BLOCKS_PER_EON.div(3) */\n      swap2\n      swap1\n      0xffffffff\n      and\n      jump\t// in\n    tag_83:\n        /* \"contracts/BimodalLib.sol\":3040:3044  self */\n      dup4\n        /* \"contracts/BimodalLib.sol\":3040:3070  self.EXTENDED_BLOCKS_PER_EPOCH */\n      0x4\n      add\n        /* \"contracts/BimodalLib.sol\":3040:3099  self.EXTENDED_BLOCKS_PER_EPOCH = self.BLOCKS_PER_EON.div(3) */\n      dup2\n      swap1\n      sstore\n      pop\n        /* \"contracts/BimodalLib.sol\":3122:3123  5 */\n      0x5\n        /* \"contracts/BimodalLib.sol\":3105:3109  self */\n      dup4\n        /* \"contracts/BimodalLib.sol\":3105:3119  self.EONS_KEPT */\n      0x0\n      add\n      0x0\n        /* \"contracts/BimodalLib.sol\":3105:3123  self.EONS_KEPT = 5 */\n      0x100\n      exp\n      dup2\n      sload\n      dup2\n      0xff\n      mul\n      not\n      and\n      swap1\n      dup4\n      0xff\n      and\n      mul\n      or\n      swap1\n      sstore\n      pop\n        /* \"contracts/BimodalLib.sol\":3172:3173  3 */\n      0x3\n        /* \"contracts/BimodalLib.sol\":3151:3155  self */\n      dup4\n        /* \"contracts/BimodalLib.sol\":3151:3169  self.DEPOSITS_KEPT */\n      0x0\n      add\n      0x1\n        /* \"contracts/BimodalLib.sol\":3151:3173  self.DEPOSITS_KEPT = 3 */\n      0x100\n      exp\n      dup2\n      sload\n      dup2\n      0xff\n      mul\n      not\n      and\n      swap1\n      dup4\n      0xff\n      and\n      mul\n      or\n      swap1\n      sstore\n      pop\n        /* \"contracts/BimodalLib.sol\":3245:3256  0.005 szabo */\n      0x12a05f200\n        /* \"contracts/BimodalLib.sol\":3215:3219  self */\n      dup4\n        /* \"contracts/BimodalLib.sol\":3215:3242  self.MIN_CHALLENGE_GAS_COST */\n      0x1\n      add\n        /* \"contracts/BimodalLib.sol\":3215:3256  self.MIN_CHALLENGE_GAS_COST = 0.005 szabo */\n      dup2\n      swap1\n      sstore\n      pop\n        /* \"contracts/BimodalLib.sol\":3319:3327  operator */\n      dup1\n        /* \"contracts/BimodalLib.sol\":3303:3307  self */\n      dup4\n        /* \"contracts/BimodalLib.sol\":3303:3316  self.operator */\n      0x6\n      add\n      0x0\n        /* \"contracts/BimodalLib.sol\":3303:3327  self.operator = operator */\n      0x100\n      exp\n      dup2\n      sload\n      dup2\n      0xffffffffffffffffffffffffffffffffffffffff\n      mul\n      not\n      and\n      swap1\n      dup4\n      0xffffffffffffffffffffffffffffffffffffffff\n      and\n      mul\n      or\n      swap1\n      sstore\n      pop\n        /* \"contracts/BimodalLib.sol\":3348:3360  block.number */\n      number\n        /* \"contracts/BimodalLib.sol\":3333:3337  self */\n      dup4\n        /* \"contracts/BimodalLib.sol\":3333:3345  self.genesis */\n      0x5\n      add\n        /* \"contracts/BimodalLib.sol\":3333:3360  self.genesis = block.number */\n      dup2\n      swap1\n      sstore\n      pop\n        /* \"contracts/BimodalLib.sol\":2834:3365  function init(... */\n      pop\n      pop\n      pop\n      jump\t// out\n        /* \"contracts/BimodalLib.sol\":3743:3909  function currentEra(... */\n    tag_26:\n        /* \"contracts/BimodalLib.sol\":3825:3832  uint256 */\n      0x0\n        /* \"contracts/BimodalLib.sol\":3849:3904  block.number.sub(self.genesis).mod(self.BLOCKS_PER_EON) */\n      tag_85\n        /* \"contracts/BimodalLib.sol\":3884:3888  self */\n      dup3\n        /* \"contracts/BimodalLib.sol\":3884:3903  self.BLOCKS_PER_EON */\n      0x2\n      add\n      sload\n        /* \"contracts/BimodalLib.sol\":3849:3879  block.number.sub(self.genesis) */\n      tag_86\n        /* \"contracts/BimodalLib.sol\":3866:3870  self */\n      dup5\n        /* \"contracts/BimodalLib.sol\":3866:3878  self.genesis */\n      0x5\n      add\n      sload\n        /* \"contracts/BimodalLib.sol\":3849:3861  block.number */\n      number\n        /* \"contracts/BimodalLib.sol\":3849:3865  block.number.sub */\n      tag_65\n      swap1\n        /* \"contracts/BimodalLib.sol\":3849:3879  block.number.sub(self.genesis) */\n      swap2\n      swap1\n      0xffffffff\n      and\n      jump\t// in\n    tag_86:\n        /* \"contracts/BimodalLib.sol\":3849:3883  block.number.sub(self.genesis).mod */\n      tag_56\n      swap1\n        /* \"contracts/BimodalLib.sol\":3849:3904  block.number.sub(self.genesis).mod(self.BLOCKS_PER_EON) */\n      swap2\n      swap1\n      0xffffffff\n      and\n      jump\t// in\n    tag_85:\n        /* \"contracts/BimodalLib.sol\":3842:3904  return block.number.sub(self.genesis).mod(self.BLOCKS_PER_EON) */\n      swap1\n      pop\n        /* \"contracts/BimodalLib.sol\":3743:3909  function currentEra(... */\n      swap2\n      swap1\n      pop\n      jump\t// out\n        /* \"contracts/BimodalLib.sol\":10623:10993  function signedMessageECRECOVER(... */\n    tag_28:\n        /* \"contracts/BimodalLib.sol\":10748:10755  address */\n      0x0\n        /* \"contracts/BimodalLib.sol\":10772:10988  ecrecover(... */\n      0x1\n        /* \"contracts/BimodalLib.sol\":10961:10968  message */\n      dup6\n        /* \"contracts/BimodalLib.sol\":10879:10969  abi.encodePacked(... */\n      add(0x20, mload(0x40))\n      dup1\n      dup1\n      0x194c69717569646974792e4e6574776f726b20417574686f72697a6174696f6e\n      dup2\n      mstore\n      0x20\n      add\n      0x3a0a333200000000000000000000000000000000000000000000000000000000\n      dup2\n      mstore\n      pop\n      0x24\n      add\n      dup3\n      not(0x0)\n      and\n      not(0x0)\n      and\n      dup2\n      mstore\n      0x20\n      add\n      swap2\n      pop\n      pop\n      mload(0x40)\n        /* \"--CODEGEN--\":49:53   */\n      0x20\n        /* \"--CODEGEN--\":39:46   */\n      dup2\n        /* \"--CODEGEN--\":30:37   */\n      dup4\n        /* \"--CODEGEN--\":26:47   */\n      sub\n        /* \"--CODEGEN--\":22:54   */\n      sub\n        /* \"--CODEGEN--\":13:20   */\n      dup2\n        /* \"--CODEGEN--\":6:55   */\n      mstore\n        /* \"contracts/BimodalLib.sol\":10879:10969  abi.encodePacked(... */\n      swap1\n      0x40\n      mstore\n        /* \"contracts/BimodalLib.sol\":10869:10970  keccak256(abi.encodePacked(... */\n      mload(0x40)\n      dup1\n      dup3\n      dup1\n      mload\n      swap1\n      0x20\n      add\n      swap1\n      dup1\n      dup4\n      dup4\n        /* \"--CODEGEN--\":36:189   */\n    tag_88:\n        /* \"--CODEGEN--\":66:68   */\n      0x20\n        /* \"--CODEGEN--\":61:64   */\n      dup4\n        /* \"--CODEGEN--\":58:69   */\n      lt\n        /* \"--CODEGEN--\":51:70   */\n      iszero\n        /* \"--CODEGEN--\":36:189   */\n      iszero\n      tag_89\n      jumpi\n        /* \"--CODEGEN--\":182:185   */\n      dup1\n        /* \"--CODEGEN--\":176:186   */\n      mload\n        /* \"--CODEGEN--\":171:174   */\n      dup3\n        /* \"--CODEGEN--\":164:187   */\n      mstore\n        /* \"--CODEGEN--\":98:100   */\n      0x20\n        /* \"--CODEGEN--\":93:96   */\n      dup3\n        /* \"--CODEGEN--\":89:101   */\n      add\n        /* \"--CODEGEN--\":82:101   */\n      swap2\n      pop\n        /* \"--CODEGEN--\":123:125   */\n      0x20\n        /* \"--CODEGEN--\":118:121   */\n      dup2\n        /* \"--CODEGEN--\":114:126   */\n      add\n        /* \"--CODEGEN--\":107:126   */\n      swap1\n      pop\n        /* \"--CODEGEN--\":148:150   */\n      0x20\n        /* \"--CODEGEN--\":143:146   */\n      dup4\n        /* \"--CODEGEN--\":139:151   */\n      sub\n        /* \"--CODEGEN--\":132:151   */\n      swap3\n      pop\n        /* \"--CODEGEN--\":36:189   */\n      jump(tag_88)\n    tag_89:\n        /* \"--CODEGEN--\":274:275   */\n      0x1\n        /* \"--CODEGEN--\":267:270   */\n      dup4\n        /* \"--CODEGEN--\":263:265   */\n      0x20\n        /* \"--CODEGEN--\":259:271   */\n      sub\n        /* \"--CODEGEN--\":254:257   */\n      0x100\n        /* \"--CODEGEN--\":250:272   */\n      exp\n        /* \"--CODEGEN--\":246:276   */\n      sub\n        /* \"--CODEGEN--\":315:319   */\n      dup1\n        /* \"--CODEGEN--\":311:320   */\n      not\n        /* \"--CODEGEN--\":305:308   */\n      dup3\n        /* \"--CODEGEN--\":299:309   */\n      mload\n        /* \"--CODEGEN--\":295:321   */\n      and\n        /* \"--CODEGEN--\":356:360   */\n      dup2\n        /* \"--CODEGEN--\":350:353   */\n      dup5\n        /* \"--CODEGEN--\":344:354   */\n      mload\n        /* \"--CODEGEN--\":340:361   */\n      and\n        /* \"--CODEGEN--\":389:396   */\n      dup1\n        /* \"--CODEGEN--\":380:387   */\n      dup3\n        /* \"--CODEGEN--\":377:397   */\n      or\n        /* \"--CODEGEN--\":372:375   */\n      dup6\n        /* \"--CODEGEN--\":365:398   */\n      mstore\n        /* \"--CODEGEN--\":3:402   */\n      pop\n      pop\n      pop\n        /* \"contracts/BimodalLib.sol\":10869:10970  keccak256(abi.encodePacked(... */\n      pop\n      pop\n      pop\n      swap1\n      pop\n      add\n      swap2\n      pop\n      pop\n      mload(0x40)\n      dup1\n      swap2\n      sub\n      swap1\n      keccak256\n        /* \"contracts/BimodalLib.sol\":10799:10971  abi.encodePacked(... */\n      add(0x20, mload(0x40))\n      dup1\n      dup1\n      0x19457468657265756d205369676e6564204d6573736167653a0a333200000000\n      dup2\n      mstore\n      pop\n      0x1c\n      add\n      dup3\n      not(0x0)\n      and\n      not(0x0)\n      and\n      dup2\n      mstore\n      0x20\n      add\n      swap2\n      pop\n      pop\n      mload(0x40)\n        /* \"--CODEGEN--\":49:53   */\n      0x20\n        /* \"--CODEGEN--\":39:46   */\n      dup2\n        /* \"--CODEGEN--\":30:37   */\n      dup4\n        /* \"--CODEGEN--\":26:47   */\n      sub\n        /* \"--CODEGEN--\":22:54   */\n      sub\n        /* \"--CODEGEN--\":13:20   */\n      dup2\n        /* \"--CODEGEN--\":6:55   */\n      mstore\n        /* \"contracts/BimodalLib.sol\":10799:10971  abi.encodePacked(... */\n      swap1\n      0x40\n      mstore\n        /* \"contracts/BimodalLib.sol\":10789:10972  keccak256(abi.encodePacked(... */\n      mload(0x40)\n      dup1\n      dup3\n      dup1\n      mload\n      swap1\n      0x20\n      add\n      swap1\n      dup1\n      dup4\n      dup4\n        /* \"--CODEGEN--\":36:189   */\n    tag_91:\n        /* \"--CODEGEN--\":66:68   */\n      0x20\n        /* \"--CODEGEN--\":61:64   */\n      dup4\n        /* \"--CODEGEN--\":58:69   */\n      lt\n        /* \"--CODEGEN--\":51:70   */\n      iszero\n        /* \"--CODEGEN--\":36:189   */\n      iszero\n      tag_92\n      jumpi\n        /* \"--CODEGEN--\":182:185   */\n      dup1\n        /* \"--CODEGEN--\":176:186   */\n      mload\n        /* \"--CODEGEN--\":171:174   */\n      dup3\n        /* \"--CODEGEN--\":164:187   */\n      mstore\n        /* \"--CODEGEN--\":98:100   */\n      0x20\n        /* \"--CODEGEN--\":93:96   */\n      dup3\n        /* \"--CODEGEN--\":89:101   */\n      add\n        /* \"--CODEGEN--\":82:101   */\n      swap2\n      pop\n        /* \"--CODEGEN--\":123:125   */\n      0x20\n        /* \"--CODEGEN--\":118:121   */\n      dup2\n        /* \"--CODEGEN--\":114:126   */\n      add\n        /* \"--CODEGEN--\":107:126   */\n      swap1\n      pop\n        /* \"--CODEGEN--\":148:150   */\n      0x20\n        /* \"--CODEGEN--\":143:146   */\n      dup4\n        /* \"--CODEGEN--\":139:151   */\n      sub\n        /* \"--CODEGEN--\":132:151   */\n      swap3\n      pop\n        /* \"--CODEGEN--\":36:189   */\n      jump(tag_91)\n    tag_92:\n        /* \"--CODEGEN--\":274:275   */\n      0x1\n        /* \"--CODEGEN--\":267:270   */\n      dup4\n        /* \"--CODEGEN--\":263:265   */\n      0x20\n        /* \"--CODEGEN--\":259:271   */\n      sub\n        /* \"--CODEGEN--\":254:257   */\n      0x100\n        /* \"--CODEGEN--\":250:272   */\n      exp\n        /* \"--CODEGEN--\":246:276   */\n      sub\n        /* \"--CODEGEN--\":315:319   */\n      dup1\n        /* \"--CODEGEN--\":311:320   */\n      not\n        /* \"--CODEGEN--\":305:308   */\n      dup3\n        /* \"--CODEGEN--\":299:309   */\n      mload\n        /* \"--CODEGEN--\":295:321   */\n      and\n        /* \"--CODEGEN--\":356:360   */\n      dup2\n        /* \"--CODEGEN--\":350:353   */\n      dup5\n        /* \"--CODEGEN--\":344:354   */\n      mload\n        /* \"--CODEGEN--\":340:361   */\n      and\n        /* \"--CODEGEN--\":389:396   */\n      dup1\n        /* \"--CODEGEN--\":380:387   */\n      dup3\n        /* \"--CODEGEN--\":377:397   */\n      or\n        /* \"--CODEGEN--\":372:375   */\n      dup6\n        /* \"--CODEGEN--\":365:398   */\n      mstore\n        /* \"--CODEGEN--\":3:402   */\n      pop\n      pop\n      pop\n        /* \"contracts/BimodalLib.sol\":10789:10972  keccak256(abi.encodePacked(... */\n      pop\n      pop\n      pop\n      swap1\n      pop\n      add\n      swap2\n      pop\n      pop\n      mload(0x40)\n      dup1\n      swap2\n      sub\n      swap1\n      keccak256\n        /* \"contracts/BimodalLib.sol\":10980:10981  v */\n      dup4\n        /* \"contracts/BimodalLib.sol\":10983:10984  r */\n      dup7\n        /* \"contracts/BimodalLib.sol\":10986:10987  s */\n      dup7\n        /* \"contracts/BimodalLib.sol\":10772:10988  ecrecover(... */\n      mload(0x40)\n      0x0\n      dup2\n      mstore\n      0x20\n      add\n      0x40\n      mstore\n      mload(0x40)\n      dup1\n      dup6\n      not(0x0)\n      and\n      not(0x0)\n      and\n      dup2\n      mstore\n      0x20\n      add\n      dup5\n      0xff\n      and\n      0xff\n      and\n      dup2\n      mstore\n      0x20\n      add\n      dup4\n      not(0x0)\n      and\n      not(0x0)\n      and\n      dup2\n      mstore\n      0x20\n      add\n      dup3\n      not(0x0)\n      and\n      not(0x0)\n      and\n      dup2\n      mstore\n      0x20\n      add\n      swap5\n      pop\n      pop\n      pop\n      pop\n      pop\n      0x20\n      mload(0x40)\n      0x20\n      dup2\n      sub\n      swap1\n      dup1\n      dup5\n      sub\n      swap1\n      0x0\n      dup7\n      gas\n      call\n      iszero\n        /* \"--CODEGEN--\":8:17   */\n      dup1\n        /* \"--CODEGEN--\":5:7   */\n      iszero\n      tag_94\n      jumpi\n        /* \"--CODEGEN--\":45:61   */\n      returndatasize\n        /* \"--CODEGEN--\":42:43   */\n      0x0\n        /* \"--CODEGEN--\":39:40   */\n      dup1\n        /* \"--CODEGEN--\":24:62   */\n      returndatacopy\n        /* \"--CODEGEN--\":77:93   */\n      returndatasize\n        /* \"--CODEGEN--\":74:75   */\n      0x0\n        /* \"--CODEGEN--\":67:94   */\n      revert\n        /* \"--CODEGEN--\":5:7   */\n    tag_94:\n        /* \"contracts/BimodalLib.sol\":10772:10988  ecrecover(... */\n      pop\n      pop\n      pop\n      mload(sub(mload(0x40), 0x20))\n        /* \"contracts/BimodalLib.sol\":10765:10988  return ecrecover(... */\n      swap1\n      pop\n        /* \"contracts/BimodalLib.sol\":10623:10993  function signedMessageECRECOVER(... */\n      swap5\n      swap4\n      pop\n      pop\n      pop\n      pop\n      jump\t// out\n        /* \"contracts/BimodalLib.sol\":10197:10481  function addToAggregate(... */\n    tag_31:\n        /* \"contracts/BimodalLib.sol\":10329:10338  aggregate */\n      dup3\n        /* \"contracts/BimodalLib.sol\":10329:10342  aggregate.eon */\n      0x0\n      add\n      sload\n        /* \"contracts/BimodalLib.sol\":10323:10326  eon */\n      dup3\n        /* \"contracts/BimodalLib.sol\":10323:10342  eon > aggregate.eon */\n      gt\n        /* \"contracts/BimodalLib.sol\":10319:10477  if (eon > aggregate.eon) {... */\n      iszero\n      tag_96\n      jumpi\n        /* \"contracts/BimodalLib.sol\":10368:10371  eon */\n      dup2\n        /* \"contracts/BimodalLib.sol\":10352:10361  aggregate */\n      dup4\n        /* \"contracts/BimodalLib.sol\":10352:10365  aggregate.eon */\n      0x0\n      add\n        /* \"contracts/BimodalLib.sol\":10352:10371  aggregate.eon = eon */\n      dup2\n      swap1\n      sstore\n      pop\n        /* \"contracts/BimodalLib.sol\":10398:10403  value */\n      dup1\n        /* \"contracts/BimodalLib.sol\":10379:10388  aggregate */\n      dup4\n        /* \"contracts/BimodalLib.sol\":10379:10395  aggregate.amount */\n      0x1\n      add\n        /* \"contracts/BimodalLib.sol\":10379:10403  aggregate.amount = value */\n      dup2\n      swap1\n      sstore\n      pop\n        /* \"contracts/BimodalLib.sol\":10319:10477  if (eon > aggregate.eon) {... */\n      jump(tag_97)\n    tag_96:\n        /* \"contracts/BimodalLib.sol\":10443:10470  aggregate.amount.add(value) */\n      tag_98\n        /* \"contracts/BimodalLib.sol\":10464:10469  value */\n      dup2\n        /* \"contracts/BimodalLib.sol\":10443:10452  aggregate */\n      dup5\n        /* \"contracts/BimodalLib.sol\":10443:10459  aggregate.amount */\n      0x1\n      add\n      sload\n        /* \"contracts/BimodalLib.sol\":10443:10463  aggregate.amount.add */\n      tag_75\n      swap1\n        /* \"contracts/BimodalLib.sol\":10443:10470  aggregate.amount.add(value) */\n      swap2\n      swap1\n      0xffffffff\n      and\n      jump\t// in\n    tag_98:\n        /* \"contracts/BimodalLib.sol\":10424:10433  aggregate */\n      dup4\n        /* \"contracts/BimodalLib.sol\":10424:10440  aggregate.amount */\n      0x1\n      add\n        /* \"contracts/BimodalLib.sol\":10424:10470  aggregate.amount = aggregate.amount.add(value) */\n      dup2\n      swap1\n      sstore\n      pop\n        /* \"contracts/BimodalLib.sol\":10319:10477  if (eon > aggregate.eon) {... */\n    tag_97:\n        /* \"contracts/BimodalLib.sol\":10197:10481  function addToAggregate(... */\n      pop\n      pop\n      pop\n      jump\t// out\n        /* \"contracts/BimodalLib.sol\":8609:9210  function getWalletPendingWithdrawalAmountAtEon(... */\n    tag_33:\n        /* \"contracts/BimodalLib.sol\":8772:8786  uint256 amount */\n      0x0\n        /* \"contracts/BimodalLib.sol\":8813:8843  Wallet storage accountingEntry */\n      dup1\n        /* \"contracts/BimodalLib.sol\":8882:8914  Withdrawal[] storage withdrawals */\n      0x0\n        /* \"contracts/BimodalLib.sol\":8955:8963  uint32 i */\n      dup1\n        /* \"contracts/BimodalLib.sol\":9006:9035  Withdrawal storage withdrawal */\n      0x0\n        /* \"contracts/BimodalLib.sol\":8805:8806  0 */\n      dup1\n        /* \"contracts/BimodalLib.sol\":8796:8806  amount = 0 */\n      swap5\n      pop\n        /* \"contracts/BimodalLib.sol\":8846:8850  self */\n      dup9\n        /* \"contracts/BimodalLib.sol\":8846:8861  self.walletBook */\n      0x1d\n      add\n        /* \"contracts/BimodalLib.sol\":8846:8868  self.walletBook[token] */\n      0x0\n        /* \"contracts/BimodalLib.sol\":8862:8867  token */\n      dup10\n        /* \"contracts/BimodalLib.sol\":8846:8868  self.walletBook[token] */\n      0xffffffffffffffffffffffffffffffffffffffff\n      and\n      0xffffffffffffffffffffffffffffffffffffffff\n      and\n      dup2\n      mstore\n      0x20\n      add\n      swap1\n      dup2\n      mstore\n      0x20\n      add\n      0x0\n      keccak256\n        /* \"contracts/BimodalLib.sol\":8846:8876  self.walletBook[token][holder] */\n      0x0\n        /* \"contracts/BimodalLib.sol\":8869:8875  holder */\n      dup9\n        /* \"contracts/BimodalLib.sol\":8846:8876  self.walletBook[token][holder] */\n      0xffffffffffffffffffffffffffffffffffffffff\n      and\n      0xffffffffffffffffffffffffffffffffffffffff\n      and\n      dup2\n      mstore\n      0x20\n      add\n      swap1\n      dup2\n      mstore\n      0x20\n      add\n      0x0\n      keccak256\n        /* \"contracts/BimodalLib.sol\":8813:8876  Wallet storage accountingEntry = self.walletBook[token][holder] */\n      swap4\n      pop\n        /* \"contracts/BimodalLib.sol\":8917:8932  accountingEntry */\n      dup4\n        /* \"contracts/BimodalLib.sol\":8917:8944  accountingEntry.withdrawals */\n      0x6\n      add\n        /* \"contracts/BimodalLib.sol\":8882:8944  Withdrawal[] storage withdrawals = accountingEntry.withdrawals */\n      swap3\n      pop\n        /* \"contracts/BimodalLib.sol\":8966:8967  0 */\n      0x0\n        /* \"contracts/BimodalLib.sol\":8955:8967  uint32 i = 0 */\n      swap2\n      pop\n        /* \"contracts/BimodalLib.sol\":8950:9206  for (uint32 i = 0; i < withdrawals.length; i++) {... */\n    tag_100:\n        /* \"contracts/BimodalLib.sol\":8973:8984  withdrawals */\n      dup3\n        /* \"contracts/BimodalLib.sol\":8973:8991  withdrawals.length */\n      dup1\n      sload\n      swap1\n      pop\n        /* \"contracts/BimodalLib.sol\":8969:8970  i */\n      dup3\n        /* \"contracts/BimodalLib.sol\":8969:8991  i < withdrawals.length */\n      0xffffffff\n      and\n      lt\n        /* \"contracts/BimodalLib.sol\":8950:9206  for (uint32 i = 0; i < withdrawals.length; i++) {... */\n      iszero\n      tag_101\n      jumpi\n        /* \"contracts/BimodalLib.sol\":9038:9049  withdrawals */\n      dup3\n        /* \"contracts/BimodalLib.sol\":9050:9051  i */\n      dup3\n        /* \"contracts/BimodalLib.sol\":9038:9052  withdrawals[i] */\n      0xffffffff\n      and\n      dup2\n      sload\n      dup2\n      lt\n      iszero\n      iszero\n      tag_103\n      jumpi\n      invalid\n    tag_103:\n      swap1\n      0x0\n      mstore\n      keccak256(0x0, 0x20)\n      swap1\n      0x2\n      mul\n      add\n        /* \"contracts/BimodalLib.sol\":9006:9052  Withdrawal storage withdrawal = withdrawals[i] */\n      swap1\n      pop\n        /* \"contracts/BimodalLib.sol\":9082:9085  eon */\n      dup6\n        /* \"contracts/BimodalLib.sol\":9064:9074  withdrawal */\n      dup2\n        /* \"contracts/BimodalLib.sol\":9064:9078  withdrawal.eon */\n      0x0\n      add\n      sload\n        /* \"contracts/BimodalLib.sol\":9064:9085  withdrawal.eon == eon */\n      eq\n        /* \"contracts/BimodalLib.sol\":9060:9200  if (withdrawal.eon == eon) {... */\n      iszero\n      tag_105\n      jumpi\n        /* \"contracts/BimodalLib.sol\":9106:9135  amount.add(withdrawal.amount) */\n      tag_106\n        /* \"contracts/BimodalLib.sol\":9117:9127  withdrawal */\n      dup2\n        /* \"contracts/BimodalLib.sol\":9117:9134  withdrawal.amount */\n      0x1\n      add\n      sload\n        /* \"contracts/BimodalLib.sol\":9106:9112  amount */\n      dup7\n        /* \"contracts/BimodalLib.sol\":9106:9116  amount.add */\n      tag_75\n      swap1\n        /* \"contracts/BimodalLib.sol\":9106:9135  amount.add(withdrawal.amount) */\n      swap2\n      swap1\n      0xffffffff\n      and\n      jump\t// in\n    tag_106:\n        /* \"contracts/BimodalLib.sol\":9097:9135  amount = amount.add(withdrawal.amount) */\n      swap5\n      pop\n        /* \"contracts/BimodalLib.sol\":9060:9200  if (withdrawal.eon == eon) {... */\n      jump(tag_107)\n    tag_105:\n        /* \"contracts/BimodalLib.sol\":9171:9174  eon */\n      dup6\n        /* \"contracts/BimodalLib.sol\":9154:9164  withdrawal */\n      dup2\n        /* \"contracts/BimodalLib.sol\":9154:9168  withdrawal.eon */\n      0x0\n      add\n      sload\n        /* \"contracts/BimodalLib.sol\":9154:9174  withdrawal.eon > eon */\n      gt\n        /* \"contracts/BimodalLib.sol\":9150:9200  if (withdrawal.eon > eon) {... */\n      iszero\n      tag_108\n      jumpi\n        /* \"contracts/BimodalLib.sol\":9186:9191  break */\n      jump(tag_101)\n        /* \"contracts/BimodalLib.sol\":9150:9200  if (withdrawal.eon > eon) {... */\n    tag_108:\n        /* \"contracts/BimodalLib.sol\":9060:9200  if (withdrawal.eon == eon) {... */\n    tag_107:\n        /* \"contracts/BimodalLib.sol\":8993:8996  i++ */\n      dup2\n      dup1\n      0x1\n      add\n      swap3\n      pop\n      pop\n        /* \"contracts/BimodalLib.sol\":8950:9206  for (uint32 i = 0; i < withdrawals.length; i++) {... */\n      jump(tag_100)\n    tag_101:\n        /* \"contracts/BimodalLib.sol\":8609:9210  function getWalletPendingWithdrawalAmountAtEon(... */\n      pop\n      pop\n      pop\n      pop\n      swap5\n      swap4\n      pop\n      pop\n      pop\n      pop\n      jump\t// out\n        /* \"contracts/BimodalLib.sol\":5697:6304  function addToRunningPendingWithdrawals(... */\n    tag_36:\n        /* \"contracts/BimodalLib.sol\":5838:5871  AmountAggregate storage aggregate */\n      0x0\n        /* \"contracts/BimodalLib.sol\":5874:5878  self */\n      dup5\n        /* \"contracts/BimodalLib.sol\":5874:5897  self.pendingWithdrawals */\n      0x1f\n      add\n        /* \"contracts/BimodalLib.sol\":5874:5904  self.pendingWithdrawals[token] */\n      0x0\n        /* \"contracts/BimodalLib.sol\":5898:5903  token */\n      dup6\n        /* \"contracts/BimodalLib.sol\":5874:5904  self.pendingWithdrawals[token] */\n      0xffffffffffffffffffffffffffffffffffffffff\n      and\n      0xffffffffffffffffffffffffffffffffffffffff\n      and\n      dup2\n      mstore\n      0x20\n      add\n      swap1\n      dup2\n      mstore\n      0x20\n      add\n      0x0\n      keccak256\n        /* \"contracts/BimodalLib.sol\":5905:5928  eon.mod(self.EONS_KEPT) */\n      tag_110\n        /* \"contracts/BimodalLib.sol\":5913:5917  self */\n      dup7\n        /* \"contracts/BimodalLib.sol\":5913:5927  self.EONS_KEPT */\n      0x0\n      add\n      0x0\n      swap1\n      sload\n      swap1\n      0x100\n      exp\n      swap1\n      div\n      0xff\n      and\n        /* \"contracts/BimodalLib.sol\":5905:5928  eon.mod(self.EONS_KEPT) */\n      0xff\n      and\n        /* \"contracts/BimodalLib.sol\":5905:5908  eon */\n      dup6\n        /* \"contracts/BimodalLib.sol\":5905:5912  eon.mod */\n      tag_56\n      swap1\n        /* \"contracts/BimodalLib.sol\":5905:5928  eon.mod(self.EONS_KEPT) */\n      swap2\n      swap1\n      0xffffffff\n      and\n      jump\t// in\n    tag_110:\n        /* \"contracts/BimodalLib.sol\":5874:5929  self.pendingWithdrawals[token][eon.mod(self.EONS_KEPT)] */\n      0x5\n      dup2\n      lt\n      iszero\n      iszero\n      tag_111\n      jumpi\n      invalid\n    tag_111:\n      0x2\n      mul\n      add\n        /* \"contracts/BimodalLib.sol\":5838:5929  AmountAggregate storage aggregate = self.pendingWithdrawals[token][eon.mod(self.EONS_KEPT)] */\n      swap1\n      pop\n        /* \"contracts/BimodalLib.sol\":6086:6089  eon */\n      dup3\n        /* \"contracts/BimodalLib.sol\":6070:6079  aggregate */\n      dup2\n        /* \"contracts/BimodalLib.sol\":6070:6083  aggregate.eon */\n      0x0\n      add\n      sload\n        /* \"contracts/BimodalLib.sol\":6070:6089  aggregate.eon < eon */\n      lt\n        /* \"contracts/BimodalLib.sol\":6066:6300  if (aggregate.eon < eon) { // implies eon > 0... */\n      iszero\n      tag_113\n      jumpi\n        /* \"contracts/BimodalLib.sol\":6137:6199  getPendingWithdrawalsAtEon(self, token, eon.sub(1)).add(value) */\n      tag_114\n        /* \"contracts/BimodalLib.sol\":6193:6198  value */\n      dup3\n        /* \"contracts/BimodalLib.sol\":6137:6188  getPendingWithdrawalsAtEon(self, token, eon.sub(1)) */\n      tag_115\n        /* \"contracts/BimodalLib.sol\":6164:6168  self */\n      dup8\n        /* \"contracts/BimodalLib.sol\":6170:6175  token */\n      dup8\n        /* \"contracts/BimodalLib.sol\":6177:6187  eon.sub(1) */\n      tag_116\n        /* \"contracts/BimodalLib.sol\":6185:6186  1 */\n      0x1\n        /* \"contracts/BimodalLib.sol\":6177:6180  eon */\n      dup10\n        /* \"contracts/BimodalLib.sol\":6177:6184  eon.sub */\n      tag_65\n      swap1\n        /* \"contracts/BimodalLib.sol\":6177:6187  eon.sub(1) */\n      swap2\n      swap1\n      0xffffffff\n      and\n      jump\t// in\n    tag_116:\n        /* \"contracts/BimodalLib.sol\":6137:6163  getPendingWithdrawalsAtEon */\n      tag_17\n        /* \"contracts/BimodalLib.sol\":6137:6188  getPendingWithdrawalsAtEon(self, token, eon.sub(1)) */\n      jump\t// in\n    tag_115:\n        /* \"contracts/BimodalLib.sol\":6137:6192  getPendingWithdrawalsAtEon(self, token, eon.sub(1)).add */\n      tag_75\n      swap1\n        /* \"contracts/BimodalLib.sol\":6137:6199  getPendingWithdrawalsAtEon(self, token, eon.sub(1)).add(value) */\n      swap2\n      swap1\n      0xffffffff\n      and\n      jump\t// in\n    tag_114:\n        /* \"contracts/BimodalLib.sol\":6118:6127  aggregate */\n      dup2\n        /* \"contracts/BimodalLib.sol\":6118:6134  aggregate.amount */\n      0x1\n      add\n        /* \"contracts/BimodalLib.sol\":6118:6199  aggregate.amount = getPendingWithdrawalsAtEon(self, token, eon.sub(1)).add(value) */\n      dup2\n      swap1\n      sstore\n      pop\n        /* \"contracts/BimodalLib.sol\":6223:6226  eon */\n      dup3\n        /* \"contracts/BimodalLib.sol\":6207:6216  aggregate */\n      dup2\n        /* \"contracts/BimodalLib.sol\":6207:6220  aggregate.eon */\n      0x0\n      add\n        /* \"contracts/BimodalLib.sol\":6207:6226  aggregate.eon = eon */\n      dup2\n      swap1\n      sstore\n      pop\n        /* \"contracts/BimodalLib.sol\":6066:6300  if (aggregate.eon < eon) { // implies eon > 0... */\n      jump(tag_117)\n    tag_113:\n        /* \"contracts/BimodalLib.sol\":6266:6293  aggregate.amount.add(value) */\n      tag_118\n        /* \"contracts/BimodalLib.sol\":6287:6292  value */\n      dup3\n        /* \"contracts/BimodalLib.sol\":6266:6275  aggregate */\n      dup3\n        /* \"contracts/BimodalLib.sol\":6266:6282  aggregate.amount */\n      0x1\n      add\n      sload\n        /* \"contracts/BimodalLib.sol\":6266:6286  aggregate.amount.add */\n      tag_75\n      swap1\n        /* \"contracts/BimodalLib.sol\":6266:6293  aggregate.amount.add(value) */\n      swap2\n      swap1\n      0xffffffff\n      and\n      jump\t// in\n    tag_118:\n        /* \"contracts/BimodalLib.sol\":6247:6256  aggregate */\n      dup2\n        /* \"contracts/BimodalLib.sol\":6247:6263  aggregate.amount */\n      0x1\n      add\n        /* \"contracts/BimodalLib.sol\":6247:6293  aggregate.amount = aggregate.amount.add(value) */\n      dup2\n      swap1\n      sstore\n      pop\n        /* \"contracts/BimodalLib.sol\":6066:6300  if (aggregate.eon < eon) { // implies eon > 0... */\n    tag_117:\n        /* \"contracts/BimodalLib.sol\":5697:6304  function addToRunningPendingWithdrawals(... */\n      pop\n      pop\n      pop\n      pop\n      pop\n      jump\t// out\n        /* \"contracts/BimodalLib.sol\":6392:7517  function deductFromRunningPendingWithdrawals(... */\n    tag_39:\n        /* \"contracts/BimodalLib.sol\":6621:6630  uint256 i */\n      0x0\n        /* \"contracts/BimodalLib.sol\":6669:6686  uint256 targetEon */\n      dup1\n        /* \"contracts/BimodalLib.sol\":6707:6740  AmountAggregate storage aggregate */\n      0x0\n        /* \"contracts/BimodalLib.sol\":6633:6634  0 */\n      dup1\n        /* \"contracts/BimodalLib.sol\":6621:6634  uint256 i = 0 */\n      swap3\n      pop\n        /* \"contracts/BimodalLib.sol\":6616:7099  for (uint256 i = 0; i < self.EONS_KEPT; i++) {... */\n    tag_120:\n        /* \"contracts/BimodalLib.sol\":6640:6644  self */\n      dup8\n        /* \"contracts/BimodalLib.sol\":6640:6654  self.EONS_KEPT */\n      0x0\n      add\n      0x0\n      swap1\n      sload\n      swap1\n      0x100\n      exp\n      swap1\n      div\n      0xff\n      and\n        /* \"contracts/BimodalLib.sol\":6636:6654  i < self.EONS_KEPT */\n      0xff\n      and\n        /* \"contracts/BimodalLib.sol\":6636:6637  i */\n      dup4\n        /* \"contracts/BimodalLib.sol\":6636:6654  i < self.EONS_KEPT */\n      lt\n        /* \"contracts/BimodalLib.sol\":6616:7099  for (uint256 i = 0; i < self.EONS_KEPT; i++) {... */\n      iszero\n      tag_121\n      jumpi\n        /* \"contracts/BimodalLib.sol\":6689:6699  eon.add(i) */\n      tag_123\n        /* \"contracts/BimodalLib.sol\":6697:6698  i */\n      dup4\n        /* \"contracts/BimodalLib.sol\":6689:6692  eon */\n      dup8\n        /* \"contracts/BimodalLib.sol\":6689:6696  eon.add */\n      tag_75\n      swap1\n        /* \"contracts/BimodalLib.sol\":6689:6699  eon.add(i) */\n      swap2\n      swap1\n      0xffffffff\n      and\n      jump\t// in\n    tag_123:\n        /* \"contracts/BimodalLib.sol\":6669:6699  uint256 targetEon = eon.add(i) */\n      swap2\n      pop\n        /* \"contracts/BimodalLib.sol\":6743:6747  self */\n      dup8\n        /* \"contracts/BimodalLib.sol\":6743:6766  self.pendingWithdrawals */\n      0x1f\n      add\n        /* \"contracts/BimodalLib.sol\":6743:6773  self.pendingWithdrawals[token] */\n      0x0\n        /* \"contracts/BimodalLib.sol\":6767:6772  token */\n      dup9\n        /* \"contracts/BimodalLib.sol\":6743:6773  self.pendingWithdrawals[token] */\n      0xffffffffffffffffffffffffffffffffffffffff\n      and\n      0xffffffffffffffffffffffffffffffffffffffff\n      and\n      dup2\n      mstore\n      0x20\n      add\n      swap1\n      dup2\n      mstore\n      0x20\n      add\n      0x0\n      keccak256\n        /* \"contracts/BimodalLib.sol\":6774:6803  targetEon.mod(self.EONS_KEPT) */\n      tag_124\n        /* \"contracts/BimodalLib.sol\":6788:6792  self */\n      dup10\n        /* \"contracts/BimodalLib.sol\":6788:6802  self.EONS_KEPT */\n      0x0\n      add\n      0x0\n      swap1\n      sload\n      swap1\n      0x100\n      exp\n      swap1\n      div\n      0xff\n      and\n        /* \"contracts/BimodalLib.sol\":6774:6803  targetEon.mod(self.EONS_KEPT) */\n      0xff\n      and\n        /* \"contracts/BimodalLib.sol\":6774:6783  targetEon */\n      dup5\n        /* \"contracts/BimodalLib.sol\":6774:6787  targetEon.mod */\n      tag_56\n      swap1\n        /* \"contracts/BimodalLib.sol\":6774:6803  targetEon.mod(self.EONS_KEPT) */\n      swap2\n      swap1\n      0xffffffff\n      and\n      jump\t// in\n    tag_124:\n        /* \"contracts/BimodalLib.sol\":6743:6804  self.pendingWithdrawals[token][targetEon.mod(self.EONS_KEPT)] */\n      0x5\n      dup2\n      lt\n      iszero\n      iszero\n      tag_125\n      jumpi\n      invalid\n    tag_125:\n      0x2\n      mul\n      add\n        /* \"contracts/BimodalLib.sol\":6707:6804  AmountAggregate storage aggregate = self.pendingWithdrawals[token][targetEon.mod(self.EONS_KEPT)] */\n      swap1\n      pop\n        /* \"contracts/BimodalLib.sol\":6828:6837  latestEon */\n      dup5\n        /* \"contracts/BimodalLib.sol\":6816:6825  targetEon */\n      dup3\n        /* \"contracts/BimodalLib.sol\":6816:6837  targetEon > latestEon */\n      gt\n        /* \"contracts/BimodalLib.sol\":6812:7093  if (targetEon > latestEon) {... */\n      iszero\n      tag_127\n      jumpi\n        /* \"contracts/BimodalLib.sol\":6849:6854  break */\n      jump(tag_121)\n        /* \"contracts/BimodalLib.sol\":6812:7093  if (targetEon > latestEon) {... */\n    tag_127:\n        /* \"contracts/BimodalLib.sol\":6889:6898  targetEon */\n      dup2\n        /* \"contracts/BimodalLib.sol\":6873:6882  aggregate */\n      dup2\n        /* \"contracts/BimodalLib.sol\":6873:6886  aggregate.eon */\n      0x0\n      add\n      sload\n        /* \"contracts/BimodalLib.sol\":6873:6898  aggregate.eon < targetEon */\n      lt\n        /* \"contracts/BimodalLib.sol\":6869:7093  if (aggregate.eon < targetEon) { // implies targetEon > 0... */\n      iszero\n      tag_129\n      jumpi\n        /* \"contracts/BimodalLib.sol\":6989:6998  targetEon */\n      dup2\n        /* \"contracts/BimodalLib.sol\":6973:6982  aggregate */\n      dup2\n        /* \"contracts/BimodalLib.sol\":6973:6986  aggregate.eon */\n      0x0\n      add\n        /* \"contracts/BimodalLib.sol\":6973:6998  aggregate.eon = targetEon */\n      dup2\n      swap1\n      sstore\n      pop\n        /* \"contracts/BimodalLib.sol\":7027:7084  getPendingWithdrawalsAtEon(self, token, targetEon.sub(1)) */\n      tag_130\n        /* \"contracts/BimodalLib.sol\":7054:7058  self */\n      dup9\n        /* \"contracts/BimodalLib.sol\":7060:7065  token */\n      dup9\n        /* \"contracts/BimodalLib.sol\":7067:7083  targetEon.sub(1) */\n      tag_131\n        /* \"contracts/BimodalLib.sol\":7081:7082  1 */\n      0x1\n        /* \"contracts/BimodalLib.sol\":7067:7076  targetEon */\n      dup7\n        /* \"contracts/BimodalLib.sol\":7067:7080  targetEon.sub */\n      tag_65\n      swap1\n        /* \"contracts/BimodalLib.sol\":7067:7083  targetEon.sub(1) */\n      swap2\n      swap1\n      0xffffffff\n      and\n      jump\t// in\n    tag_131:\n        /* \"contracts/BimodalLib.sol\":7027:7053  getPendingWithdrawalsAtEon */\n      tag_17\n        /* \"contracts/BimodalLib.sol\":7027:7084  getPendingWithdrawalsAtEon(self, token, targetEon.sub(1)) */\n      jump\t// in\n    tag_130:\n        /* \"contracts/BimodalLib.sol\":7008:7017  aggregate */\n      dup2\n        /* \"contracts/BimodalLib.sol\":7008:7024  aggregate.amount */\n      0x1\n      add\n        /* \"contracts/BimodalLib.sol\":7008:7084  aggregate.amount = getPendingWithdrawalsAtEon(self, token, targetEon.sub(1)) */\n      dup2\n      swap1\n      sstore\n      pop\n        /* \"contracts/BimodalLib.sol\":6869:7093  if (aggregate.eon < targetEon) { // implies targetEon > 0... */\n    tag_129:\n        /* \"contracts/BimodalLib.sol\":6656:6659  i++ */\n      dup3\n      dup1\n      0x1\n      add\n      swap4\n      pop\n      pop\n        /* \"contracts/BimodalLib.sol\":6616:7099  for (uint256 i = 0; i < self.EONS_KEPT; i++) {... */\n      jump(tag_120)\n    tag_121:\n        /* \"contracts/BimodalLib.sol\":7145:7146  0 */\n      0x0\n        /* \"contracts/BimodalLib.sol\":7141:7146  i = 0 */\n      swap3\n      pop\n        /* \"contracts/BimodalLib.sol\":7136:7513  for (i = 0; i < self.EONS_KEPT; i++) {... */\n    tag_132:\n        /* \"contracts/BimodalLib.sol\":7152:7156  self */\n      dup8\n        /* \"contracts/BimodalLib.sol\":7152:7166  self.EONS_KEPT */\n      0x0\n      add\n      0x0\n      swap1\n      sload\n      swap1\n      0x100\n      exp\n      swap1\n      div\n      0xff\n      and\n        /* \"contracts/BimodalLib.sol\":7148:7166  i < self.EONS_KEPT */\n      0xff\n      and\n        /* \"contracts/BimodalLib.sol\":7148:7149  i */\n      dup4\n        /* \"contracts/BimodalLib.sol\":7148:7166  i < self.EONS_KEPT */\n      lt\n        /* \"contracts/BimodalLib.sol\":7136:7513  for (i = 0; i < self.EONS_KEPT; i++) {... */\n      iszero\n      tag_133\n      jumpi\n        /* \"contracts/BimodalLib.sol\":7194:7204  eon.add(i) */\n      tag_135\n        /* \"contracts/BimodalLib.sol\":7202:7203  i */\n      dup4\n        /* \"contracts/BimodalLib.sol\":7194:7197  eon */\n      dup8\n        /* \"contracts/BimodalLib.sol\":7194:7201  eon.add */\n      tag_75\n      swap1\n        /* \"contracts/BimodalLib.sol\":7194:7204  eon.add(i) */\n      swap2\n      swap1\n      0xffffffff\n      and\n      jump\t// in\n    tag_135:\n        /* \"contracts/BimodalLib.sol\":7182:7204  targetEon = eon.add(i) */\n      swap2\n      pop\n        /* \"contracts/BimodalLib.sol\":7226:7230  self */\n      dup8\n        /* \"contracts/BimodalLib.sol\":7226:7249  self.pendingWithdrawals */\n      0x1f\n      add\n        /* \"contracts/BimodalLib.sol\":7226:7256  self.pendingWithdrawals[token] */\n      0x0\n        /* \"contracts/BimodalLib.sol\":7250:7255  token */\n      dup9\n        /* \"contracts/BimodalLib.sol\":7226:7256  self.pendingWithdrawals[token] */\n      0xffffffffffffffffffffffffffffffffffffffff\n      and\n      0xffffffffffffffffffffffffffffffffffffffff\n      and\n      dup2\n      mstore\n      0x20\n      add\n      swap1\n      dup2\n      mstore\n      0x20\n      add\n      0x0\n      keccak256\n        /* \"contracts/BimodalLib.sol\":7257:7286  targetEon.mod(self.EONS_KEPT) */\n      tag_136\n        /* \"contracts/BimodalLib.sol\":7271:7275  self */\n      dup10\n        /* \"contracts/BimodalLib.sol\":7271:7285  self.EONS_KEPT */\n      0x0\n      add\n      0x0\n      swap1\n      sload\n      swap1\n      0x100\n      exp\n      swap1\n      div\n      0xff\n      and\n        /* \"contracts/BimodalLib.sol\":7257:7286  targetEon.mod(self.EONS_KEPT) */\n      0xff\n      and\n        /* \"contracts/BimodalLib.sol\":7257:7266  targetEon */\n      dup5\n        /* \"contracts/BimodalLib.sol\":7257:7270  targetEon.mod */\n      tag_56\n      swap1\n        /* \"contracts/BimodalLib.sol\":7257:7286  targetEon.mod(self.EONS_KEPT) */\n      swap2\n      swap1\n      0xffffffff\n      and\n      jump\t// in\n    tag_136:\n        /* \"contracts/BimodalLib.sol\":7226:7287  self.pendingWithdrawals[token][targetEon.mod(self.EONS_KEPT)] */\n      0x5\n      dup2\n      lt\n      iszero\n      iszero\n      tag_137\n      jumpi\n      invalid\n    tag_137:\n      0x2\n      mul\n      add\n        /* \"contracts/BimodalLib.sol\":7214:7287  aggregate = self.pendingWithdrawals[token][targetEon.mod(self.EONS_KEPT)] */\n      swap1\n      pop\n        /* \"contracts/BimodalLib.sol\":7311:7320  latestEon */\n      dup5\n        /* \"contracts/BimodalLib.sol\":7299:7308  targetEon */\n      dup3\n        /* \"contracts/BimodalLib.sol\":7299:7320  targetEon > latestEon */\n      gt\n        /* \"contracts/BimodalLib.sol\":7295:7507  if (targetEon > latestEon) {... */\n      iszero\n      tag_139\n      jumpi\n        /* \"contracts/BimodalLib.sol\":7332:7337  break */\n      jump(tag_133)\n        /* \"contracts/BimodalLib.sol\":7295:7507  if (targetEon > latestEon) {... */\n    tag_139:\n        /* \"contracts/BimodalLib.sol\":7372:7381  targetEon */\n      dup2\n        /* \"contracts/BimodalLib.sol\":7356:7365  aggregate */\n      dup2\n        /* \"contracts/BimodalLib.sol\":7356:7369  aggregate.eon */\n      0x0\n      add\n      sload\n        /* \"contracts/BimodalLib.sol\":7356:7381  aggregate.eon < targetEon */\n      lt\n        /* \"contracts/BimodalLib.sol\":7352:7507  if (aggregate.eon < targetEon) {... */\n      iszero\n      tag_141\n      jumpi\n        /* \"contracts/BimodalLib.sol\":7393:7404  revert('X') */\n      mload(0x40)\n      0x8c379a000000000000000000000000000000000000000000000000000000000\n      dup2\n      mstore\n      0x4\n      add\n      dup1\n      dup1\n      0x20\n      add\n      dup3\n      dup2\n      sub\n      dup3\n      mstore\n      0x1\n      dup2\n      mstore\n      0x20\n      add\n      dup1\n      0x5800000000000000000000000000000000000000000000000000000000000000\n      dup2\n      mstore\n      pop\n      0x20\n      add\n      swap2\n      pop\n      pop\n      mload(0x40)\n      dup1\n      swap2\n      sub\n      swap1\n      revert\n        /* \"contracts/BimodalLib.sol\":7352:7507  if (aggregate.eon < targetEon) {... */\n    tag_141:\n        /* \"contracts/BimodalLib.sol\":7471:7498  aggregate.amount.sub(value) */\n      tag_143\n        /* \"contracts/BimodalLib.sol\":7492:7497  value */\n      dup5\n        /* \"contracts/BimodalLib.sol\":7471:7480  aggregate */\n      dup3\n        /* \"contracts/BimodalLib.sol\":7471:7487  aggregate.amount */\n      0x1\n      add\n      sload\n        /* \"contracts/BimodalLib.sol\":7471:7491  aggregate.amount.sub */\n      tag_65\n      swap1\n        /* \"contracts/BimodalLib.sol\":7471:7498  aggregate.amount.sub(value) */\n      swap2\n      swap1\n      0xffffffff\n      and\n      jump\t// in\n    tag_143:\n        /* \"contracts/BimodalLib.sol\":7452:7461  aggregate */\n      dup2\n        /* \"contracts/BimodalLib.sol\":7452:7468  aggregate.amount */\n      0x1\n      add\n        /* \"contracts/BimodalLib.sol\":7452:7498  aggregate.amount = aggregate.amount.sub(value) */\n      dup2\n      swap1\n      sstore\n      pop\n        /* \"contracts/BimodalLib.sol\":7168:7171  i++ */\n      dup3\n      dup1\n      0x1\n      add\n      swap4\n      pop\n      pop\n        /* \"contracts/BimodalLib.sol\":7136:7513  for (i = 0; i < self.EONS_KEPT; i++) {... */\n      jump(tag_132)\n    tag_133:\n        /* \"contracts/BimodalLib.sol\":6392:7517  function deductFromRunningPendingWithdrawals(... */\n      pop\n      pop\n      pop\n      pop\n      pop\n      pop\n      pop\n      pop\n      jump\t// out\n        /* \"contracts/BimodalLib.sol\":7978:8517  function getOrCreateCheckpoint(... */\n    tag_42:\n        /* \"contracts/BimodalLib.sol\":8108:8137  Checkpoint storage checkpoint */\n      0x0\n        /* \"contracts/BimodalLib.sol\":8230:8243  uint256 index */\n      dup1\n        /* \"contracts/BimodalLib.sol\":8167:8196  targetEon.add(self.EONS_KEPT) */\n      tag_145\n        /* \"contracts/BimodalLib.sol\":8181:8185  self */\n      dup6\n        /* \"contracts/BimodalLib.sol\":8181:8195  self.EONS_KEPT */\n      0x0\n      add\n      0x0\n      swap1\n      sload\n      swap1\n      0x100\n      exp\n      swap1\n      div\n      0xff\n      and\n        /* \"contracts/BimodalLib.sol\":8167:8196  targetEon.add(self.EONS_KEPT) */\n      0xff\n      and\n        /* \"contracts/BimodalLib.sol\":8167:8176  targetEon */\n      dup6\n        /* \"contracts/BimodalLib.sol\":8167:8180  targetEon.add */\n      tag_75\n      swap1\n        /* \"contracts/BimodalLib.sol\":8167:8196  targetEon.add(self.EONS_KEPT) */\n      swap2\n      swap1\n      0xffffffff\n      and\n      jump\t// in\n    tag_145:\n        /* \"contracts/BimodalLib.sol\":8155:8164  latestEon */\n      dup4\n        /* \"contracts/BimodalLib.sol\":8155:8196  latestEon < targetEon.add(self.EONS_KEPT) */\n      lt\n        /* \"contracts/BimodalLib.sol\":8155:8222  latestEon < targetEon.add(self.EONS_KEPT) && targetEon <= latestEon */\n      dup1\n      iszero\n      tag_146\n      jumpi\n      pop\n        /* \"contracts/BimodalLib.sol\":8213:8222  latestEon */\n      dup3\n        /* \"contracts/BimodalLib.sol\":8200:8209  targetEon */\n      dup5\n        /* \"contracts/BimodalLib.sol\":8200:8222  targetEon <= latestEon */\n      gt\n      iszero\n        /* \"contracts/BimodalLib.sol\":8155:8222  latestEon < targetEon.add(self.EONS_KEPT) && targetEon <= latestEon */\n    tag_146:\n        /* \"contracts/BimodalLib.sol\":8147:8223  require(latestEon < targetEon.add(self.EONS_KEPT) && targetEon <= latestEon) */\n      iszero\n      iszero\n      tag_147\n      jumpi\n      0x0\n      dup1\n      revert\n    tag_147:\n        /* \"contracts/BimodalLib.sol\":8246:8275  targetEon.mod(self.EONS_KEPT) */\n      tag_148\n        /* \"contracts/BimodalLib.sol\":8260:8264  self */\n      dup6\n        /* \"contracts/BimodalLib.sol\":8260:8274  self.EONS_KEPT */\n      0x0\n      add\n      0x0\n      swap1\n      sload\n      swap1\n      0x100\n      exp\n      swap1\n      div\n      0xff\n      and\n        /* \"contracts/BimodalLib.sol\":8246:8275  targetEon.mod(self.EONS_KEPT) */\n      0xff\n      and\n        /* \"contracts/BimodalLib.sol\":8246:8255  targetEon */\n      dup6\n        /* \"contracts/BimodalLib.sol\":8246:8259  targetEon.mod */\n      tag_56\n      swap1\n        /* \"contracts/BimodalLib.sol\":8246:8275  targetEon.mod(self.EONS_KEPT) */\n      swap2\n      swap1\n      0xffffffff\n      and\n      jump\t// in\n    tag_148:\n        /* \"contracts/BimodalLib.sol\":8230:8275  uint256 index = targetEon.mod(self.EONS_KEPT) */\n      swap1\n      pop\n        /* \"contracts/BimodalLib.sol\":8294:8298  self */\n      dup5\n        /* \"contracts/BimodalLib.sol\":8294:8310  self.checkpoints */\n      0x7\n      add\n        /* \"contracts/BimodalLib.sol\":8311:8316  index */\n      dup2\n        /* \"contracts/BimodalLib.sol\":8294:8317  self.checkpoints[index] */\n      0x5\n      dup2\n      lt\n      iszero\n      iszero\n      tag_149\n      jumpi\n      invalid\n    tag_149:\n      0x3\n      mul\n      add\n        /* \"contracts/BimodalLib.sol\":8281:8317  checkpoint = self.checkpoints[index] */\n      swap2\n      pop\n        /* \"contracts/BimodalLib.sol\":8352:8361  targetEon */\n      dup4\n        /* \"contracts/BimodalLib.sol\":8328:8338  checkpoint */\n      dup3\n        /* \"contracts/BimodalLib.sol\":8328:8348  checkpoint.eonNumber */\n      0x0\n      add\n      sload\n        /* \"contracts/BimodalLib.sol\":8328:8361  checkpoint.eonNumber != targetEon */\n      eq\n      iszero\n        /* \"contracts/BimodalLib.sol\":8324:8489  if (checkpoint.eonNumber != targetEon) {... */\n      iszero\n      tag_151\n      jumpi\n        /* \"contracts/BimodalLib.sol\":8394:8403  targetEon */\n      dup4\n        /* \"contracts/BimodalLib.sol\":8371:8381  checkpoint */\n      dup3\n        /* \"contracts/BimodalLib.sol\":8371:8391  checkpoint.eonNumber */\n      0x0\n      add\n        /* \"contracts/BimodalLib.sol\":8371:8403  checkpoint.eonNumber = targetEon */\n      dup2\n      swap1\n      sstore\n      pop\n        /* \"contracts/BimodalLib.sol\":8443:8444  0 */\n      0x0\n        /* \"contracts/BimodalLib.sol\":8435:8445  bytes32(0) */\n      0x1\n      mul\n        /* \"contracts/BimodalLib.sol\":8411:8421  checkpoint */\n      dup3\n        /* \"contracts/BimodalLib.sol\":8411:8432  checkpoint.merkleRoot */\n      0x1\n      add\n        /* \"contracts/BimodalLib.sol\":8411:8445  checkpoint.merkleRoot = bytes32(0) */\n      dup2\n      not(0x0)\n      and\n      swap1\n      sstore\n      pop\n        /* \"contracts/BimodalLib.sol\":8481:8482  0 */\n      0x0\n        /* \"contracts/BimodalLib.sol\":8453:8463  checkpoint */\n      dup3\n        /* \"contracts/BimodalLib.sol\":8453:8478  checkpoint.liveChallenges */\n      0x2\n      add\n        /* \"contracts/BimodalLib.sol\":8453:8482  checkpoint.liveChallenges = 0 */\n      dup2\n      swap1\n      sstore\n      pop\n        /* \"contracts/BimodalLib.sol\":8324:8489  if (checkpoint.eonNumber != targetEon) {... */\n    tag_151:\n        /* \"contracts/BimodalLib.sol\":8502:8512  checkpoint */\n      dup2\n        /* \"contracts/BimodalLib.sol\":8495:8512  return checkpoint */\n      swap2\n      pop\n        /* \"contracts/BimodalLib.sol\":7978:8517  function getOrCreateCheckpoint(... */\n      pop\n      swap4\n      swap3\n      pop\n      pop\n      pop\n      jump\t// out\n        /* \"contracts/BimodalLib.sol\":9306:10180  function getCurrentEonDepositsWithdrawals(... */\n    tag_44:\n        /* \"contracts/BimodalLib.sol\":9447:9473  uint256 currentEonDeposits */\n      0x0\n        /* \"contracts/BimodalLib.sol\":9475:9504  uint256 currentEonWithdrawals */\n      dup1\n        /* \"contracts/BimodalLib.sol\":9575:9605  Wallet storage accountingEntry */\n      0x0\n        /* \"contracts/BimodalLib.sol\":9644:9676  Challenge storage challengeEntry */\n      dup1\n        /* \"contracts/BimodalLib.sol\":9727:9763  AmountAggregate storage depositEntry */\n      0x0\n        /* \"contracts/BimodalLib.sol\":9536:9537  0 */\n      dup1\n        /* \"contracts/BimodalLib.sol\":9515:9537  currentEonDeposits = 0 */\n      swap5\n      pop\n        /* \"contracts/BimodalLib.sol\":9567:9568  0 */\n      0x0\n        /* \"contracts/BimodalLib.sol\":9543:9568  currentEonWithdrawals = 0 */\n      swap4\n      pop\n        /* \"contracts/BimodalLib.sol\":9608:9612  self */\n      dup8\n        /* \"contracts/BimodalLib.sol\":9608:9623  self.walletBook */\n      0x1d\n      add\n        /* \"contracts/BimodalLib.sol\":9608:9630  self.walletBook[token] */\n      0x0\n        /* \"contracts/BimodalLib.sol\":9624:9629  token */\n      dup9\n        /* \"contracts/BimodalLib.sol\":9608:9630  self.walletBook[token] */\n      0xffffffffffffffffffffffffffffffffffffffff\n      and\n      0xffffffffffffffffffffffffffffffffffffffff\n      and\n      dup2\n      mstore\n      0x20\n      add\n      swap1\n      dup2\n      mstore\n      0x20\n      add\n      0x0\n      keccak256\n        /* \"contracts/BimodalLib.sol\":9608:9638  self.walletBook[token][holder] */\n      0x0\n        /* \"contracts/BimodalLib.sol\":9631:9637  holder */\n      dup8\n        /* \"contracts/BimodalLib.sol\":9608:9638  self.walletBook[token][holder] */\n      0xffffffffffffffffffffffffffffffffffffffff\n      and\n      0xffffffffffffffffffffffffffffffffffffffff\n      and\n      dup2\n      mstore\n      0x20\n      add\n      swap1\n      dup2\n      mstore\n      0x20\n      add\n      0x0\n      keccak256\n        /* \"contracts/BimodalLib.sol\":9575:9638  Wallet storage accountingEntry = self.walletBook[token][holder] */\n      swap3\n      pop\n        /* \"contracts/BimodalLib.sol\":9679:9683  self */\n      dup8\n        /* \"contracts/BimodalLib.sol\":9679:9697  self.challengeBook */\n      0x1c\n      add\n        /* \"contracts/BimodalLib.sol\":9679:9704  self.challengeBook[token] */\n      0x0\n        /* \"contracts/BimodalLib.sol\":9698:9703  token */\n      dup9\n        /* \"contracts/BimodalLib.sol\":9679:9704  self.challengeBook[token] */\n      0xffffffffffffffffffffffffffffffffffffffff\n      and\n      0xffffffffffffffffffffffffffffffffffffffff\n      and\n      dup2\n      mstore\n      0x20\n      add\n      swap1\n      dup2\n      mstore\n      0x20\n      add\n      0x0\n      keccak256\n        /* \"contracts/BimodalLib.sol\":9679:9712  self.challengeBook[token][holder] */\n      0x0\n        /* \"contracts/BimodalLib.sol\":9705:9711  holder */\n      dup8\n        /* \"contracts/BimodalLib.sol\":9679:9712  self.challengeBook[token][holder] */\n      0xffffffffffffffffffffffffffffffffffffffff\n      and\n      0xffffffffffffffffffffffffffffffffffffffff\n      and\n      dup2\n      mstore\n      0x20\n      add\n      swap1\n      dup2\n      mstore\n      0x20\n      add\n      0x0\n      keccak256\n        /* \"contracts/BimodalLib.sol\":9679:9720  self.challengeBook[token][holder][holder] */\n      0x0\n        /* \"contracts/BimodalLib.sol\":9713:9719  holder */\n      dup8\n        /* \"contracts/BimodalLib.sol\":9679:9720  self.challengeBook[token][holder][holder] */\n      0xffffffffffffffffffffffffffffffffffffffff\n      and\n      0xffffffffffffffffffffffffffffffffffffffff\n      and\n      dup2\n      mstore\n      0x20\n      add\n      swap1\n      dup2\n      mstore\n      0x20\n      add\n      0x0\n      keccak256\n        /* \"contracts/BimodalLib.sol\":9644:9720  Challenge storage challengeEntry = self.challengeBook[token][holder][holder] */\n      swap2\n      pop\n        /* \"contracts/BimodalLib.sol\":9772:9787  accountingEntry */\n      dup3\n        /* \"contracts/BimodalLib.sol\":9772:9800  accountingEntry.depositsKept */\n      0x0\n      add\n        /* \"contracts/BimodalLib.sol\":9801:9855  challengeEntry.initialStateEon.mod(self.DEPOSITS_KEPT) */\n      tag_153\n        /* \"contracts/BimodalLib.sol\":9836:9840  self */\n      dup10\n        /* \"contracts/BimodalLib.sol\":9836:9854  self.DEPOSITS_KEPT */\n      0x0\n      add\n      0x1\n      swap1\n      sload\n      swap1\n      0x100\n      exp\n      swap1\n      div\n      0xff\n      and\n        /* \"contracts/BimodalLib.sol\":9801:9855  challengeEntry.initialStateEon.mod(self.DEPOSITS_KEPT) */\n      0xff\n      and\n        /* \"contracts/BimodalLib.sol\":9801:9815  challengeEntry */\n      dup5\n        /* \"contracts/BimodalLib.sol\":9801:9831  challengeEntry.initialStateEon */\n      0x2\n      add\n      sload\n        /* \"contracts/BimodalLib.sol\":9801:9835  challengeEntry.initialStateEon.mod */\n      tag_56\n      swap1\n        /* \"contracts/BimodalLib.sol\":9801:9855  challengeEntry.initialStateEon.mod(self.DEPOSITS_KEPT) */\n      swap2\n      swap1\n      0xffffffff\n      and\n      jump\t// in\n    tag_153:\n        /* \"contracts/BimodalLib.sol\":9772:9856  accountingEntry.depositsKept[challengeEntry.initialStateEon.mod(self.DEPOSITS_KEPT)] */\n      0x3\n      dup2\n      lt\n      iszero\n      iszero\n      tag_154\n      jumpi\n      invalid\n    tag_154:\n      0x2\n      mul\n      add\n        /* \"contracts/BimodalLib.sol\":9727:9856  AmountAggregate storage depositEntry =... */\n      swap1\n      pop\n        /* \"contracts/BimodalLib.sol\":9887:9901  challengeEntry */\n      dup2\n        /* \"contracts/BimodalLib.sol\":9887:9917  challengeEntry.initialStateEon */\n      0x2\n      add\n      sload\n        /* \"contracts/BimodalLib.sol\":9867:9879  depositEntry */\n      dup2\n        /* \"contracts/BimodalLib.sol\":9867:9883  depositEntry.eon */\n      0x0\n      add\n      sload\n        /* \"contracts/BimodalLib.sol\":9867:9917  depositEntry.eon == challengeEntry.initialStateEon */\n      eq\n        /* \"contracts/BimodalLib.sol\":9863:9998  if (depositEntry.eon == challengeEntry.initialStateEon) {... */\n      iszero\n      tag_156\n      jumpi\n        /* \"contracts/BimodalLib.sol\":9948:9991  currentEonDeposits.add(depositEntry.amount) */\n      tag_157\n        /* \"contracts/BimodalLib.sol\":9971:9983  depositEntry */\n      dup2\n        /* \"contracts/BimodalLib.sol\":9971:9990  depositEntry.amount */\n      0x1\n      add\n      sload\n        /* \"contracts/BimodalLib.sol\":9948:9966  currentEonDeposits */\n      dup7\n        /* \"contracts/BimodalLib.sol\":9948:9970  currentEonDeposits.add */\n      tag_75\n      swap1\n        /* \"contracts/BimodalLib.sol\":9948:9991  currentEonDeposits.add(depositEntry.amount) */\n      swap2\n      swap1\n      0xffffffff\n      and\n      jump\t// in\n    tag_157:\n        /* \"contracts/BimodalLib.sol\":9927:9991  currentEonDeposits = currentEonDeposits.add(depositEntry.amount) */\n      swap5\n      pop\n        /* \"contracts/BimodalLib.sol\":9863:9998  if (depositEntry.eon == challengeEntry.initialStateEon) {... */\n    tag_156:\n        /* \"contracts/BimodalLib.sol\":10028:10118  getWalletPendingWithdrawalAmountAtEon(self, token, holder, challengeEntry.initialStateEon) */\n      tag_158\n        /* \"contracts/BimodalLib.sol\":10066:10070  self */\n      dup9\n        /* \"contracts/BimodalLib.sol\":10072:10077  token */\n      dup9\n        /* \"contracts/BimodalLib.sol\":10079:10085  holder */\n      dup9\n        /* \"contracts/BimodalLib.sol\":10087:10101  challengeEntry */\n      dup6\n        /* \"contracts/BimodalLib.sol\":10087:10117  challengeEntry.initialStateEon */\n      0x2\n      add\n      sload\n        /* \"contracts/BimodalLib.sol\":10028:10065  getWalletPendingWithdrawalAmountAtEon */\n      tag_33\n        /* \"contracts/BimodalLib.sol\":10028:10118  getWalletPendingWithdrawalAmountAtEon(self, token, holder, challengeEntry.initialStateEon) */\n      jump\t// in\n    tag_158:\n        /* \"contracts/BimodalLib.sol\":10004:10118  currentEonWithdrawals = getWalletPendingWithdrawalAmountAtEon(self, token, holder, challengeEntry.initialStateEon) */\n      swap4\n      pop\n        /* \"contracts/BimodalLib.sol\":10133:10151  currentEonDeposits */\n      dup5\n        /* \"contracts/BimodalLib.sol\":10153:10174  currentEonWithdrawals */\n      dup5\n        /* \"contracts/BimodalLib.sol\":10125:10175  return (currentEonDeposits, currentEonWithdrawals) */\n      swap5\n      pop\n      swap5\n      pop\n        /* \"contracts/BimodalLib.sol\":9306:10180  function getCurrentEonDepositsWithdrawals(... */\n      pop\n      pop\n      pop\n      swap4\n      pop\n      swap4\n      swap2\n      pop\n      pop\n      jump\t// out\n        /* \"contracts/BimodalLib.sol\":10485:10619  function clearAggregate(... */\n    tag_47:\n        /* \"contracts/BimodalLib.sol\":10587:10588  0 */\n      0x0\n        /* \"contracts/BimodalLib.sol\":10571:10580  aggregate */\n      dup2\n        /* \"contracts/BimodalLib.sol\":10571:10584  aggregate.eon */\n      0x0\n      add\n        /* \"contracts/BimodalLib.sol\":10571:10588  aggregate.eon = 0 */\n      dup2\n      swap1\n      sstore\n      pop\n        /* \"contracts/BimodalLib.sol\":10613:10614  0 */\n      0x0\n        /* \"contracts/BimodalLib.sol\":10594:10603  aggregate */\n      dup2\n        /* \"contracts/BimodalLib.sol\":10594:10610  aggregate.amount */\n      0x1\n      add\n        /* \"contracts/BimodalLib.sol\":10594:10614  aggregate.amount = 0 */\n      dup2\n      swap1\n      sstore\n      pop\n        /* \"contracts/BimodalLib.sol\":10485:10619  function clearAggregate(... */\n      pop\n      jump\t// out\n        /* \"contracts/BimodalLib.sol\":4158:4571  function appendOperationToEonAccumulator(... */\n    tag_50:\n        /* \"contracts/BimodalLib.sol\":4439:4443  self */\n      dup6\n        /* \"contracts/BimodalLib.sol\":4439:4466  self.parentChainAccumulator */\n      0x16\n      add\n        /* \"contracts/BimodalLib.sol\":4467:4490  eon.mod(self.EONS_KEPT) */\n      tag_161\n        /* \"contracts/BimodalLib.sol\":4475:4479  self */\n      dup8\n        /* \"contracts/BimodalLib.sol\":4475:4489  self.EONS_KEPT */\n      0x0\n      add\n      0x0\n      swap1\n      sload\n      swap1\n      0x100\n      exp\n      swap1\n      div\n      0xff\n      and\n        /* \"contracts/BimodalLib.sol\":4467:4490  eon.mod(self.EONS_KEPT) */\n      0xff\n      and\n        /* \"contracts/BimodalLib.sol\":4467:4470  eon */\n      dup8\n        /* \"contracts/BimodalLib.sol\":4467:4474  eon.mod */\n      tag_56\n      swap1\n        /* \"contracts/BimodalLib.sol\":4467:4490  eon.mod(self.EONS_KEPT) */\n      swap2\n      swap1\n      0xffffffff\n      and\n      jump\t// in\n    tag_161:\n        /* \"contracts/BimodalLib.sol\":4439:4491  self.parentChainAccumulator[eon.mod(self.EONS_KEPT)] */\n      0x5\n      dup2\n      lt\n      iszero\n      iszero\n      tag_162\n      jumpi\n      invalid\n    tag_162:\n      add\n      sload\n        /* \"contracts/BimodalLib.sol\":4499:4502  eon */\n      dup6\n        /* \"contracts/BimodalLib.sol\":4510:4515  token */\n      dup6\n        /* \"contracts/BimodalLib.sol\":4523:4534  participant */\n      dup6\n        /* \"contracts/BimodalLib.sol\":4542:4551  operation */\n      dup6\n        /* \"contracts/BimodalLib.sol\":4559:4564  value */\n      dup6\n        /* \"contracts/BimodalLib.sol\":4415:4565  abi.encodePacked(... */\n      add(0x20, mload(0x40))\n      dup1\n      dup8\n      not(0x0)\n      and\n      not(0x0)\n      and\n      dup2\n      mstore\n      0x20\n      add\n      dup7\n      dup2\n      mstore\n      0x20\n      add\n      dup6\n      0xffffffffffffffffffffffffffffffffffffffff\n      and\n      0xffffffffffffffffffffffffffffffffffffffff\n      and\n      0x1000000000000000000000000\n      mul\n      dup2\n      mstore\n      0x14\n      add\n      dup5\n      0xffffffffffffffffffffffffffffffffffffffff\n      and\n      0xffffffffffffffffffffffffffffffffffffffff\n      and\n      0x1000000000000000000000000\n      mul\n      dup2\n      mstore\n      0x14\n      add\n      dup4\n      0x2\n      dup2\n      gt\n      iszero\n      tag_164\n      jumpi\n      invalid\n    tag_164:\n      0xff\n      and\n      0x100000000000000000000000000000000000000000000000000000000000000\n      mul\n      dup2\n      mstore\n      0x1\n      add\n      dup3\n      dup2\n      mstore\n      0x20\n      add\n      swap7\n      pop\n      pop\n      pop\n      pop\n      pop\n      pop\n      pop\n      mload(0x40)\n        /* \"--CODEGEN--\":49:53   */\n      0x20\n        /* \"--CODEGEN--\":39:46   */\n      dup2\n        /* \"--CODEGEN--\":30:37   */\n      dup4\n        /* \"--CODEGEN--\":26:47   */\n      sub\n        /* \"--CODEGEN--\":22:54   */\n      sub\n        /* \"--CODEGEN--\":13:20   */\n      dup2\n        /* \"--CODEGEN--\":6:55   */\n      mstore\n        /* \"contracts/BimodalLib.sol\":4415:4565  abi.encodePacked(... */\n      swap1\n      0x40\n      mstore\n        /* \"contracts/BimodalLib.sol\":4405:4566  keccak256(abi.encodePacked(... */\n      mload(0x40)\n      dup1\n      dup3\n      dup1\n      mload\n      swap1\n      0x20\n      add\n      swap1\n      dup1\n      dup4\n      dup4\n        /* \"--CODEGEN--\":36:189   */\n    tag_165:\n        /* \"--CODEGEN--\":66:68   */\n      0x20\n        /* \"--CODEGEN--\":61:64   */\n      dup4\n        /* \"--CODEGEN--\":58:69   */\n      lt\n        /* \"--CODEGEN--\":51:70   */\n      iszero\n        /* \"--CODEGEN--\":36:189   */\n      iszero\n      tag_166\n      jumpi\n        /* \"--CODEGEN--\":182:185   */\n      dup1\n        /* \"--CODEGEN--\":176:186   */\n      mload\n        /* \"--CODEGEN--\":171:174   */\n      dup3\n        /* \"--CODEGEN--\":164:187   */\n      mstore\n        /* \"--CODEGEN--\":98:100   */\n      0x20\n        /* \"--CODEGEN--\":93:96   */\n      dup3\n        /* \"--CODEGEN--\":89:101   */\n      add\n        /* \"--CODEGEN--\":82:101   */\n      swap2\n      pop\n        /* \"--CODEGEN--\":123:125   */\n      0x20\n        /* \"--CODEGEN--\":118:121   */\n      dup2\n        /* \"--CODEGEN--\":114:126   */\n      add\n        /* \"--CODEGEN--\":107:126   */\n      swap1\n      pop\n        /* \"--CODEGEN--\":148:150   */\n      0x20\n        /* \"--CODEGEN--\":143:146   */\n      dup4\n        /* \"--CODEGEN--\":139:151   */\n      sub\n        /* \"--CODEGEN--\":132:151   */\n      swap3\n      pop\n        /* \"--CODEGEN--\":36:189   */\n      jump(tag_165)\n    tag_166:\n        /* \"--CODEGEN--\":274:275   */\n      0x1\n        /* \"--CODEGEN--\":267:270   */\n      dup4\n        /* \"--CODEGEN--\":263:265   */\n      0x20\n        /* \"--CODEGEN--\":259:271   */\n      sub\n        /* \"--CODEGEN--\":254:257   */\n      0x100\n        /* \"--CODEGEN--\":250:272   */\n      exp\n        /* \"--CODEGEN--\":246:276   */\n      sub\n        /* \"--CODEGEN--\":315:319   */\n      dup1\n        /* \"--CODEGEN--\":311:320   */\n      not\n        /* \"--CODEGEN--\":305:308   */\n      dup3\n        /* \"--CODEGEN--\":299:309   */\n      mload\n        /* \"--CODEGEN--\":295:321   */\n      and\n        /* \"--CODEGEN--\":356:360   */\n      dup2\n        /* \"--CODEGEN--\":350:353   */\n      dup5\n        /* \"--CODEGEN--\":344:354   */\n      mload\n        /* \"--CODEGEN--\":340:361   */\n      and\n        /* \"--CODEGEN--\":389:396   */\n      dup1\n        /* \"--CODEGEN--\":380:387   */\n      dup3\n        /* \"--CODEGEN--\":377:397   */\n      or\n        /* \"--CODEGEN--\":372:375   */\n      dup6\n        /* \"--CODEGEN--\":365:398   */\n      mstore\n        /* \"--CODEGEN--\":3:402   */\n      pop\n      pop\n      pop\n        /* \"contracts/BimodalLib.sol\":4405:4566  keccak256(abi.encodePacked(... */\n      pop\n      pop\n      pop\n      swap1\n      pop\n      add\n      swap2\n      pop\n      pop\n      mload(0x40)\n      dup1\n      swap2\n      sub\n      swap1\n      keccak256\n        /* \"contracts/BimodalLib.sol\":4350:4354  self */\n      dup7\n        /* \"contracts/BimodalLib.sol\":4350:4377  self.parentChainAccumulator */\n      0x16\n      add\n        /* \"contracts/BimodalLib.sol\":4378:4401  eon.mod(self.EONS_KEPT) */\n      tag_168\n        /* \"contracts/BimodalLib.sol\":4386:4390  self */\n      dup9\n        /* \"contracts/BimodalLib.sol\":4386:4400  self.EONS_KEPT */\n      0x0\n      add\n      0x0\n      swap1\n      sload\n      swap1\n      0x100\n      exp\n      swap1\n      div\n      0xff\n      and\n        /* \"contracts/BimodalLib.sol\":4378:4401  eon.mod(self.EONS_KEPT) */\n      0xff\n      and\n        /* \"contracts/BimodalLib.sol\":4378:4381  eon */\n      dup9\n        /* \"contracts/BimodalLib.sol\":4378:4385  eon.mod */\n      tag_56\n      swap1\n        /* \"contracts/BimodalLib.sol\":4378:4401  eon.mod(self.EONS_KEPT) */\n      swap2\n      swap1\n      0xffffffff\n      and\n      jump\t// in\n    tag_168:\n        /* \"contracts/BimodalLib.sol\":4350:4402  self.parentChainAccumulator[eon.mod(self.EONS_KEPT)] */\n      0x5\n      dup2\n      lt\n      iszero\n      iszero\n      tag_169\n      jumpi\n      invalid\n    tag_169:\n      add\n        /* \"contracts/BimodalLib.sol\":4350:4566  self.parentChainAccumulator[eon.mod(self.EONS_KEPT)] = keccak256(abi.encodePacked(... */\n      dup2\n      not(0x0)\n      and\n      swap1\n      sstore\n      pop\n        /* \"contracts/BimodalLib.sol\":4158:4571  function appendOperationToEonAccumulator(... */\n      pop\n      pop\n      pop\n      pop\n      pop\n      pop\n      jump\t// out\n        /* \"contracts/SafeMath/SafeMathLib256.sol\":646:761  function mod(uint256 a, uint256 b) internal pure returns (uint256) {... */\n    tag_56:\n        /* \"contracts/SafeMath/SafeMathLib256.sol\":704:711  uint256 */\n      0x0\n        /* \"contracts/SafeMath/SafeMathLib256.sol\":731:732  0 */\n      dup1\n        /* \"contracts/SafeMath/SafeMathLib256.sol\":727:728  b */\n      dup3\n        /* \"contracts/SafeMath/SafeMathLib256.sol\":727:732  b > 0 */\n      gt\n        /* \"contracts/SafeMath/SafeMathLib256.sol\":719:738  require(b > 0, '%') */\n      iszero\n      iszero\n      tag_172\n      jumpi\n      mload(0x40)\n      0x8c379a000000000000000000000000000000000000000000000000000000000\n      dup2\n      mstore\n      0x4\n      add\n      dup1\n      dup1\n      0x20\n      add\n      dup3\n      dup2\n      sub\n      dup3\n      mstore\n      0x1\n      dup2\n      mstore\n      0x20\n      add\n      dup1\n      0x2500000000000000000000000000000000000000000000000000000000000000\n      dup2\n      mstore\n      pop\n      0x20\n      add\n      swap2\n      pop\n      pop\n      mload(0x40)\n      dup1\n      swap2\n      sub\n      swap1\n      revert\n    tag_172:\n        /* \"contracts/SafeMath/SafeMathLib256.sol\":755:756  b */\n      dup2\n        /* \"contracts/SafeMath/SafeMathLib256.sol\":751:752  a */\n      dup4\n        /* \"contracts/SafeMath/SafeMathLib256.sol\":751:756  a % b */\n      dup2\n      iszero\n      iszero\n      tag_173\n      jumpi\n      invalid\n    tag_173:\n      mod\n        /* \"contracts/SafeMath/SafeMathLib256.sol\":744:756  return a % b */\n      swap1\n      pop\n        /* \"contracts/SafeMath/SafeMathLib256.sol\":646:761  function mod(uint256 a, uint256 b) internal pure returns (uint256) {... */\n      swap3\n      swap2\n      pop\n      pop\n      jump\t// out\n        /* \"contracts/SafeMath/SafeMathLib256.sol\":222:338  function sub(uint256 a, uint256 b) internal pure returns (uint256) {... */\n    tag_65:\n        /* \"contracts/SafeMath/SafeMathLib256.sol\":280:287  uint256 */\n      0x0\n        /* \"contracts/SafeMath/SafeMathLib256.sol\":308:309  a */\n      dup3\n        /* \"contracts/SafeMath/SafeMathLib256.sol\":303:304  b */\n      dup3\n        /* \"contracts/SafeMath/SafeMathLib256.sol\":303:309  b <= a */\n      gt\n      iszero\n        /* \"contracts/SafeMath/SafeMathLib256.sol\":295:315  require(b <= a, '-') */\n      iszero\n      iszero\n      tag_175\n      jumpi\n      mload(0x40)\n      0x8c379a000000000000000000000000000000000000000000000000000000000\n      dup2\n      mstore\n      0x4\n      add\n      dup1\n      dup1\n      0x20\n      add\n      dup3\n      dup2\n      sub\n      dup3\n      mstore\n      0x1\n      dup2\n      mstore\n      0x20\n      add\n      dup1\n      0x2d00000000000000000000000000000000000000000000000000000000000000\n      dup2\n      mstore\n      pop\n      0x20\n      add\n      swap2\n      pop\n      pop\n      mload(0x40)\n      dup1\n      swap2\n      sub\n      swap1\n      revert\n    tag_175:\n        /* \"contracts/SafeMath/SafeMathLib256.sol\":332:333  b */\n      dup2\n        /* \"contracts/SafeMath/SafeMathLib256.sol\":328:329  a */\n      dup4\n        /* \"contracts/SafeMath/SafeMathLib256.sol\":328:333  a - b */\n      sub\n        /* \"contracts/SafeMath/SafeMathLib256.sol\":321:333  return a - b */\n      swap1\n      pop\n        /* \"contracts/SafeMath/SafeMathLib256.sol\":222:338  function sub(uint256 a, uint256 b) internal pure returns (uint256) {... */\n      swap3\n      swap2\n      pop\n      pop\n      jump\t// out\n        /* \"contracts/SafeMath/SafeMathLib256.sol\":527:642  function div(uint256 a, uint256 b) internal pure returns (uint256) {... */\n    tag_74:\n        /* \"contracts/SafeMath/SafeMathLib256.sol\":585:592  uint256 */\n      0x0\n        /* \"contracts/SafeMath/SafeMathLib256.sol\":612:613  0 */\n      dup1\n        /* \"contracts/SafeMath/SafeMathLib256.sol\":608:609  b */\n      dup3\n        /* \"contracts/SafeMath/SafeMathLib256.sol\":608:613  b > 0 */\n      gt\n        /* \"contracts/SafeMath/SafeMathLib256.sol\":600:619  require(b > 0, '/') */\n      iszero\n      iszero\n      tag_177\n      jumpi\n      mload(0x40)\n      0x8c379a000000000000000000000000000000000000000000000000000000000\n      dup2\n      mstore\n      0x4\n      add\n      dup1\n      dup1\n      0x20\n      add\n      dup3\n      dup2\n      sub\n      dup3\n      mstore\n      0x1\n      dup2\n      mstore\n      0x20\n      add\n      dup1\n      0x2f00000000000000000000000000000000000000000000000000000000000000\n      dup2\n      mstore\n      pop\n      0x20\n      add\n      swap2\n      pop\n      pop\n      mload(0x40)\n      dup1\n      swap2\n      sub\n      swap1\n      revert\n    tag_177:\n        /* \"contracts/SafeMath/SafeMathLib256.sol\":636:637  b */\n      dup2\n        /* \"contracts/SafeMath/SafeMathLib256.sol\":632:633  a */\n      dup4\n        /* \"contracts/SafeMath/SafeMathLib256.sol\":632:637  a / b */\n      dup2\n      iszero\n      iszero\n      tag_178\n      jumpi\n      invalid\n    tag_178:\n      div\n        /* \"contracts/SafeMath/SafeMathLib256.sol\":625:637  return a / b */\n      swap1\n      pop\n        /* \"contracts/SafeMath/SafeMathLib256.sol\":527:642  function div(uint256 a, uint256 b) internal pure returns (uint256) {... */\n      swap3\n      swap2\n      pop\n      pop\n      jump\t// out\n        /* \"contracts/SafeMath/SafeMathLib256.sol\":82:218  function add(uint256 a, uint256 b) internal pure returns (uint256) {... */\n    tag_75:\n        /* \"contracts/SafeMath/SafeMathLib256.sol\":140:147  uint256 */\n      0x0\n        /* \"contracts/SafeMath/SafeMathLib256.sol\":155:164  uint256 c */\n      dup1\n        /* \"contracts/SafeMath/SafeMathLib256.sol\":171:172  b */\n      dup3\n        /* \"contracts/SafeMath/SafeMathLib256.sol\":167:168  a */\n      dup5\n        /* \"contracts/SafeMath/SafeMathLib256.sol\":167:172  a + b */\n      add\n        /* \"contracts/SafeMath/SafeMathLib256.sol\":155:172  uint256 c = a + b */\n      swap1\n      pop\n        /* \"contracts/SafeMath/SafeMathLib256.sol\":191:192  a */\n      dup4\n        /* \"contracts/SafeMath/SafeMathLib256.sol\":186:187  c */\n      dup2\n        /* \"contracts/SafeMath/SafeMathLib256.sol\":186:192  c >= a */\n      lt\n      iszero\n        /* \"contracts/SafeMath/SafeMathLib256.sol\":178:198  require(c >= a, '+') */\n      iszero\n      iszero\n      tag_180\n      jumpi\n      mload(0x40)\n      0x8c379a000000000000000000000000000000000000000000000000000000000\n      dup2\n      mstore\n      0x4\n      add\n      dup1\n      dup1\n      0x20\n      add\n      dup3\n      dup2\n      sub\n      dup3\n      mstore\n      0x1\n      dup2\n      mstore\n      0x20\n      add\n      dup1\n      0x2b00000000000000000000000000000000000000000000000000000000000000\n      dup2\n      mstore\n      pop\n      0x20\n      add\n      swap2\n      pop\n      pop\n      mload(0x40)\n      dup1\n      swap2\n      sub\n      swap1\n      revert\n    tag_180:\n        /* \"contracts/SafeMath/SafeMathLib256.sol\":212:213  c */\n      dup1\n        /* \"contracts/SafeMath/SafeMathLib256.sol\":205:213  return c */\n      swap2\n      pop\n        /* \"contracts/SafeMath/SafeMathLib256.sol\":82:218  function add(uint256 a, uint256 b) internal pure returns (uint256) {... */\n      pop\n      swap3\n      swap2\n      pop\n      pop\n      jump\t// out\n\n    auxdata: 0xa165627a7a723058207c3463fb4ca4b0bda181aa97edbb9831c20cbbf74c81d84d005f577232faa7360029\n}\n",
				"bytecode": {
					"linkReferences": {},
					"object": "611726610030600b82828239805160001a6073146000811461002057610022565bfe5b5030600052607381538281f30073000000000000000000000000000000000000000030146080604052600436106100e7576000357c0100000000000000000000000000000000000000000000000000000000900463ffffffff168063207cbaba146100ec57806326df6e491461014a578063378a47191461017e5780637fcacff9146101bc57806387d5cab9146102135780638e9f907214610247578063971bff52146102d4578063a7e478ba14610315578063b0abcbbb14610393578063e37e06ea146103f4578063e72b57131461045f578063e7f24bad146104b4578063e8e95a3d1461052f578063f9ac8fca1461055c575b600080fd5b61013460048036038101908080359060200190929190803573ffffffffffffffffffffffffffffffffffffffff169060200190929190803590602001909291905050506105ea565b6040518082815260200191505060405180910390f35b61016860048036038101908080359060200190929190505050610796565b6040518082815260200191505060405180910390f35b6101a660048036038101908080359060200190929190803590602001909291905050506107df565b6040518082815260200191505060405180910390f35b8180156101c857600080fd5b506102116004803603810190808035906020019092919080359060200190929190803573ffffffffffffffffffffffffffffffffffffffff169060200190929190505050610844565b005b61023160048036038101908080359060200190929190505050610928565b6040518082815260200191505060405180910390f35b610292600480360381019080803560001916906020019092919080356000191690602001909291908035600019169060200190929190803560ff16906020019092919050505061095e565b604051808273ffffffffffffffffffffffffffffffffffffffff1673ffffffffffffffffffffffffffffffffffffffff16815260200191505060405180910390f35b8180156102e057600080fd5b50610313600480360381019080803590602001909291908035906020019092919080359060200190929190505050610b73565b005b61037d60048036038101908080359060200190929190803573ffffffffffffffffffffffffffffffffffffffff169060200190929190803573ffffffffffffffffffffffffffffffffffffffff16906020019092919080359060200190929190505050610bbb565b6040518082815260200191505060405180910390f35b81801561039f57600080fd5b506103f260048036038101908080359060200190929190803573ffffffffffffffffffffffffffffffffffffffff1690602001909291908035906020019092919080359060200190929190505050610cdc565b005b81801561040057600080fd5b5061045d60048036038101908080359060200190929190803573ffffffffffffffffffffffffffffffffffffffff169060200190929190803590602001909291908035906020019092919080359060200190929190505050610dd1565b005b81801561046b57600080fd5b5061049e600480360381019080803590602001909291908035906020019092919080359060200190929190505050611048565b6040518082815260200191505060405180910390f35b61051260048036038101908080359060200190929190803573ffffffffffffffffffffffffffffffffffffffff169060200190929190803573ffffffffffffffffffffffffffffffffffffffff169060200190929190505050611108565b604051808381526020018281526020019250505060405180910390f35b81801561053b57600080fd5b5061055a600480360381019080803590602001909291905050506112e2565b005b81801561056857600080fd5b506105e86004803603810190808035906020019092919080359060200190929190803573ffffffffffffffffffffffffffffffffffffffff169060200190929190803573ffffffffffffffffffffffffffffffffffffffff169060200190929190803560ff169060200190929190803590602001909291905050506112f9565b005b60008060008060009250600091505b8660000160009054906101000a900460ff1660ff168210156106fb5786601f0160008773ffffffffffffffffffffffffffffffffffffffff1673ffffffffffffffffffffffffffffffffffffffff16815260200190815260200160002061067d8860000160009054906101000a900460ff1660ff16876114d190919063ffffffff16565b60058110151561068957fe5b60020201905084816000015414156106a7578060010154935061078c565b8281600001541180156106bd5750848160000154105b156106ca57806000015492505b60008514156106d8576106fb565b6106ec60018661155e90919063ffffffff16565b945081806001019250506105f9565b600083141561070d576000935061078c565b86601f0160008773ffffffffffffffffffffffffffffffffffffffff1673ffffffffffffffffffffffffffffffffffffffff1681526020019081526020016000206107758860000160009054906101000a900460ff1660ff16856114d190919063ffffffff16565b60058110151561078157fe5b600202016001015493505b5050509392505050565b60006107d860016107ca84600201546107bc86600501544361155e90919063ffffffff16565b6115e390919063ffffffff16565b61167090919063ffffffff16565b9050919050565b6000808360070161080d8560000160009054906101000a900460ff1660ff16856114d190919063ffffffff16565b60058110151561081957fe5b600302019050828160000154141515610835576000915061083d565b806002015491505b5092915050565b818360020181905550610865600484600201546115e390919063ffffffff16565b8360030181905550610885600384600201546115e390919063ffffffff16565b836004018190555060058360000160006101000a81548160ff021916908360ff16021790555060038360000160016101000a81548160ff021916908360ff16021790555064012a05f2008360010181905550808360060160006101000a81548173ffffffffffffffffffffffffffffffffffffffff021916908373ffffffffffffffffffffffffffffffffffffffff160217905550438360050181905550505050565b6000610957826002015461094984600501544361155e90919063ffffffff16565b6114d190919063ffffffff16565b9050919050565b600060018560405160200180807f194c69717569646974792e4e6574776f726b20417574686f72697a6174696f6e81526020017f3a0a33320000000000000000000000000000000000000000000000000000000081525060240182600019166000191681526020019150506040516020818303038152906040526040518082805190602001908083835b602083101515610a0d57805182526020820191506020810190506020830392506109e8565b6001836020036101000a038019825116818451168082178552505050505050905001915050604051809103902060405160200180807f19457468657265756d205369676e6564204d6573736167653a0a333200000000815250601c0182600019166000191681526020019150506040516020818303038152906040526040518082805190602001908083835b602083101515610abe5780518252602082019150602081019050602083039250610a99565b6001836020036101000a0380198251168184511680821785525050505050509050019150506040518091039020838686604051600081526020016040526040518085600019166000191681526020018460ff1660ff1681526020018360001916600019168152602001826000191660001916815260200194505050505060206040516020810390808403906000865af1158015610b5f573d6000803e3d6000fd5b505050602060405103519050949350505050565b8260000154821115610b9657818360000181905550808360010181905550610bb6565b610bad81846001015461167090919063ffffffff16565b83600101819055505b505050565b600080600080600080945088601d0160008973ffffffffffffffffffffffffffffffffffffffff1673ffffffffffffffffffffffffffffffffffffffff16815260200190815260200160002060008873ffffffffffffffffffffffffffffffffffffffff1673ffffffffffffffffffffffffffffffffffffffff1681526020019081526020016000209350836006019250600091505b82805490508263ffffffff161015610cd057828263ffffffff16815481101515610c7757fe5b906000526020600020906002020190508581600001541415610cb157610caa81600101548661167090919063ffffffff16565b9450610cc3565b8581600001541115610cc257610cd0565b5b8180600101925050610c51565b50505050949350505050565b600084601f0160008573ffffffffffffffffffffffffffffffffffffffff1673ffffffffffffffffffffffffffffffffffffffff168152602001908152602001600020610d468660000160009054906101000a900460ff1660ff16856114d190919063ffffffff16565b600581101515610d5257fe5b6002020190508281600001541015610daa57610d9482610d868787610d8160018961155e90919063ffffffff16565b6105ea565b61167090919063ffffffff16565b8160010181905550828160000181905550610dca565b610dc182826001015461167090919063ffffffff16565b81600101819055505b5050505050565b60008060008092505b8760000160009054906101000a900460ff1660ff16831015610edb57610e09838761167090919063ffffffff16565b915087601f0160008873ffffffffffffffffffffffffffffffffffffffff1673ffffffffffffffffffffffffffffffffffffffff168152602001908152602001600020610e738960000160009054906101000a900460ff1660ff16846114d190919063ffffffff16565b600581101515610e7f57fe5b60020201905084821115610e9257610edb565b8181600001541015610ece57818160000181905550610ec58888610ec060018661155e90919063ffffffff16565b6105ea565b81600101819055505b8280600101935050610dda565b600092505b8760000160009054906101000a900460ff1660ff1683101561103e57610f0f838761167090919063ffffffff16565b915087601f0160008873ffffffffffffffffffffffffffffffffffffffff1673ffffffffffffffffffffffffffffffffffffffff168152602001908152602001600020610f798960000160009054906101000a900460ff1660ff16846114d190919063ffffffff16565b600581101515610f8557fe5b60020201905084821115610f985761103e565b8181600001541015611012576040517f08c379a00000000000000000000000000000000000000000000000000000000081526004018080602001828103825260018152602001807f580000000000000000000000000000000000000000000000000000000000000081525060200191505060405180910390fd5b61102984826001015461155e90919063ffffffff16565b81600101819055508280600101935050610ee0565b5050505050505050565b6000806110728560000160009054906101000a900460ff1660ff168561167090919063ffffffff16565b831080156110805750828411155b151561108b57600080fd5b6110b28560000160009054906101000a900460ff1660ff16856114d190919063ffffffff16565b905084600701816005811015156110c557fe5b6003020191508382600001541415156110fd578382600001819055506000600102826001018160001916905550600082600201819055505b819150509392505050565b60008060008060008094506000935087601d0160008873ffffffffffffffffffffffffffffffffffffffff1673ffffffffffffffffffffffffffffffffffffffff16815260200190815260200160002060008773ffffffffffffffffffffffffffffffffffffffff1673ffffffffffffffffffffffffffffffffffffffff168152602001908152602001600020925087601c0160008873ffffffffffffffffffffffffffffffffffffffff1673ffffffffffffffffffffffffffffffffffffffff16815260200190815260200160002060008773ffffffffffffffffffffffffffffffffffffffff1673ffffffffffffffffffffffffffffffffffffffff16815260200190815260200160002060008773ffffffffffffffffffffffffffffffffffffffff1673ffffffffffffffffffffffffffffffffffffffff1681526020019081526020016000209150826000016112838960000160019054906101000a900460ff1660ff1684600201546114d190919063ffffffff16565b60038110151561128f57fe5b6002020190508160020154816000015414156112bf576112bc81600101548661167090919063ffffffff16565b94505b6112cf8888888560020154610bbb565b9350848494509450505050935093915050565b600081600001819055506000816001018190555050565b856016016113248760000160009054906101000a900460ff1660ff16876114d190919063ffffffff16565b60058110151561133057fe5b015485858585856040516020018087600019166000191681526020018681526020018573ffffffffffffffffffffffffffffffffffffffff1673ffffffffffffffffffffffffffffffffffffffff166c010000000000000000000000000281526014018473ffffffffffffffffffffffffffffffffffffffff1673ffffffffffffffffffffffffffffffffffffffff166c010000000000000000000000000281526014018360028111156113e057fe5b60ff167f010000000000000000000000000000000000000000000000000000000000000002815260010182815260200196505050505050506040516020818303038152906040526040518082805190602001908083835b60208310151561145c5780518252602082019150602081019050602083039250611437565b6001836020036101000a0380198251168184511680821785525050505050509050019150506040518091039020866016016114b48860000160009054906101000a900460ff1660ff16886114d190919063ffffffff16565b6005811015156114c057fe5b018160001916905550505050505050565b6000808211151561154a576040517f08c379a00000000000000000000000000000000000000000000000000000000081526004018080602001828103825260018152602001807f250000000000000000000000000000000000000000000000000000000000000081525060200191505060405180910390fd5b818381151561155557fe5b06905092915050565b60008282111515156115d8576040517f08c379a00000000000000000000000000000000000000000000000000000000081526004018080602001828103825260018152602001807f2d0000000000000000000000000000000000000000000000000000000000000081525060200191505060405180910390fd5b818303905092915050565b6000808211151561165c576040517f08c379a00000000000000000000000000000000000000000000000000000000081526004018080602001828103825260018152602001807f2f0000000000000000000000000000000000000000000000000000000000000081525060200191505060405180910390fd5b818381151561166757fe5b04905092915050565b60008082840190508381101515156116f0576040517f08c379a00000000000000000000000000000000000000000000000000000000081526004018080602001828103825260018152602001807f2b0000000000000000000000000000000000000000000000000000000000000081525060200191505060405180910390fd5b80915050929150505600a165627a7a723058207c3463fb4ca4b0bda181aa97edbb9831c20cbbf74c81d84d005f577232faa7360029",
					"opcodes": "PUSH2 0x1726 PUSH2 0x30 PUSH1 0xB DUP3 DUP3 DUP3 CODECOPY DUP1 MLOAD PUSH1 0x0 BYTE PUSH1 0x73 EQ PUSH1 0x0 DUP2 EQ PUSH2 0x20 JUMPI PUSH2 0x22 JUMP JUMPDEST INVALID JUMPDEST POP ADDRESS PUSH1 0x0 MSTORE PUSH1 0x73 DUP2 MSTORE8 DUP3 DUP2 RETURN STOP PUSH20 0x0 ADDRESS EQ PUSH1 0x80 PUSH1 0x40 MSTORE PUSH1 0x4 CALLDATASIZE LT PUSH2 0xE7 JUMPI PUSH1 0x0 CALLDATALOAD PUSH29 0x100000000000000000000000000000000000000000000000000000000 SWAP1 DIV PUSH4 0xFFFFFFFF AND DUP1 PUSH4 0x207CBABA EQ PUSH2 0xEC JUMPI DUP1 PUSH4 0x26DF6E49 EQ PUSH2 0x14A JUMPI DUP1 PUSH4 0x378A4719 EQ PUSH2 0x17E JUMPI DUP1 PUSH4 0x7FCACFF9 EQ PUSH2 0x1BC JUMPI DUP1 PUSH4 0x87D5CAB9 EQ PUSH2 0x213 JUMPI DUP1 PUSH4 0x8E9F9072 EQ PUSH2 0x247 JUMPI DUP1 PUSH4 0x971BFF52 EQ PUSH2 0x2D4 JUMPI DUP1 PUSH4 0xA7E478BA EQ PUSH2 0x315 JUMPI DUP1 PUSH4 0xB0ABCBBB EQ PUSH2 0x393 JUMPI DUP1 PUSH4 0xE37E06EA EQ PUSH2 0x3F4 JUMPI DUP1 PUSH4 0xE72B5713 EQ PUSH2 0x45F JUMPI DUP1 PUSH4 0xE7F24BAD EQ PUSH2 0x4B4 JUMPI DUP1 PUSH4 0xE8E95A3D EQ PUSH2 0x52F JUMPI DUP1 PUSH4 0xF9AC8FCA EQ PUSH2 0x55C JUMPI JUMPDEST PUSH1 0x0 DUP1 REVERT JUMPDEST PUSH2 0x134 PUSH1 0x4 DUP1 CALLDATASIZE SUB DUP2 ADD SWAP1 DUP1 DUP1 CALLDATALOAD SWAP1 PUSH1 0x20 ADD SWAP1 SWAP3 SWAP2 SWAP1 DUP1 CALLDATALOAD PUSH20 0xFFFFFFFFFFFFFFFFFFFFFFFFFFFFFFFFFFFFFFFF AND SWAP1 PUSH1 0x20 ADD SWAP1 SWAP3 SWAP2 SWAP1 DUP1 CALLDATALOAD SWAP1 PUSH1 0x20 ADD SWAP1 SWAP3 SWAP2 SWAP1 POP POP POP PUSH2 0x5EA JUMP JUMPDEST PUSH1 0x40 MLOAD DUP1 DUP3 DUP2 MSTORE PUSH1 0x20 ADD SWAP2 POP POP PUSH1 0x40 MLOAD DUP1 SWAP2 SUB SWAP1 RETURN JUMPDEST PUSH2 0x168 PUSH1 0x4 DUP1 CALLDATASIZE SUB DUP2 ADD SWAP1 DUP1 DUP1 CALLDATALOAD SWAP1 PUSH1 0x20 ADD SWAP1 SWAP3 SWAP2 SWAP1 POP POP POP PUSH2 0x796 JUMP JUMPDEST PUSH1 0x40 MLOAD DUP1 DUP3 DUP2 MSTORE PUSH1 0x20 ADD SWAP2 POP POP PUSH1 0x40 MLOAD DUP1 SWAP2 SUB SWAP1 RETURN JUMPDEST PUSH2 0x1A6 PUSH1 0x4 DUP1 CALLDATASIZE SUB DUP2 ADD SWAP1 DUP1 DUP1 CALLDATALOAD SWAP1 PUSH1 0x20 ADD SWAP1 SWAP3 SWAP2 SWAP1 DUP1 CALLDATALOAD SWAP1 PUSH1 0x20 ADD SWAP1 SWAP3 SWAP2 SWAP1 POP POP POP PUSH2 0x7DF JUMP JUMPDEST PUSH1 0x40 MLOAD DUP1 DUP3 DUP2 MSTORE PUSH1 0x20 ADD SWAP2 POP POP PUSH1 0x40 MLOAD DUP1 SWAP2 SUB SWAP1 RETURN JUMPDEST DUP2 DUP1 ISZERO PUSH2 0x1C8 JUMPI PUSH1 0x0 DUP1 REVERT JUMPDEST POP PUSH2 0x211 PUSH1 0x4 DUP1 CALLDATASIZE SUB DUP2 ADD SWAP1 DUP1 DUP1 CALLDATALOAD SWAP1 PUSH1 0x20 ADD SWAP1 SWAP3 SWAP2 SWAP1 DUP1 CALLDATALOAD SWAP1 PUSH1 0x20 ADD SWAP1 SWAP3 SWAP2 SWAP1 DUP1 CALLDATALOAD PUSH20 0xFFFFFFFFFFFFFFFFFFFFFFFFFFFFFFFFFFFFFFFF AND SWAP1 PUSH1 0x20 ADD SWAP1 SWAP3 SWAP2 SWAP1 POP POP POP PUSH2 0x844 JUMP JUMPDEST STOP JUMPDEST PUSH2 0x231 PUSH1 0x4 DUP1 CALLDATASIZE SUB DUP2 ADD SWAP1 DUP1 DUP1 CALLDATALOAD SWAP1 PUSH1 0x20 ADD SWAP1 SWAP3 SWAP2 SWAP1 POP POP POP PUSH2 0x928 JUMP JUMPDEST PUSH1 0x40 MLOAD DUP1 DUP3 DUP2 MSTORE PUSH1 0x20 ADD SWAP2 POP POP PUSH1 0x40 MLOAD DUP1 SWAP2 SUB SWAP1 RETURN JUMPDEST PUSH2 0x292 PUSH1 0x4 DUP1 CALLDATASIZE SUB DUP2 ADD SWAP1 DUP1 DUP1 CALLDATALOAD PUSH1 0x0 NOT AND SWAP1 PUSH1 0x20 ADD SWAP1 SWAP3 SWAP2 SWAP1 DUP1 CALLDATALOAD PUSH1 0x0 NOT AND SWAP1 PUSH1 0x20 ADD SWAP1 SWAP3 SWAP2 SWAP1 DUP1 CALLDATALOAD PUSH1 0x0 NOT AND SWAP1 PUSH1 0x20 ADD SWAP1 SWAP3 SWAP2 SWAP1 DUP1 CALLDATALOAD PUSH1 0xFF AND SWAP1 PUSH1 0x20 ADD SWAP1 SWAP3 SWAP2 SWAP1 POP POP POP PUSH2 0x95E JUMP JUMPDEST PUSH1 0x40 MLOAD DUP1 DUP3 PUSH20 0xFFFFFFFFFFFFFFFFFFFFFFFFFFFFFFFFFFFFFFFF AND PUSH20 0xFFFFFFFFFFFFFFFFFFFFFFFFFFFFFFFFFFFFFFFF AND DUP2 MSTORE PUSH1 0x20 ADD SWAP2 POP POP PUSH1 0x40 MLOAD DUP1 SWAP2 SUB SWAP1 RETURN JUMPDEST DUP2 DUP1 ISZERO PUSH2 0x2E0 JUMPI PUSH1 0x0 DUP1 REVERT JUMPDEST POP PUSH2 0x313 PUSH1 0x4 DUP1 CALLDATASIZE SUB DUP2 ADD SWAP1 DUP1 DUP1 CALLDATALOAD SWAP1 PUSH1 0x20 ADD SWAP1 SWAP3 SWAP2 SWAP1 DUP1 CALLDATALOAD SWAP1 PUSH1 0x20 ADD SWAP1 SWAP3 SWAP2 SWAP1 DUP1 CALLDATALOAD SWAP1 PUSH1 0x20 ADD SWAP1 SWAP3 SWAP2 SWAP1 POP POP POP PUSH2 0xB73 JUMP JUMPDEST STOP JUMPDEST PUSH2 0x37D PUSH1 0x4 DUP1 CALLDATASIZE SUB DUP2 ADD SWAP1 DUP1 DUP1 CALLDATALOAD SWAP1 PUSH1 0x20 ADD SWAP1 SWAP3 SWAP2 SWAP1 DUP1 CALLDATALOAD PUSH20 0xFFFFFFFFFFFFFFFFFFFFFFFFFFFFFFFFFFFFFFFF AND SWAP1 PUSH1 0x20 ADD SWAP1 SWAP3 SWAP2 SWAP1 DUP1 CALLDATALOAD PUSH20 0xFFFFFFFFFFFFFFFFFFFFFFFFFFFFFFFFFFFFFFFF AND SWAP1 PUSH1 0x20 ADD SWAP1 SWAP3 SWAP2 SWAP1 DUP1 CALLDATALOAD SWAP1 PUSH1 0x20 ADD SWAP1 SWAP3 SWAP2 SWAP1 POP POP POP PUSH2 0xBBB JUMP JUMPDEST PUSH1 0x40 MLOAD DUP1 DUP3 DUP2 MSTORE PUSH1 0x20 ADD SWAP2 POP POP PUSH1 0x40 MLOAD DUP1 SWAP2 SUB SWAP1 RETURN JUMPDEST DUP2 DUP1 ISZERO PUSH2 0x39F JUMPI PUSH1 0x0 DUP1 REVERT JUMPDEST POP PUSH2 0x3F2 PUSH1 0x4 DUP1 CALLDATASIZE SUB DUP2 ADD SWAP1 DUP1 DUP1 CALLDATALOAD SWAP1 PUSH1 0x20 ADD SWAP1 SWAP3 SWAP2 SWAP1 DUP1 CALLDATALOAD PUSH20 0xFFFFFFFFFFFFFFFFFFFFFFFFFFFFFFFFFFFFFFFF AND SWAP1 PUSH1 0x20 ADD SWAP1 SWAP3 SWAP2 SWAP1 DUP1 CALLDATALOAD SWAP1 PUSH1 0x20 ADD SWAP1 SWAP3 SWAP2 SWAP1 DUP1 CALLDATALOAD SWAP1 PUSH1 0x20 ADD SWAP1 SWAP3 SWAP2 SWAP1 POP POP POP PUSH2 0xCDC JUMP JUMPDEST STOP JUMPDEST DUP2 DUP1 ISZERO PUSH2 0x400 JUMPI PUSH1 0x0 DUP1 REVERT JUMPDEST POP PUSH2 0x45D PUSH1 0x4 DUP1 CALLDATASIZE SUB DUP2 ADD SWAP1 DUP1 DUP1 CALLDATALOAD SWAP1 PUSH1 0x20 ADD SWAP1 SWAP3 SWAP2 SWAP1 DUP1 CALLDATALOAD PUSH20 0xFFFFFFFFFFFFFFFFFFFFFFFFFFFFFFFFFFFFFFFF AND SWAP1 PUSH1 0x20 ADD SWAP1 SWAP3 SWAP2 SWAP1 DUP1 CALLDATALOAD SWAP1 PUSH1 0x20 ADD SWAP1 SWAP3 SWAP2 SWAP1 DUP1 CALLDATALOAD SWAP1 PUSH1 0x20 ADD SWAP1 SWAP3 SWAP2 SWAP1 DUP1 CALLDATALOAD SWAP1 PUSH1 0x20 ADD SWAP1 SWAP3 SWAP2 SWAP1 POP POP POP PUSH2 0xDD1 JUMP JUMPDEST STOP JUMPDEST DUP2 DUP1 ISZERO PUSH2 0x46B JUMPI PUSH1 0x0 DUP1 REVERT JUMPDEST POP PUSH2 0x49E PUSH1 0x4 DUP1 CALLDATASIZE SUB DUP2 ADD SWAP1 DUP1 DUP1 CALLDATALOAD SWAP1 PUSH1 0x20 ADD SWAP1 SWAP3 SWAP2 SWAP1 DUP1 CALLDATALOAD SWAP1 PUSH1 0x20 ADD SWAP1 SWAP3 SWAP2 SWAP1 DUP1 CALLDATALOAD SWAP1 PUSH1 0x20 ADD SWAP1 SWAP3 SWAP2 SWAP1 POP POP POP PUSH2 0x1048 JUMP JUMPDEST PUSH1 0x40 MLOAD DUP1 DUP3 DUP2 MSTORE PUSH1 0x20 ADD SWAP2 POP POP PUSH1 0x40 MLOAD DUP1 SWAP2 SUB SWAP1 RETURN JUMPDEST PUSH2 0x512 PUSH1 0x4 DUP1 CALLDATASIZE SUB DUP2 ADD SWAP1 DUP1 DUP1 CALLDATALOAD SWAP1 PUSH1 0x20 ADD SWAP1 SWAP3 SWAP2 SWAP1 DUP1 CALLDATALOAD PUSH20 0xFFFFFFFFFFFFFFFFFFFFFFFFFFFFFFFFFFFFFFFF AND SWAP1 PUSH1 0x20 ADD SWAP1 SWAP3 SWAP2 SWAP1 DUP1 CALLDATALOAD PUSH20 0xFFFFFFFFFFFFFFFFFFFFFFFFFFFFFFFFFFFFFFFF AND SWAP1 PUSH1 0x20 ADD SWAP1 SWAP3 SWAP2 SWAP1 POP POP POP PUSH2 0x1108 JUMP JUMPDEST PUSH1 0x40 MLOAD DUP1 DUP4 DUP2 MSTORE PUSH1 0x20 ADD DUP3 DUP2 MSTORE PUSH1 0x20 ADD SWAP3 POP POP POP PUSH1 0x40 MLOAD DUP1 SWAP2 SUB SWAP1 RETURN JUMPDEST DUP2 DUP1 ISZERO PUSH2 0x53B JUMPI PUSH1 0x0 DUP1 REVERT JUMPDEST POP PUSH2 0x55A PUSH1 0x4 DUP1 CALLDATASIZE SUB DUP2 ADD SWAP1 DUP1 DUP1 CALLDATALOAD SWAP1 PUSH1 0x20 ADD SWAP1 SWAP3 SWAP2 SWAP1 POP POP POP PUSH2 0x12E2 JUMP JUMPDEST STOP JUMPDEST DUP2 DUP1 ISZERO PUSH2 0x568 JUMPI PUSH1 0x0 DUP1 REVERT JUMPDEST POP PUSH2 0x5E8 PUSH1 0x4 DUP1 CALLDATASIZE SUB DUP2 ADD SWAP1 DUP1 DUP1 CALLDATALOAD SWAP1 PUSH1 0x20 ADD SWAP1 SWAP3 SWAP2 SWAP1 DUP1 CALLDATALOAD SWAP1 PUSH1 0x20 ADD SWAP1 SWAP3 SWAP2 SWAP1 DUP1 CALLDATALOAD PUSH20 0xFFFFFFFFFFFFFFFFFFFFFFFFFFFFFFFFFFFFFFFF AND SWAP1 PUSH1 0x20 ADD SWAP1 SWAP3 SWAP2 SWAP1 DUP1 CALLDATALOAD PUSH20 0xFFFFFFFFFFFFFFFFFFFFFFFFFFFFFFFFFFFFFFFF AND SWAP1 PUSH1 0x20 ADD SWAP1 SWAP3 SWAP2 SWAP1 DUP1 CALLDATALOAD PUSH1 0xFF AND SWAP1 PUSH1 0x20 ADD SWAP1 SWAP3 SWAP2 SWAP1 DUP1 CALLDATALOAD SWAP1 PUSH1 0x20 ADD SWAP1 SWAP3 SWAP2 SWAP1 POP POP POP PUSH2 0x12F9 JUMP JUMPDEST STOP JUMPDEST PUSH1 0x0 DUP1 PUSH1 0x0 DUP1 PUSH1 0x0 SWAP3 POP PUSH1 0x0 SWAP2 POP JUMPDEST DUP7 PUSH1 0x0 ADD PUSH1 0x0 SWAP1 SLOAD SWAP1 PUSH2 0x100 EXP SWAP1 DIV PUSH1 0xFF AND PUSH1 0xFF AND DUP3 LT ISZERO PUSH2 0x6FB JUMPI DUP7 PUSH1 0x1F ADD PUSH1 0x0 DUP8 PUSH20 0xFFFFFFFFFFFFFFFFFFFFFFFFFFFFFFFFFFFFFFFF AND PUSH20 0xFFFFFFFFFFFFFFFFFFFFFFFFFFFFFFFFFFFFFFFF AND DUP2 MSTORE PUSH1 0x20 ADD SWAP1 DUP2 MSTORE PUSH1 0x20 ADD PUSH1 0x0 KECCAK256 PUSH2 0x67D DUP9 PUSH1 0x0 ADD PUSH1 0x0 SWAP1 SLOAD SWAP1 PUSH2 0x100 EXP SWAP1 DIV PUSH1 0xFF AND PUSH1 0xFF AND DUP8 PUSH2 0x14D1 SWAP1 SWAP2 SWAP1 PUSH4 0xFFFFFFFF AND JUMP JUMPDEST PUSH1 0x5 DUP2 LT ISZERO ISZERO PUSH2 0x689 JUMPI INVALID JUMPDEST PUSH1 0x2 MUL ADD SWAP1 POP DUP5 DUP2 PUSH1 0x0 ADD SLOAD EQ ISZERO PUSH2 0x6A7 JUMPI DUP1 PUSH1 0x1 ADD SLOAD SWAP4 POP PUSH2 0x78C JUMP JUMPDEST DUP3 DUP2 PUSH1 0x0 ADD SLOAD GT DUP1 ISZERO PUSH2 0x6BD JUMPI POP DUP5 DUP2 PUSH1 0x0 ADD SLOAD LT JUMPDEST ISZERO PUSH2 0x6CA JUMPI DUP1 PUSH1 0x0 ADD SLOAD SWAP3 POP JUMPDEST PUSH1 0x0 DUP6 EQ ISZERO PUSH2 0x6D8 JUMPI PUSH2 0x6FB JUMP JUMPDEST PUSH2 0x6EC PUSH1 0x1 DUP7 PUSH2 0x155E SWAP1 SWAP2 SWAP1 PUSH4 0xFFFFFFFF AND JUMP JUMPDEST SWAP5 POP DUP2 DUP1 PUSH1 0x1 ADD SWAP3 POP POP PUSH2 0x5F9 JUMP JUMPDEST PUSH1 0x0 DUP4 EQ ISZERO PUSH2 0x70D JUMPI PUSH1 0x0 SWAP4 POP PUSH2 0x78C JUMP JUMPDEST DUP7 PUSH1 0x1F ADD PUSH1 0x0 DUP8 PUSH20 0xFFFFFFFFFFFFFFFFFFFFFFFFFFFFFFFFFFFFFFFF AND PUSH20 0xFFFFFFFFFFFFFFFFFFFFFFFFFFFFFFFFFFFFFFFF AND DUP2 MSTORE PUSH1 0x20 ADD SWAP1 DUP2 MSTORE PUSH1 0x20 ADD PUSH1 0x0 KECCAK256 PUSH2 0x775 DUP9 PUSH1 0x0 ADD PUSH1 0x0 SWAP1 SLOAD SWAP1 PUSH2 0x100 EXP SWAP1 DIV PUSH1 0xFF AND PUSH1 0xFF AND DUP6 PUSH2 0x14D1 SWAP1 SWAP2 SWAP1 PUSH4 0xFFFFFFFF AND JUMP JUMPDEST PUSH1 0x5 DUP2 LT ISZERO ISZERO PUSH2 0x781 JUMPI INVALID JUMPDEST PUSH1 0x2 MUL ADD PUSH1 0x1 ADD SLOAD SWAP4 POP JUMPDEST POP POP POP SWAP4 SWAP3 POP POP POP JUMP JUMPDEST PUSH1 0x0 PUSH2 0x7D8 PUSH1 0x1 PUSH2 0x7CA DUP5 PUSH1 0x2 ADD SLOAD PUSH2 0x7BC DUP7 PUSH1 0x5 ADD SLOAD NUMBER PUSH2 0x155E SWAP1 SWAP2 SWAP1 PUSH4 0xFFFFFFFF AND JUMP JUMPDEST PUSH2 0x15E3 SWAP1 SWAP2 SWAP1 PUSH4 0xFFFFFFFF AND JUMP JUMPDEST PUSH2 0x1670 SWAP1 SWAP2 SWAP1 PUSH4 0xFFFFFFFF AND JUMP JUMPDEST SWAP1 POP SWAP2 SWAP1 POP JUMP JUMPDEST PUSH1 0x0 DUP1 DUP4 PUSH1 0x7 ADD PUSH2 0x80D DUP6 PUSH1 0x0 ADD PUSH1 0x0 SWAP1 SLOAD SWAP1 PUSH2 0x100 EXP SWAP1 DIV PUSH1 0xFF AND PUSH1 0xFF AND DUP6 PUSH2 0x14D1 SWAP1 SWAP2 SWAP1 PUSH4 0xFFFFFFFF AND JUMP JUMPDEST PUSH1 0x5 DUP2 LT ISZERO ISZERO PUSH2 0x819 JUMPI INVALID JUMPDEST PUSH1 0x3 MUL ADD SWAP1 POP DUP3 DUP2 PUSH1 0x0 ADD SLOAD EQ ISZERO ISZERO PUSH2 0x835 JUMPI PUSH1 0x0 SWAP2 POP PUSH2 0x83D JUMP JUMPDEST DUP1 PUSH1 0x2 ADD SLOAD SWAP2 POP JUMPDEST POP SWAP3 SWAP2 POP POP JUMP JUMPDEST DUP2 DUP4 PUSH1 0x2 ADD DUP2 SWAP1 SSTORE POP PUSH2 0x865 PUSH1 0x4 DUP5 PUSH1 0x2 ADD SLOAD PUSH2 0x15E3 SWAP1 SWAP2 SWAP1 PUSH4 0xFFFFFFFF AND JUMP JUMPDEST DUP4 PUSH1 0x3 ADD DUP2 SWAP1 SSTORE POP PUSH2 0x885 PUSH1 0x3 DUP5 PUSH1 0x2 ADD SLOAD PUSH2 0x15E3 SWAP1 SWAP2 SWAP1 PUSH4 0xFFFFFFFF AND JUMP JUMPDEST DUP4 PUSH1 0x4 ADD DUP2 SWAP1 SSTORE POP PUSH1 0x5 DUP4 PUSH1 0x0 ADD PUSH1 0x0 PUSH2 0x100 EXP DUP2 SLOAD DUP2 PUSH1 0xFF MUL NOT AND SWAP1 DUP4 PUSH1 0xFF AND MUL OR SWAP1 SSTORE POP PUSH1 0x3 DUP4 PUSH1 0x0 ADD PUSH1 0x1 PUSH2 0x100 EXP DUP2 SLOAD DUP2 PUSH1 0xFF MUL NOT AND SWAP1 DUP4 PUSH1 0xFF AND MUL OR SWAP1 SSTORE POP PUSH5 0x12A05F200 DUP4 PUSH1 0x1 ADD DUP2 SWAP1 SSTORE POP DUP1 DUP4 PUSH1 0x6 ADD PUSH1 0x0 PUSH2 0x100 EXP DUP2 SLOAD DUP2 PUSH20 0xFFFFFFFFFFFFFFFFFFFFFFFFFFFFFFFFFFFFFFFF MUL NOT AND SWAP1 DUP4 PUSH20 0xFFFFFFFFFFFFFFFFFFFFFFFFFFFFFFFFFFFFFFFF AND MUL OR SWAP1 SSTORE POP NUMBER DUP4 PUSH1 0x5 ADD DUP2 SWAP1 SSTORE POP POP POP POP JUMP JUMPDEST PUSH1 0x0 PUSH2 0x957 DUP3 PUSH1 0x2 ADD SLOAD PUSH2 0x949 DUP5 PUSH1 0x5 ADD SLOAD NUMBER PUSH2 0x155E SWAP1 SWAP2 SWAP1 PUSH4 0xFFFFFFFF AND JUMP JUMPDEST PUSH2 0x14D1 SWAP1 SWAP2 SWAP1 PUSH4 0xFFFFFFFF AND JUMP JUMPDEST SWAP1 POP SWAP2 SWAP1 POP JUMP JUMPDEST PUSH1 0x0 PUSH1 0x1 DUP6 PUSH1 0x40 MLOAD PUSH1 0x20 ADD DUP1 DUP1 PUSH32 0x194C69717569646974792E4E6574776F726B20417574686F72697A6174696F6E DUP2 MSTORE PUSH1 0x20 ADD PUSH32 0x3A0A333200000000000000000000000000000000000000000000000000000000 DUP2 MSTORE POP PUSH1 0x24 ADD DUP3 PUSH1 0x0 NOT AND PUSH1 0x0 NOT AND DUP2 MSTORE PUSH1 0x20 ADD SWAP2 POP POP PUSH1 0x40 MLOAD PUSH1 0x20 DUP2 DUP4 SUB SUB DUP2 MSTORE SWAP1 PUSH1 0x40 MSTORE PUSH1 0x40 MLOAD DUP1 DUP3 DUP1 MLOAD SWAP1 PUSH1 0x20 ADD SWAP1 DUP1 DUP4 DUP4 JUMPDEST PUSH1 0x20 DUP4 LT ISZERO ISZERO PUSH2 0xA0D JUMPI DUP1 MLOAD DUP3 MSTORE PUSH1 0x20 DUP3 ADD SWAP2 POP PUSH1 0x20 DUP2 ADD SWAP1 POP PUSH1 0x20 DUP4 SUB SWAP3 POP PUSH2 0x9E8 JUMP JUMPDEST PUSH1 0x1 DUP4 PUSH1 0x20 SUB PUSH2 0x100 EXP SUB DUP1 NOT DUP3 MLOAD AND DUP2 DUP5 MLOAD AND DUP1 DUP3 OR DUP6 MSTORE POP POP POP POP POP POP SWAP1 POP ADD SWAP2 POP POP PUSH1 0x40 MLOAD DUP1 SWAP2 SUB SWAP1 KECCAK256 PUSH1 0x40 MLOAD PUSH1 0x20 ADD DUP1 DUP1 PUSH32 0x19457468657265756D205369676E6564204D6573736167653A0A333200000000 DUP2 MSTORE POP PUSH1 0x1C ADD DUP3 PUSH1 0x0 NOT AND PUSH1 0x0 NOT AND DUP2 MSTORE PUSH1 0x20 ADD SWAP2 POP POP PUSH1 0x40 MLOAD PUSH1 0x20 DUP2 DUP4 SUB SUB DUP2 MSTORE SWAP1 PUSH1 0x40 MSTORE PUSH1 0x40 MLOAD DUP1 DUP3 DUP1 MLOAD SWAP1 PUSH1 0x20 ADD SWAP1 DUP1 DUP4 DUP4 JUMPDEST PUSH1 0x20 DUP4 LT ISZERO ISZERO PUSH2 0xABE JUMPI DUP1 MLOAD DUP3 MSTORE PUSH1 0x20 DUP3 ADD SWAP2 POP PUSH1 0x20 DUP2 ADD SWAP1 POP PUSH1 0x20 DUP4 SUB SWAP3 POP PUSH2 0xA99 JUMP JUMPDEST PUSH1 0x1 DUP4 PUSH1 0x20 SUB PUSH2 0x100 EXP SUB DUP1 NOT DUP3 MLOAD AND DUP2 DUP5 MLOAD AND DUP1 DUP3 OR DUP6 MSTORE POP POP POP POP POP POP SWAP1 POP ADD SWAP2 POP POP PUSH1 0x40 MLOAD DUP1 SWAP2 SUB SWAP1 KECCAK256 DUP4 DUP7 DUP7 PUSH1 0x40 MLOAD PUSH1 0x0 DUP2 MSTORE PUSH1 0x20 ADD PUSH1 0x40 MSTORE PUSH1 0x40 MLOAD DUP1 DUP6 PUSH1 0x0 NOT AND PUSH1 0x0 NOT AND DUP2 MSTORE PUSH1 0x20 ADD DUP5 PUSH1 0xFF AND PUSH1 0xFF AND DUP2 MSTORE PUSH1 0x20 ADD DUP4 PUSH1 0x0 NOT AND PUSH1 0x0 NOT AND DUP2 MSTORE PUSH1 0x20 ADD DUP3 PUSH1 0x0 NOT AND PUSH1 0x0 NOT AND DUP2 MSTORE PUSH1 0x20 ADD SWAP5 POP POP POP POP POP PUSH1 0x20 PUSH1 0x40 MLOAD PUSH1 0x20 DUP2 SUB SWAP1 DUP1 DUP5 SUB SWAP1 PUSH1 0x0 DUP7 GAS CALL ISZERO DUP1 ISZERO PUSH2 0xB5F JUMPI RETURNDATASIZE PUSH1 0x0 DUP1 RETURNDATACOPY RETURNDATASIZE PUSH1 0x0 REVERT JUMPDEST POP POP POP PUSH1 0x20 PUSH1 0x40 MLOAD SUB MLOAD SWAP1 POP SWAP5 SWAP4 POP POP POP POP JUMP JUMPDEST DUP3 PUSH1 0x0 ADD SLOAD DUP3 GT ISZERO PUSH2 0xB96 JUMPI DUP2 DUP4 PUSH1 0x0 ADD DUP2 SWAP1 SSTORE POP DUP1 DUP4 PUSH1 0x1 ADD DUP2 SWAP1 SSTORE POP PUSH2 0xBB6 JUMP JUMPDEST PUSH2 0xBAD DUP2 DUP5 PUSH1 0x1 ADD SLOAD PUSH2 0x1670 SWAP1 SWAP2 SWAP1 PUSH4 0xFFFFFFFF AND JUMP JUMPDEST DUP4 PUSH1 0x1 ADD DUP2 SWAP1 SSTORE POP JUMPDEST POP POP POP JUMP JUMPDEST PUSH1 0x0 DUP1 PUSH1 0x0 DUP1 PUSH1 0x0 DUP1 SWAP5 POP DUP9 PUSH1 0x1D ADD PUSH1 0x0 DUP10 PUSH20 0xFFFFFFFFFFFFFFFFFFFFFFFFFFFFFFFFFFFFFFFF AND PUSH20 0xFFFFFFFFFFFFFFFFFFFFFFFFFFFFFFFFFFFFFFFF AND DUP2 MSTORE PUSH1 0x20 ADD SWAP1 DUP2 MSTORE PUSH1 0x20 ADD PUSH1 0x0 KECCAK256 PUSH1 0x0 DUP9 PUSH20 0xFFFFFFFFFFFFFFFFFFFFFFFFFFFFFFFFFFFFFFFF AND PUSH20 0xFFFFFFFFFFFFFFFFFFFFFFFFFFFFFFFFFFFFFFFF AND DUP2 MSTORE PUSH1 0x20 ADD SWAP1 DUP2 MSTORE PUSH1 0x20 ADD PUSH1 0x0 KECCAK256 SWAP4 POP DUP4 PUSH1 0x6 ADD SWAP3 POP PUSH1 0x0 SWAP2 POP JUMPDEST DUP3 DUP1 SLOAD SWAP1 POP DUP3 PUSH4 0xFFFFFFFF AND LT ISZERO PUSH2 0xCD0 JUMPI DUP3 DUP3 PUSH4 0xFFFFFFFF AND DUP2 SLOAD DUP2 LT ISZERO ISZERO PUSH2 0xC77 JUMPI INVALID JUMPDEST SWAP1 PUSH1 0x0 MSTORE PUSH1 0x20 PUSH1 0x0 KECCAK256 SWAP1 PUSH1 0x2 MUL ADD SWAP1 POP DUP6 DUP2 PUSH1 0x0 ADD SLOAD EQ ISZERO PUSH2 0xCB1 JUMPI PUSH2 0xCAA DUP2 PUSH1 0x1 ADD SLOAD DUP7 PUSH2 0x1670 SWAP1 SWAP2 SWAP1 PUSH4 0xFFFFFFFF AND JUMP JUMPDEST SWAP5 POP PUSH2 0xCC3 JUMP JUMPDEST DUP6 DUP2 PUSH1 0x0 ADD SLOAD GT ISZERO PUSH2 0xCC2 JUMPI PUSH2 0xCD0 JUMP JUMPDEST JUMPDEST DUP2 DUP1 PUSH1 0x1 ADD SWAP3 POP POP PUSH2 0xC51 JUMP JUMPDEST POP POP POP POP SWAP5 SWAP4 POP POP POP POP JUMP JUMPDEST PUSH1 0x0 DUP5 PUSH1 0x1F ADD PUSH1 0x0 DUP6 PUSH20 0xFFFFFFFFFFFFFFFFFFFFFFFFFFFFFFFFFFFFFFFF AND PUSH20 0xFFFFFFFFFFFFFFFFFFFFFFFFFFFFFFFFFFFFFFFF AND DUP2 MSTORE PUSH1 0x20 ADD SWAP1 DUP2 MSTORE PUSH1 0x20 ADD PUSH1 0x0 KECCAK256 PUSH2 0xD46 DUP7 PUSH1 0x0 ADD PUSH1 0x0 SWAP1 SLOAD SWAP1 PUSH2 0x100 EXP SWAP1 DIV PUSH1 0xFF AND PUSH1 0xFF AND DUP6 PUSH2 0x14D1 SWAP1 SWAP2 SWAP1 PUSH4 0xFFFFFFFF AND JUMP JUMPDEST PUSH1 0x5 DUP2 LT ISZERO ISZERO PUSH2 0xD52 JUMPI INVALID JUMPDEST PUSH1 0x2 MUL ADD SWAP1 POP DUP3 DUP2 PUSH1 0x0 ADD SLOAD LT ISZERO PUSH2 0xDAA JUMPI PUSH2 0xD94 DUP3 PUSH2 0xD86 DUP8 DUP8 PUSH2 0xD81 PUSH1 0x1 DUP10 PUSH2 0x155E SWAP1 SWAP2 SWAP1 PUSH4 0xFFFFFFFF AND JUMP JUMPDEST PUSH2 0x5EA JUMP JUMPDEST PUSH2 0x1670 SWAP1 SWAP2 SWAP1 PUSH4 0xFFFFFFFF AND JUMP JUMPDEST DUP2 PUSH1 0x1 ADD DUP2 SWAP1 SSTORE POP DUP3 DUP2 PUSH1 0x0 ADD DUP2 SWAP1 SSTORE POP PUSH2 0xDCA JUMP JUMPDEST PUSH2 0xDC1 DUP3 DUP3 PUSH1 0x1 ADD SLOAD PUSH2 0x1670 SWAP1 SWAP2 SWAP1 PUSH4 0xFFFFFFFF AND JUMP JUMPDEST DUP2 PUSH1 0x1 ADD DUP2 SWAP1 SSTORE POP JUMPDEST POP POP POP POP POP JUMP JUMPDEST PUSH1 0x0 DUP1 PUSH1 0x0 DUP1 SWAP3 POP JUMPDEST DUP8 PUSH1 0x0 ADD PUSH1 0x0 SWAP1 SLOAD SWAP1 PUSH2 0x100 EXP SWAP1 DIV PUSH1 0xFF AND PUSH1 0xFF AND DUP4 LT ISZERO PUSH2 0xEDB JUMPI PUSH2 0xE09 DUP4 DUP8 PUSH2 0x1670 SWAP1 SWAP2 SWAP1 PUSH4 0xFFFFFFFF AND JUMP JUMPDEST SWAP2 POP DUP8 PUSH1 0x1F ADD PUSH1 0x0 DUP9 PUSH20 0xFFFFFFFFFFFFFFFFFFFFFFFFFFFFFFFFFFFFFFFF AND PUSH20 0xFFFFFFFFFFFFFFFFFFFFFFFFFFFFFFFFFFFFFFFF AND DUP2 MSTORE PUSH1 0x20 ADD SWAP1 DUP2 MSTORE PUSH1 0x20 ADD PUSH1 0x0 KECCAK256 PUSH2 0xE73 DUP10 PUSH1 0x0 ADD PUSH1 0x0 SWAP1 SLOAD SWAP1 PUSH2 0x100 EXP SWAP1 DIV PUSH1 0xFF AND PUSH1 0xFF AND DUP5 PUSH2 0x14D1 SWAP1 SWAP2 SWAP1 PUSH4 0xFFFFFFFF AND JUMP JUMPDEST PUSH1 0x5 DUP2 LT ISZERO ISZERO PUSH2 0xE7F JUMPI INVALID JUMPDEST PUSH1 0x2 MUL ADD SWAP1 POP DUP5 DUP3 GT ISZERO PUSH2 0xE92 JUMPI PUSH2 0xEDB JUMP JUMPDEST DUP2 DUP2 PUSH1 0x0 ADD SLOAD LT ISZERO PUSH2 0xECE JUMPI DUP2 DUP2 PUSH1 0x0 ADD DUP2 SWAP1 SSTORE POP PUSH2 0xEC5 DUP9 DUP9 PUSH2 0xEC0 PUSH1 0x1 DUP7 PUSH2 0x155E SWAP1 SWAP2 SWAP1 PUSH4 0xFFFFFFFF AND JUMP JUMPDEST PUSH2 0x5EA JUMP JUMPDEST DUP2 PUSH1 0x1 ADD DUP2 SWAP1 SSTORE POP JUMPDEST DUP3 DUP1 PUSH1 0x1 ADD SWAP4 POP POP PUSH2 0xDDA JUMP JUMPDEST PUSH1 0x0 SWAP3 POP JUMPDEST DUP8 PUSH1 0x0 ADD PUSH1 0x0 SWAP1 SLOAD SWAP1 PUSH2 0x100 EXP SWAP1 DIV PUSH1 0xFF AND PUSH1 0xFF AND DUP4 LT ISZERO PUSH2 0x103E JUMPI PUSH2 0xF0F DUP4 DUP8 PUSH2 0x1670 SWAP1 SWAP2 SWAP1 PUSH4 0xFFFFFFFF AND JUMP JUMPDEST SWAP2 POP DUP8 PUSH1 0x1F ADD PUSH1 0x0 DUP9 PUSH20 0xFFFFFFFFFFFFFFFFFFFFFFFFFFFFFFFFFFFFFFFF AND PUSH20 0xFFFFFFFFFFFFFFFFFFFFFFFFFFFFFFFFFFFFFFFF AND DUP2 MSTORE PUSH1 0x20 ADD SWAP1 DUP2 MSTORE PUSH1 0x20 ADD PUSH1 0x0 KECCAK256 PUSH2 0xF79 DUP10 PUSH1 0x0 ADD PUSH1 0x0 SWAP1 SLOAD SWAP1 PUSH2 0x100 EXP SWAP1 DIV PUSH1 0xFF AND PUSH1 0xFF AND DUP5 PUSH2 0x14D1 SWAP1 SWAP2 SWAP1 PUSH4 0xFFFFFFFF AND JUMP JUMPDEST PUSH1 0x5 DUP2 LT ISZERO ISZERO PUSH2 0xF85 JUMPI INVALID JUMPDEST PUSH1 0x2 MUL ADD SWAP1 POP DUP5 DUP3 GT ISZERO PUSH2 0xF98 JUMPI PUSH2 0x103E JUMP JUMPDEST DUP2 DUP2 PUSH1 0x0 ADD SLOAD LT ISZERO PUSH2 0x1012 JUMPI PUSH1 0x40 MLOAD PUSH32 0x8C379A000000000000000000000000000000000000000000000000000000000 DUP2 MSTORE PUSH1 0x4 ADD DUP1 DUP1 PUSH1 0x20 ADD DUP3 DUP2 SUB DUP3 MSTORE PUSH1 0x1 DUP2 MSTORE PUSH1 0x20 ADD DUP1 PUSH32 0x5800000000000000000000000000000000000000000000000000000000000000 DUP2 MSTORE POP PUSH1 0x20 ADD SWAP2 POP POP PUSH1 0x40 MLOAD DUP1 SWAP2 SUB SWAP1 REVERT JUMPDEST PUSH2 0x1029 DUP5 DUP3 PUSH1 0x1 ADD SLOAD PUSH2 0x155E SWAP1 SWAP2 SWAP1 PUSH4 0xFFFFFFFF AND JUMP JUMPDEST DUP2 PUSH1 0x1 ADD DUP2 SWAP1 SSTORE POP DUP3 DUP1 PUSH1 0x1 ADD SWAP4 POP POP PUSH2 0xEE0 JUMP JUMPDEST POP POP POP POP POP POP POP POP JUMP JUMPDEST PUSH1 0x0 DUP1 PUSH2 0x1072 DUP6 PUSH1 0x0 ADD PUSH1 0x0 SWAP1 SLOAD SWAP1 PUSH2 0x100 EXP SWAP1 DIV PUSH1 0xFF AND PUSH1 0xFF AND DUP6 PUSH2 0x1670 SWAP1 SWAP2 SWAP1 PUSH4 0xFFFFFFFF AND JUMP JUMPDEST DUP4 LT DUP1 ISZERO PUSH2 0x1080 JUMPI POP DUP3 DUP5 GT ISZERO JUMPDEST ISZERO ISZERO PUSH2 0x108B JUMPI PUSH1 0x0 DUP1 REVERT JUMPDEST PUSH2 0x10B2 DUP6 PUSH1 0x0 ADD PUSH1 0x0 SWAP1 SLOAD SWAP1 PUSH2 0x100 EXP SWAP1 DIV PUSH1 0xFF AND PUSH1 0xFF AND DUP6 PUSH2 0x14D1 SWAP1 SWAP2 SWAP1 PUSH4 0xFFFFFFFF AND JUMP JUMPDEST SWAP1 POP DUP5 PUSH1 0x7 ADD DUP2 PUSH1 0x5 DUP2 LT ISZERO ISZERO PUSH2 0x10C5 JUMPI INVALID JUMPDEST PUSH1 0x3 MUL ADD SWAP2 POP DUP4 DUP3 PUSH1 0x0 ADD SLOAD EQ ISZERO ISZERO PUSH2 0x10FD JUMPI DUP4 DUP3 PUSH1 0x0 ADD DUP2 SWAP1 SSTORE POP PUSH1 0x0 PUSH1 0x1 MUL DUP3 PUSH1 0x1 ADD DUP2 PUSH1 0x0 NOT AND SWAP1 SSTORE POP PUSH1 0x0 DUP3 PUSH1 0x2 ADD DUP2 SWAP1 SSTORE POP JUMPDEST DUP2 SWAP2 POP POP SWAP4 SWAP3 POP POP POP JUMP JUMPDEST PUSH1 0x0 DUP1 PUSH1 0x0 DUP1 PUSH1 0x0 DUP1 SWAP5 POP PUSH1 0x0 SWAP4 POP DUP8 PUSH1 0x1D ADD PUSH1 0x0 DUP9 PUSH20 0xFFFFFFFFFFFFFFFFFFFFFFFFFFFFFFFFFFFFFFFF AND PUSH20 0xFFFFFFFFFFFFFFFFFFFFFFFFFFFFFFFFFFFFFFFF AND DUP2 MSTORE PUSH1 0x20 ADD SWAP1 DUP2 MSTORE PUSH1 0x20 ADD PUSH1 0x0 KECCAK256 PUSH1 0x0 DUP8 PUSH20 0xFFFFFFFFFFFFFFFFFFFFFFFFFFFFFFFFFFFFFFFF AND PUSH20 0xFFFFFFFFFFFFFFFFFFFFFFFFFFFFFFFFFFFFFFFF AND DUP2 MSTORE PUSH1 0x20 ADD SWAP1 DUP2 MSTORE PUSH1 0x20 ADD PUSH1 0x0 KECCAK256 SWAP3 POP DUP8 PUSH1 0x1C ADD PUSH1 0x0 DUP9 PUSH20 0xFFFFFFFFFFFFFFFFFFFFFFFFFFFFFFFFFFFFFFFF AND PUSH20 0xFFFFFFFFFFFFFFFFFFFFFFFFFFFFFFFFFFFFFFFF AND DUP2 MSTORE PUSH1 0x20 ADD SWAP1 DUP2 MSTORE PUSH1 0x20 ADD PUSH1 0x0 KECCAK256 PUSH1 0x0 DUP8 PUSH20 0xFFFFFFFFFFFFFFFFFFFFFFFFFFFFFFFFFFFFFFFF AND PUSH20 0xFFFFFFFFFFFFFFFFFFFFFFFFFFFFFFFFFFFFFFFF AND DUP2 MSTORE PUSH1 0x20 ADD SWAP1 DUP2 MSTORE PUSH1 0x20 ADD PUSH1 0x0 KECCAK256 PUSH1 0x0 DUP8 PUSH20 0xFFFFFFFFFFFFFFFFFFFFFFFFFFFFFFFFFFFFFFFF AND PUSH20 0xFFFFFFFFFFFFFFFFFFFFFFFFFFFFFFFFFFFFFFFF AND DUP2 MSTORE PUSH1 0x20 ADD SWAP1 DUP2 MSTORE PUSH1 0x20 ADD PUSH1 0x0 KECCAK256 SWAP2 POP DUP3 PUSH1 0x0 ADD PUSH2 0x1283 DUP10 PUSH1 0x0 ADD PUSH1 0x1 SWAP1 SLOAD SWAP1 PUSH2 0x100 EXP SWAP1 DIV PUSH1 0xFF AND PUSH1 0xFF AND DUP5 PUSH1 0x2 ADD SLOAD PUSH2 0x14D1 SWAP1 SWAP2 SWAP1 PUSH4 0xFFFFFFFF AND JUMP JUMPDEST PUSH1 0x3 DUP2 LT ISZERO ISZERO PUSH2 0x128F JUMPI INVALID JUMPDEST PUSH1 0x2 MUL ADD SWAP1 POP DUP2 PUSH1 0x2 ADD SLOAD DUP2 PUSH1 0x0 ADD SLOAD EQ ISZERO PUSH2 0x12BF JUMPI PUSH2 0x12BC DUP2 PUSH1 0x1 ADD SLOAD DUP7 PUSH2 0x1670 SWAP1 SWAP2 SWAP1 PUSH4 0xFFFFFFFF AND JUMP JUMPDEST SWAP5 POP JUMPDEST PUSH2 0x12CF DUP9 DUP9 DUP9 DUP6 PUSH1 0x2 ADD SLOAD PUSH2 0xBBB JUMP JUMPDEST SWAP4 POP DUP5 DUP5 SWAP5 POP SWAP5 POP POP POP POP SWAP4 POP SWAP4 SWAP2 POP POP JUMP JUMPDEST PUSH1 0x0 DUP2 PUSH1 0x0 ADD DUP2 SWAP1 SSTORE POP PUSH1 0x0 DUP2 PUSH1 0x1 ADD DUP2 SWAP1 SSTORE POP POP JUMP JUMPDEST DUP6 PUSH1 0x16 ADD PUSH2 0x1324 DUP8 PUSH1 0x0 ADD PUSH1 0x0 SWAP1 SLOAD SWAP1 PUSH2 0x100 EXP SWAP1 DIV PUSH1 0xFF AND PUSH1 0xFF AND DUP8 PUSH2 0x14D1 SWAP1 SWAP2 SWAP1 PUSH4 0xFFFFFFFF AND JUMP JUMPDEST PUSH1 0x5 DUP2 LT ISZERO ISZERO PUSH2 0x1330 JUMPI INVALID JUMPDEST ADD SLOAD DUP6 DUP6 DUP6 DUP6 DUP6 PUSH1 0x40 MLOAD PUSH1 0x20 ADD DUP1 DUP8 PUSH1 0x0 NOT AND PUSH1 0x0 NOT AND DUP2 MSTORE PUSH1 0x20 ADD DUP7 DUP2 MSTORE PUSH1 0x20 ADD DUP6 PUSH20 0xFFFFFFFFFFFFFFFFFFFFFFFFFFFFFFFFFFFFFFFF AND PUSH20 0xFFFFFFFFFFFFFFFFFFFFFFFFFFFFFFFFFFFFFFFF AND PUSH13 0x1000000000000000000000000 MUL DUP2 MSTORE PUSH1 0x14 ADD DUP5 PUSH20 0xFFFFFFFFFFFFFFFFFFFFFFFFFFFFFFFFFFFFFFFF AND PUSH20 0xFFFFFFFFFFFFFFFFFFFFFFFFFFFFFFFFFFFFFFFF AND PUSH13 0x1000000000000000000000000 MUL DUP2 MSTORE PUSH1 0x14 ADD DUP4 PUSH1 0x2 DUP2 GT ISZERO PUSH2 0x13E0 JUMPI INVALID JUMPDEST PUSH1 0xFF AND PUSH32 0x100000000000000000000000000000000000000000000000000000000000000 MUL DUP2 MSTORE PUSH1 0x1 ADD DUP3 DUP2 MSTORE PUSH1 0x20 ADD SWAP7 POP POP POP POP POP POP POP PUSH1 0x40 MLOAD PUSH1 0x20 DUP2 DUP4 SUB SUB DUP2 MSTORE SWAP1 PUSH1 0x40 MSTORE PUSH1 0x40 MLOAD DUP1 DUP3 DUP1 MLOAD SWAP1 PUSH1 0x20 ADD SWAP1 DUP1 DUP4 DUP4 JUMPDEST PUSH1 0x20 DUP4 LT ISZERO ISZERO PUSH2 0x145C JUMPI DUP1 MLOAD DUP3 MSTORE PUSH1 0x20 DUP3 ADD SWAP2 POP PUSH1 0x20 DUP2 ADD SWAP1 POP PUSH1 0x20 DUP4 SUB SWAP3 POP PUSH2 0x1437 JUMP JUMPDEST PUSH1 0x1 DUP4 PUSH1 0x20 SUB PUSH2 0x100 EXP SUB DUP1 NOT DUP3 MLOAD AND DUP2 DUP5 MLOAD AND DUP1 DUP3 OR DUP6 MSTORE POP POP POP POP POP POP SWAP1 POP ADD SWAP2 POP POP PUSH1 0x40 MLOAD DUP1 SWAP2 SUB SWAP1 KECCAK256 DUP7 PUSH1 0x16 ADD PUSH2 0x14B4 DUP9 PUSH1 0x0 ADD PUSH1 0x0 SWAP1 SLOAD SWAP1 PUSH2 0x100 EXP SWAP1 DIV PUSH1 0xFF AND PUSH1 0xFF AND DUP9 PUSH2 0x14D1 SWAP1 SWAP2 SWAP1 PUSH4 0xFFFFFFFF AND JUMP JUMPDEST PUSH1 0x5 DUP2 LT ISZERO ISZERO PUSH2 0x14C0 JUMPI INVALID JUMPDEST ADD DUP2 PUSH1 0x0 NOT AND SWAP1 SSTORE POP POP POP POP POP POP POP JUMP JUMPDEST PUSH1 0x0 DUP1 DUP3 GT ISZERO ISZERO PUSH2 0x154A JUMPI PUSH1 0x40 MLOAD PUSH32 0x8C379A000000000000000000000000000000000000000000000000000000000 DUP2 MSTORE PUSH1 0x4 ADD DUP1 DUP1 PUSH1 0x20 ADD DUP3 DUP2 SUB DUP3 MSTORE PUSH1 0x1 DUP2 MSTORE PUSH1 0x20 ADD DUP1 PUSH32 0x2500000000000000000000000000000000000000000000000000000000000000 DUP2 MSTORE POP PUSH1 0x20 ADD SWAP2 POP POP PUSH1 0x40 MLOAD DUP1 SWAP2 SUB SWAP1 REVERT JUMPDEST DUP2 DUP4 DUP2 ISZERO ISZERO PUSH2 0x1555 JUMPI INVALID JUMPDEST MOD SWAP1 POP SWAP3 SWAP2 POP POP JUMP JUMPDEST PUSH1 0x0 DUP3 DUP3 GT ISZERO ISZERO ISZERO PUSH2 0x15D8 JUMPI PUSH1 0x40 MLOAD PUSH32 0x8C379A000000000000000000000000000000000000000000000000000000000 DUP2 MSTORE PUSH1 0x4 ADD DUP1 DUP1 PUSH1 0x20 ADD DUP3 DUP2 SUB DUP3 MSTORE PUSH1 0x1 DUP2 MSTORE PUSH1 0x20 ADD DUP1 PUSH32 0x2D00000000000000000000000000000000000000000000000000000000000000 DUP2 MSTORE POP PUSH1 0x20 ADD SWAP2 POP POP PUSH1 0x40 MLOAD DUP1 SWAP2 SUB SWAP1 REVERT JUMPDEST DUP2 DUP4 SUB SWAP1 POP SWAP3 SWAP2 POP POP JUMP JUMPDEST PUSH1 0x0 DUP1 DUP3 GT ISZERO ISZERO PUSH2 0x165C JUMPI PUSH1 0x40 MLOAD PUSH32 0x8C379A000000000000000000000000000000000000000000000000000000000 DUP2 MSTORE PUSH1 0x4 ADD DUP1 DUP1 PUSH1 0x20 ADD DUP3 DUP2 SUB DUP3 MSTORE PUSH1 0x1 DUP2 MSTORE PUSH1 0x20 ADD DUP1 PUSH32 0x2F00000000000000000000000000000000000000000000000000000000000000 DUP2 MSTORE POP PUSH1 0x20 ADD SWAP2 POP POP PUSH1 0x40 MLOAD DUP1 SWAP2 SUB SWAP1 REVERT JUMPDEST DUP2 DUP4 DUP2 ISZERO ISZERO PUSH2 0x1667 JUMPI INVALID JUMPDEST DIV SWAP1 POP SWAP3 SWAP2 POP POP JUMP JUMPDEST PUSH1 0x0 DUP1 DUP3 DUP5 ADD SWAP1 POP DUP4 DUP2 LT ISZERO ISZERO ISZERO PUSH2 0x16F0 JUMPI PUSH1 0x40 MLOAD PUSH32 0x8C379A000000000000000000000000000000000000000000000000000000000 DUP2 MSTORE PUSH1 0x4 ADD DUP1 DUP1 PUSH1 0x20 ADD DUP3 DUP2 SUB DUP3 MSTORE PUSH1 0x1 DUP2 MSTORE PUSH1 0x20 ADD DUP1 PUSH32 0x2B00000000000000000000000000000000000000000000000000000000000000 DUP2 MSTORE POP PUSH1 0x20 ADD SWAP2 POP POP PUSH1 0x40 MLOAD DUP1 SWAP2 SUB SWAP1 REVERT JUMPDEST DUP1 SWAP2 POP POP SWAP3 SWAP2 POP POP JUMP STOP LOG1 PUSH6 0x627A7A723058 KECCAK256 PUSH29 0x3463FB4CA4B0BDA181AA97EDBB9831C20CBBF74C81D84D005F577232FA 0xa7 CALLDATASIZE STOP 0x29 "
				},
				"gasEstimates": {
					"creation": {
						"codeDepositCost": "1185200",
						"executionCost": "1281",
						"totalCost": "1186481"
					},
					"external": {
						"addToAggregate(BimodalLib.AmountAggregate storage,uint256,uint256)": "infinite",
						"addToRunningPendingWithdrawals(BimodalLib.Ledger storage,ERC20,uint256,uint256)": "infinite",
						"appendOperationToEonAccumulator(BimodalLib.Ledger storage,uint256,ERC20,address,BimodalLib.Operation,uint256)": "infinite",
						"clearAggregate(BimodalLib.AmountAggregate storage)": "10504",
						"currentEon(BimodalLib.Ledger storage)": "infinite",
						"currentEra(BimodalLib.Ledger storage)": "infinite",
						"deductFromRunningPendingWithdrawals(BimodalLib.Ledger storage,ERC20,uint256,uint256,uint256)": "infinite",
						"getCurrentEonDepositsWithdrawals(BimodalLib.Ledger storage,ERC20,address)": "infinite",
						"getLiveChallenges(BimodalLib.Ledger storage,uint256)": "infinite",
						"getOrCreateCheckpoint(BimodalLib.Ledger storage,uint256,uint256)": "infinite",
						"getPendingWithdrawalsAtEon(BimodalLib.Ledger storage,ERC20,uint256)": "infinite",
						"getWalletPendingWithdrawalAmountAtEon(BimodalLib.Ledger storage,ERC20,address,uint256)": "infinite",
						"init(BimodalLib.Ledger storage,uint256,address)": "infinite",
						"signedMessageECRECOVER(bytes32,bytes32,bytes32,uint8)": "infinite"
					}
				},
				"methodIdentifiers": {
					"addToAggregate(BimodalLib.AmountAggregate storage,uint256,uint256)": "971bff52",
					"addToRunningPendingWithdrawals(BimodalLib.Ledger storage,ERC20,uint256,uint256)": "b0abcbbb",
					"appendOperationToEonAccumulator(BimodalLib.Ledger storage,uint256,ERC20,address,BimodalLib.Operation,uint256)": "f9ac8fca",
					"clearAggregate(BimodalLib.AmountAggregate storage)": "e8e95a3d",
					"currentEon(BimodalLib.Ledger storage)": "26df6e49",
					"currentEra(BimodalLib.Ledger storage)": "87d5cab9",
					"deductFromRunningPendingWithdrawals(BimodalLib.Ledger storage,ERC20,uint256,uint256,uint256)": "e37e06ea",
					"getCurrentEonDepositsWithdrawals(BimodalLib.Ledger storage,ERC20,address)": "e7f24bad",
					"getLiveChallenges(BimodalLib.Ledger storage,uint256)": "378a4719",
					"getOrCreateCheckpoint(BimodalLib.Ledger storage,uint256,uint256)": "e72b5713",
					"getPendingWithdrawalsAtEon(BimodalLib.Ledger storage,ERC20,uint256)": "207cbaba",
					"getWalletPendingWithdrawalAmountAtEon(BimodalLib.Ledger storage,ERC20,address,uint256)": "a7e478ba",
					"init(BimodalLib.Ledger storage,uint256,address)": "7fcacff9",
					"signedMessageECRECOVER(bytes32,bytes32,bytes32,uint8)": "8e9f9072"
				}
			},
			"userdoc": {
				"methods": {
					"addToRunningPendingWithdrawals(BimodalLib.Ledger storage,ERC20,uint256,uint256)": {
						"notice": "Increases the total pending withdrawal amount at a specific eon."
					},
					"appendOperationToEonAccumulator(BimodalLib.Ledger storage,uint256,ERC20,address,BimodalLib.Operation,uint256)": {
						"notice": "This method is used to embed a parent-chain operation into the accumulator through hashing its values. The on-chain accumulator is used to provide a reference with respect to which the operator can commit checkpoints."
					},
					"currentEon(BimodalLib.Ledger storage)": {
						"notice": "This method calculates the current eon number using the genesis block number and eon duration."
					},
					"currentEra(BimodalLib.Ledger storage)": {
						"notice": "This method calculates the current era number"
					},
					"deductFromRunningPendingWithdrawals(BimodalLib.Ledger storage,ERC20,uint256,uint256,uint256)": {
						"notice": "Decreases the total pending withdrawal amount at a specific eon."
					},
					"getCurrentEonDepositsWithdrawals(BimodalLib.Ledger storage,ERC20,address)": {
						"notice": "Get the total amounts deposited and pending withdrawal at the current eon."
					},
					"getLiveChallenges(BimodalLib.Ledger storage,uint256)": {
						"notice": "Get the total number of live challenges for a specific eon."
					},
					"getOrCreateCheckpoint(BimodalLib.Ledger storage,uint256,uint256)": {
						"notice": "Get checkpoint data or assume it to be empty if non-existant."
					},
					"getPendingWithdrawalsAtEon(BimodalLib.Ledger storage,ERC20,uint256)": {
						"notice": "Retrieves the total pending withdrawal amount at a specific eon."
					},
					"getWalletPendingWithdrawalAmountAtEon(BimodalLib.Ledger storage,ERC20,address,uint256)": {
						"notice": "Get the total amount pending withdrawal by a wallet at a specific eon."
					}
				}
			}
		}
	}
}