{
	"data": {
		"bytecode": {
			"linkReferences": {},
			"object": "611726610030600b82828239805160001a6073146000811461002057610022565bfe5b5030600052607381538281f30073000000000000000000000000000000000000000030146080604052600436106100e7576000357c0100000000000000000000000000000000000000000000000000000000900463ffffffff168063207cbaba146100ec57806326df6e491461014a578063378a47191461017e5780637fcacff9146101bc57806387d5cab9146102135780638e9f907214610247578063971bff52146102d4578063a7e478ba14610315578063b0abcbbb14610393578063e37e06ea146103f4578063e72b57131461045f578063e7f24bad146104b4578063e8e95a3d1461052f578063f9ac8fca1461055c575b600080fd5b61013460048036038101908080359060200190929190803573ffffffffffffffffffffffffffffffffffffffff169060200190929190803590602001909291905050506105ea565b6040518082815260200191505060405180910390f35b61016860048036038101908080359060200190929190505050610796565b6040518082815260200191505060405180910390f35b6101a660048036038101908080359060200190929190803590602001909291905050506107df565b6040518082815260200191505060405180910390f35b8180156101c857600080fd5b506102116004803603810190808035906020019092919080359060200190929190803573ffffffffffffffffffffffffffffffffffffffff169060200190929190505050610844565b005b61023160048036038101908080359060200190929190505050610928565b6040518082815260200191505060405180910390f35b610292600480360381019080803560001916906020019092919080356000191690602001909291908035600019169060200190929190803560ff16906020019092919050505061095e565b604051808273ffffffffffffffffffffffffffffffffffffffff1673ffffffffffffffffffffffffffffffffffffffff16815260200191505060405180910390f35b8180156102e057600080fd5b50610313600480360381019080803590602001909291908035906020019092919080359060200190929190505050610b73565b005b61037d60048036038101908080359060200190929190803573ffffffffffffffffffffffffffffffffffffffff169060200190929190803573ffffffffffffffffffffffffffffffffffffffff16906020019092919080359060200190929190505050610bbb565b6040518082815260200191505060405180910390f35b81801561039f57600080fd5b506103f260048036038101908080359060200190929190803573ffffffffffffffffffffffffffffffffffffffff1690602001909291908035906020019092919080359060200190929190505050610cdc565b005b81801561040057600080fd5b5061045d60048036038101908080359060200190929190803573ffffffffffffffffffffffffffffffffffffffff169060200190929190803590602001909291908035906020019092919080359060200190929190505050610dd1565b005b81801561046b57600080fd5b5061049e600480360381019080803590602001909291908035906020019092919080359060200190929190505050611048565b6040518082815260200191505060405180910390f35b61051260048036038101908080359060200190929190803573ffffffffffffffffffffffffffffffffffffffff169060200190929190803573ffffffffffffffffffffffffffffffffffffffff169060200190929190505050611108565b604051808381526020018281526020019250505060405180910390f35b81801561053b57600080fd5b5061055a600480360381019080803590602001909291905050506112e2565b005b81801561056857600080fd5b506105e86004803603810190808035906020019092919080359060200190929190803573ffffffffffffffffffffffffffffffffffffffff169060200190929190803573ffffffffffffffffffffffffffffffffffffffff169060200190929190803560ff169060200190929190803590602001909291905050506112f9565b005b60008060008060009250600091505b8660000160009054906101000a900460ff1660ff168210156106fb5786601f0160008773ffffffffffffffffffffffffffffffffffffffff1673ffffffffffffffffffffffffffffffffffffffff16815260200190815260200160002061067d8860000160009054906101000a900460ff1660ff16876114d190919063ffffffff16565b60058110151561068957fe5b60020201905084816000015414156106a7578060010154935061078c565b8281600001541180156106bd5750848160000154105b156106ca57806000015492505b60008514156106d8576106fb565b6106ec60018661155e90919063ffffffff16565b945081806001019250506105f9565b600083141561070d576000935061078c565b86601f0160008773ffffffffffffffffffffffffffffffffffffffff1673ffffffffffffffffffffffffffffffffffffffff1681526020019081526020016000206107758860000160009054906101000a900460ff1660ff16856114d190919063ffffffff16565b60058110151561078157fe5b600202016001015493505b5050509392505050565b60006107d860016107ca84600201546107bc86600501544361155e90919063ffffffff16565b6115e390919063ffffffff16565b61167090919063ffffffff16565b9050919050565b6000808360070161080d8560000160009054906101000a900460ff1660ff16856114d190919063ffffffff16565b60058110151561081957fe5b600302019050828160000154141515610835576000915061083d565b806002015491505b5092915050565b818360020181905550610865600484600201546115e390919063ffffffff16565b8360030181905550610885600384600201546115e390919063ffffffff16565b836004018190555060058360000160006101000a81548160ff021916908360ff16021790555060038360000160016101000a81548160ff021916908360ff16021790555064012a05f2008360010181905550808360060160006101000a81548173ffffffffffffffffffffffffffffffffffffffff021916908373ffffffffffffffffffffffffffffffffffffffff160217905550438360050181905550505050565b6000610957826002015461094984600501544361155e90919063ffffffff16565b6114d190919063ffffffff16565b9050919050565b600060018560405160200180807f194c69717569646974792e4e6574776f726b20417574686f72697a6174696f6e81526020017f3a0a33320000000000000000000000000000000000000000000000000000000081525060240182600019166000191681526020019150506040516020818303038152906040526040518082805190602001908083835b602083101515610a0d57805182526020820191506020810190506020830392506109e8565b6001836020036101000a038019825116818451168082178552505050505050905001915050604051809103902060405160200180807f19457468657265756d205369676e6564204d6573736167653a0a333200000000815250601c0182600019166000191681526020019150506040516020818303038152906040526040518082805190602001908083835b602083101515610abe5780518252602082019150602081019050602083039250610a99565b6001836020036101000a0380198251168184511680821785525050505050509050019150506040518091039020838686604051600081526020016040526040518085600019166000191681526020018460ff1660ff1681526020018360001916600019168152602001826000191660001916815260200194505050505060206040516020810390808403906000865af1158015610b5f573d6000803e3d6000fd5b505050602060405103519050949350505050565b8260000154821115610b9657818360000181905550808360010181905550610bb6565b610bad81846001015461167090919063ffffffff16565b83600101819055505b505050565b600080600080600080945088601d0160008973ffffffffffffffffffffffffffffffffffffffff1673ffffffffffffffffffffffffffffffffffffffff16815260200190815260200160002060008873ffffffffffffffffffffffffffffffffffffffff1673ffffffffffffffffffffffffffffffffffffffff1681526020019081526020016000209350836006019250600091505b82805490508263ffffffff161015610cd057828263ffffffff16815481101515610c7757fe5b906000526020600020906002020190508581600001541415610cb157610caa81600101548661167090919063ffffffff16565b9450610cc3565b8581600001541115610cc257610cd0565b5b8180600101925050610c51565b50505050949350505050565b600084601f0160008573ffffffffffffffffffffffffffffffffffffffff1673ffffffffffffffffffffffffffffffffffffffff168152602001908152602001600020610d468660000160009054906101000a900460ff1660ff16856114d190919063ffffffff16565b600581101515610d5257fe5b6002020190508281600001541015610daa57610d9482610d868787610d8160018961155e90919063ffffffff16565b6105ea565b61167090919063ffffffff16565b8160010181905550828160000181905550610dca565b610dc182826001015461167090919063ffffffff16565b81600101819055505b5050505050565b60008060008092505b8760000160009054906101000a900460ff1660ff16831015610edb57610e09838761167090919063ffffffff16565b915087601f0160008873ffffffffffffffffffffffffffffffffffffffff1673ffffffffffffffffffffffffffffffffffffffff168152602001908152602001600020610e738960000160009054906101000a900460ff1660ff16846114d190919063ffffffff16565b600581101515610e7f57fe5b60020201905084821115610e9257610edb565b8181600001541015610ece57818160000181905550610ec58888610ec060018661155e90919063ffffffff16565b6105ea565b81600101819055505b8280600101935050610dda565b600092505b8760000160009054906101000a900460ff1660ff1683101561103e57610f0f838761167090919063ffffffff16565b915087601f0160008873ffffffffffffffffffffffffffffffffffffffff1673ffffffffffffffffffffffffffffffffffffffff168152602001908152602001600020610f798960000160009054906101000a900460ff1660ff16846114d190919063ffffffff16565b600581101515610f8557fe5b60020201905084821115610f985761103e565b8181600001541015611012576040517f08c379a00000000000000000000000000000000000000000000000000000000081526004018080602001828103825260018152602001807f580000000000000000000000000000000000000000000000000000000000000081525060200191505060405180910390fd5b61102984826001015461155e90919063ffffffff16565b81600101819055508280600101935050610ee0565b5050505050505050565b6000806110728560000160009054906101000a900460ff1660ff168561167090919063ffffffff16565b831080156110805750828411155b151561108b57600080fd5b6110b28560000160009054906101000a900460ff1660ff16856114d190919063ffffffff16565b905084600701816005811015156110c557fe5b6003020191508382600001541415156110fd578382600001819055506000600102826001018160001916905550600082600201819055505b819150509392505050565b60008060008060008094506000935087601d0160008873ffffffffffffffffffffffffffffffffffffffff1673ffffffffffffffffffffffffffffffffffffffff16815260200190815260200160002060008773ffffffffffffffffffffffffffffffffffffffff1673ffffffffffffffffffffffffffffffffffffffff168152602001908152602001600020925087601c0160008873ffffffffffffffffffffffffffffffffffffffff1673ffffffffffffffffffffffffffffffffffffffff16815260200190815260200160002060008773ffffffffffffffffffffffffffffffffffffffff1673ffffffffffffffffffffffffffffffffffffffff16815260200190815260200160002060008773ffffffffffffffffffffffffffffffffffffffff1673ffffffffffffffffffffffffffffffffffffffff1681526020019081526020016000209150826000016112838960000160019054906101000a900460ff1660ff1684600201546114d190919063ffffffff16565b60038110151561128f57fe5b6002020190508160020154816000015414156112bf576112bc81600101548661167090919063ffffffff16565b94505b6112cf8888888560020154610bbb565b9350848494509450505050935093915050565b600081600001819055506000816001018190555050565b856016016113248760000160009054906101000a900460ff1660ff16876114d190919063ffffffff16565b60058110151561133057fe5b015485858585856040516020018087600019166000191681526020018681526020018573ffffffffffffffffffffffffffffffffffffffff1673ffffffffffffffffffffffffffffffffffffffff166c010000000000000000000000000281526014018473ffffffffffffffffffffffffffffffffffffffff1673ffffffffffffffffffffffffffffffffffffffff166c010000000000000000000000000281526014018360028111156113e057fe5b60ff167f010000000000000000000000000000000000000000000000000000000000000002815260010182815260200196505050505050506040516020818303038152906040526040518082805190602001908083835b60208310151561145c5780518252602082019150602081019050602083039250611437565b6001836020036101000a0380198251168184511680821785525050505050509050019150506040518091039020866016016114b48860000160009054906101000a900460ff1660ff16886114d190919063ffffffff16565b6005811015156114c057fe5b018160001916905550505050505050565b6000808211151561154a576040517f08c379a00000000000000000000000000000000000000000000000000000000081526004018080602001828103825260018152602001807f250000000000000000000000000000000000000000000000000000000000000081525060200191505060405180910390fd5b818381151561155557fe5b06905092915050565b60008282111515156115d8576040517f08c379a00000000000000000000000000000000000000000000000000000000081526004018080602001828103825260018152602001807f2d0000000000000000000000000000000000000000000000000000000000000081525060200191505060405180910390fd5b818303905092915050565b6000808211151561165c576040517f08c379a00000000000000000000000000000000000000000000000000000000081526004018080602001828103825260018152602001807f2f0000000000000000000000000000000000000000000000000000000000000081525060200191505060405180910390fd5b818381151561166757fe5b04905092915050565b60008082840190508381101515156116f0576040517f08c379a00000000000000000000000000000000000000000000000000000000081526004018080602001828103825260018152602001807f2b0000000000000000000000000000000000000000000000000000000000000081525060200191505060405180910390fd5b80915050929150505600a165627a7a723058207c3463fb4ca4b0bda181aa97edbb9831c20cbbf74c81d84d005f577232faa7360029",
			"opcodes": "PUSH2 0x1726 PUSH2 0x30 PUSH1 0xB DUP3 DUP3 DUP3 CODECOPY DUP1 MLOAD PUSH1 0x0 BYTE PUSH1 0x73 EQ PUSH1 0x0 DUP2 EQ PUSH2 0x20 JUMPI PUSH2 0x22 JUMP JUMPDEST INVALID JUMPDEST POP ADDRESS PUSH1 0x0 MSTORE PUSH1 0x73 DUP2 MSTORE8 DUP3 DUP2 RETURN STOP PUSH20 0x0 ADDRESS EQ PUSH1 0x80 PUSH1 0x40 MSTORE PUSH1 0x4 CALLDATASIZE LT PUSH2 0xE7 JUMPI PUSH1 0x0 CALLDATALOAD PUSH29 0x100000000000000000000000000000000000000000000000000000000 SWAP1 DIV PUSH4 0xFFFFFFFF AND DUP1 PUSH4 0x207CBABA EQ PUSH2 0xEC JUMPI DUP1 PUSH4 0x26DF6E49 EQ PUSH2 0x14A JUMPI DUP1 PUSH4 0x378A4719 EQ PUSH2 0x17E JUMPI DUP1 PUSH4 0x7FCACFF9 EQ PUSH2 0x1BC JUMPI DUP1 PUSH4 0x87D5CAB9 EQ PUSH2 0x213 JUMPI DUP1 PUSH4 0x8E9F9072 EQ PUSH2 0x247 JUMPI DUP1 PUSH4 0x971BFF52 EQ PUSH2 0x2D4 JUMPI DUP1 PUSH4 0xA7E478BA EQ PUSH2 0x315 JUMPI DUP1 PUSH4 0xB0ABCBBB EQ PUSH2 0x393 JUMPI DUP1 PUSH4 0xE37E06EA EQ PUSH2 0x3F4 JUMPI DUP1 PUSH4 0xE72B5713 EQ PUSH2 0x45F JUMPI DUP1 PUSH4 0xE7F24BAD EQ PUSH2 0x4B4 JUMPI DUP1 PUSH4 0xE8E95A3D EQ PUSH2 0x52F JUMPI DUP1 PUSH4 0xF9AC8FCA EQ PUSH2 0x55C JUMPI JUMPDEST PUSH1 0x0 DUP1 REVERT JUMPDEST PUSH2 0x134 PUSH1 0x4 DUP1 CALLDATASIZE SUB DUP2 ADD SWAP1 DUP1 DUP1 CALLDATALOAD SWAP1 PUSH1 0x20 ADD SWAP1 SWAP3 SWAP2 SWAP1 DUP1 CALLDATALOAD PUSH20 0xFFFFFFFFFFFFFFFFFFFFFFFFFFFFFFFFFFFFFFFF AND SWAP1 PUSH1 0x20 ADD SWAP1 SWAP3 SWAP2 SWAP1 DUP1 CALLDATALOAD SWAP1 PUSH1 0x20 ADD SWAP1 SWAP3 SWAP2 SWAP1 POP POP POP PUSH2 0x5EA JUMP JUMPDEST PUSH1 0x40 MLOAD DUP1 DUP3 DUP2 MSTORE PUSH1 0x20 ADD SWAP2 POP POP PUSH1 0x40 MLOAD DUP1 SWAP2 SUB SWAP1 RETURN JUMPDEST PUSH2 0x168 PUSH1 0x4 DUP1 CALLDATASIZE SUB DUP2 ADD SWAP1 DUP1 DUP1 CALLDATALOAD SWAP1 PUSH1 0x20 ADD SWAP1 SWAP3 SWAP2 SWAP1 POP POP POP PUSH2 0x796 JUMP JUMPDEST PUSH1 0x40 MLOAD DUP1 DUP3 DUP2 MSTORE PUSH1 0x20 ADD SWAP2 POP POP PUSH1 0x40 MLOAD DUP1 SWAP2 SUB SWAP1 RETURN JUMPDEST PUSH2 0x1A6 PUSH1 0x4 DUP1 CALLDATASIZE SUB DUP2 ADD SWAP1 DUP1 DUP1 CALLDATALOAD SWAP1 PUSH1 0x20 ADD SWAP1 SWAP3 SWAP2 SWAP1 DUP1 CALLDATALOAD SWAP1 PUSH1 0x20 ADD SWAP1 SWAP3 SWAP2 SWAP1 POP POP POP PUSH2 0x7DF JUMP JUMPDEST PUSH1 0x40 MLOAD DUP1 DUP3 DUP2 MSTORE PUSH1 0x20 ADD SWAP2 POP POP PUSH1 0x40 MLOAD DUP1 SWAP2 SUB SWAP1 RETURN JUMPDEST DUP2 DUP1 ISZERO PUSH2 0x1C8 JUMPI PUSH1 0x0 DUP1 REVERT JUMPDEST POP PUSH2 0x211 PUSH1 0x4 DUP1 CALLDATASIZE SUB DUP2 ADD SWAP1 DUP1 DUP1 CALLDATALOAD SWAP1 PUSH1 0x20 ADD SWAP1 SWAP3 SWAP2 SWAP1 DUP1 CALLDATALOAD SWAP1 PUSH1 0x20 ADD SWAP1 SWAP3 SWAP2 SWAP1 DUP1 CALLDATALOAD PUSH20 0xFFFFFFFFFFFFFFFFFFFFFFFFFFFFFFFFFFFFFFFF AND SWAP1 PUSH1 0x20 ADD SWAP1 SWAP3 SWAP2 SWAP1 POP POP POP PUSH2 0x844 JUMP JUMPDEST STOP JUMPDEST PUSH2 0x231 PUSH1 0x4 DUP1 CALLDATASIZE SUB DUP2 ADD SWAP1 DUP1 DUP1 CALLDATALOAD SWAP1 PUSH1 0x20 ADD SWAP1 SWAP3 SWAP2 SWAP1 POP POP POP PUSH2 0x928 JUMP JUMPDEST PUSH1 0x40 MLOAD DUP1 DUP3 DUP2 MSTORE PUSH1 0x20 ADD SWAP2 POP POP PUSH1 0x40 MLOAD DUP1 SWAP2 SUB SWAP1 RETURN JUMPDEST PUSH2 0x292 PUSH1 0x4 DUP1 CALLDATASIZE SUB DUP2 ADD SWAP1 DUP1 DUP1 CALLDATALOAD PUSH1 0x0 NOT AND SWAP1 PUSH1 0x20 ADD SWAP1 SWAP3 SWAP2 SWAP1 DUP1 CALLDATALOAD PUSH1 0x0 NOT AND SWAP1 PUSH1 0x20 ADD SWAP1 SWAP3 SWAP2 SWAP1 DUP1 CALLDATALOAD PUSH1 0x0 NOT AND SWAP1 PUSH1 0x20 ADD SWAP1 SWAP3 SWAP2 SWAP1 DUP1 CALLDATALOAD PUSH1 0xFF AND SWAP1 PUSH1 0x20 ADD SWAP1 SWAP3 SWAP2 SWAP1 POP POP POP PUSH2 0x95E JUMP JUMPDEST PUSH1 0x40 MLOAD DUP1 DUP3 PUSH20 0xFFFFFFFFFFFFFFFFFFFFFFFFFFFFFFFFFFFFFFFF AND PUSH20 0xFFFFFFFFFFFFFFFFFFFFFFFFFFFFFFFFFFFFFFFF AND DUP2 MSTORE PUSH1 0x20 ADD SWAP2 POP POP PUSH1 0x40 MLOAD DUP1 SWAP2 SUB SWAP1 RETURN JUMPDEST DUP2 DUP1 ISZERO PUSH2 0x2E0 JUMPI PUSH1 0x0 DUP1 REVERT JUMPDEST POP PUSH2 0x313 PUSH1 0x4 DUP1 CALLDATASIZE SUB DUP2 ADD SWAP1 DUP1 DUP1 CALLDATALOAD SWAP1 PUSH1 0x20 ADD SWAP1 SWAP3 SWAP2 SWAP1 DUP1 CALLDATALOAD SWAP1 PUSH1 0x20 ADD SWAP1 SWAP3 SWAP2 SWAP1 DUP1 CALLDATALOAD SWAP1 PUSH1 0x20 ADD SWAP1 SWAP3 SWAP2 SWAP1 POP POP POP PUSH2 0xB73 JUMP JUMPDEST STOP JUMPDEST PUSH2 0x37D PUSH1 0x4 DUP1 CALLDATASIZE SUB DUP2 ADD SWAP1 DUP1 DUP1 CALLDATALOAD SWAP1 PUSH1 0x20 ADD SWAP1 SWAP3 SWAP2 SWAP1 DUP1 CALLDATALOAD PUSH20 0xFFFFFFFFFFFFFFFFFFFFFFFFFFFFFFFFFFFFFFFF AND SWAP1 PUSH1 0x20 ADD SWAP1 SWAP3 SWAP2 SWAP1 DUP1 CALLDATALOAD PUSH20 0xFFFFFFFFFFFFFFFFFFFFFFFFFFFFFFFFFFFFFFFF AND SWAP1 PUSH1 0x20 ADD SWAP1 SWAP3 SWAP2 SWAP1 DUP1 CALLDATALOAD SWAP1 PUSH1 0x20 ADD SWAP1 SWAP3 SWAP2 SWAP1 POP POP POP PUSH2 0xBBB JUMP JUMPDEST PUSH1 0x40 MLOAD DUP1 DUP3 DUP2 MSTORE PUSH1 0x20 ADD SWAP2 POP POP PUSH1 0x40 MLOAD DUP1 SWAP2 SUB SWAP1 RETURN JUMPDEST DUP2 DUP1 ISZERO PUSH2 0x39F JUMPI PUSH1 0x0 DUP1 REVERT JUMPDEST POP PUSH2 0x3F2 PUSH1 0x4 DUP1 CALLDATASIZE SUB DUP2 ADD SWAP1 DUP1 DUP1 CALLDATALOAD SWAP1 PUSH1 0x20 ADD SWAP1 SWAP3 SWAP2 SWAP1 DUP1 CALLDATALOAD PUSH20 0xFFFFFFFFFFFFFFFFFFFFFFFFFFFFFFFFFFFFFFFF AND SWAP1 PUSH1 0x20 ADD SWAP1 SWAP3 SWAP2 SWAP1 DUP1 CALLDATALOAD SWAP1 PUSH1 0x20 ADD SWAP1 SWAP3 SWAP2 SWAP1 DUP1 CALLDATALOAD SWAP1 PUSH1 0x20 ADD SWAP1 SWAP3 SWAP2 SWAP1 POP POP POP PUSH2 0xCDC JUMP JUMPDEST STOP JUMPDEST DUP2 DUP1 ISZERO PUSH2 0x400 JUMPI PUSH1 0x0 DUP1 REVERT JUMPDEST POP PUSH2 0x45D PUSH1 0x4 DUP1 CALLDATASIZE SUB DUP2 ADD SWAP1 DUP1 DUP1 CALLDATALOAD SWAP1 PUSH1 0x20 ADD SWAP1 SWAP3 SWAP2 SWAP1 DUP1 CALLDATALOAD PUSH20 0xFFFFFFFFFFFFFFFFFFFFFFFFFFFFFFFFFFFFFFFF AND SWAP1 PUSH1 0x20 ADD SWAP1 SWAP3 SWAP2 SWAP1 DUP1 CALLDATALOAD SWAP1 PUSH1 0x20 ADD SWAP1 SWAP3 SWAP2 SWAP1 DUP1 CALLDATALOAD SWAP1 PUSH1 0x20 ADD SWAP1 SWAP3 SWAP2 SWAP1 DUP1 CALLDATALOAD SWAP1 PUSH1 0x20 ADD SWAP1 SWAP3 SWAP2 SWAP1 POP POP POP PUSH2 0xDD1 JUMP JUMPDEST STOP JUMPDEST DUP2 DUP1 ISZERO PUSH2 0x46B JUMPI PUSH1 0x0 DUP1 REVERT JUMPDEST POP PUSH2 0x49E PUSH1 0x4 DUP1 CALLDATASIZE SUB DUP2 ADD SWAP1 DUP1 DUP1 CALLDATALOAD SWAP1 PUSH1 0x20 ADD SWAP1 SWAP3 SWAP2 SWAP1 DUP1 CALLDATALOAD SWAP1 PUSH1 0x20 ADD SWAP1 SWAP3 SWAP2 SWAP1 DUP1 CALLDATALOAD SWAP1 PUSH1 0x20 ADD SWAP1 SWAP3 SWAP2 SWAP1 POP POP POP PUSH2 0x1048 JUMP JUMPDEST PUSH1 0x40 MLOAD DUP1 DUP3 DUP2 MSTORE PUSH1 0x20 ADD SWAP2 POP POP PUSH1 0x40 MLOAD DUP1 SWAP2 SUB SWAP1 RETURN JUMPDEST PUSH2 0x512 PUSH1 0x4 DUP1 CALLDATASIZE SUB DUP2 ADD SWAP1 DUP1 DUP1 CALLDATALOAD SWAP1 PUSH1 0x20 ADD SWAP1 SWAP3 SWAP2 SWAP1 DUP1 CALLDATALOAD PUSH20 0xFFFFFFFFFFFFFFFFFFFFFFFFFFFFFFFFFFFFFFFF AND SWAP1 PUSH1 0x20 ADD SWAP1 SWAP3 SWAP2 SWAP1 DUP1 CALLDATALOAD PUSH20 0xFFFFFFFFFFFFFFFFFFFFFFFFFFFFFFFFFFFFFFFF AND SWAP1 PUSH1 0x20 ADD SWAP1 SWAP3 SWAP2 SWAP1 POP POP POP PUSH2 0x1108 JUMP JUMPDEST PUSH1 0x40 MLOAD DUP1 DUP4 DUP2 MSTORE PUSH1 0x20 ADD DUP3 DUP2 MSTORE PUSH1 0x20 ADD SWAP3 POP POP POP PUSH1 0x40 MLOAD DUP1 SWAP2 SUB SWAP1 RETURN JUMPDEST DUP2 DUP1 ISZERO PUSH2 0x53B JUMPI PUSH1 0x0 DUP1 REVERT JUMPDEST POP PUSH2 0x55A PUSH1 0x4 DUP1 CALLDATASIZE SUB DUP2 ADD SWAP1 DUP1 DUP1 CALLDATALOAD SWAP1 PUSH1 0x20 ADD SWAP1 SWAP3 SWAP2 SWAP1 POP POP POP PUSH2 0x12E2 JUMP JUMPDEST STOP JUMPDEST DUP2 DUP1 ISZERO PUSH2 0x568 JUMPI PUSH1 0x0 DUP1 REVERT JUMPDEST POP PUSH2 0x5E8 PUSH1 0x4 DUP1 CALLDATASIZE SUB DUP2 ADD SWAP1 DUP1 DUP1 CALLDATALOAD SWAP1 PUSH1 0x20 ADD SWAP1 SWAP3 SWAP2 SWAP1 DUP1 CALLDATALOAD SWAP1 PUSH1 0x20 ADD SWAP1 SWAP3 SWAP2 SWAP1 DUP1 CALLDATALOAD PUSH20 0xFFFFFFFFFFFFFFFFFFFFFFFFFFFFFFFFFFFFFFFF AND SWAP1 PUSH1 0x20 ADD SWAP1 SWAP3 SWAP2 SWAP1 DUP1 CALLDATALOAD PUSH20 0xFFFFFFFFFFFFFFFFFFFFFFFFFFFFFFFFFFFFFFFF AND SWAP1 PUSH1 0x20 ADD SWAP1 SWAP3 SWAP2 SWAP1 DUP1 CALLDATALOAD PUSH1 0xFF AND SWAP1 PUSH1 0x20 ADD SWAP1 SWAP3 SWAP2 SWAP1 DUP1 CALLDATALOAD SWAP1 PUSH1 0x20 ADD SWAP1 SWAP3 SWAP2 SWAP1 POP POP POP PUSH2 0x12F9 JUMP JUMPDEST STOP JUMPDEST PUSH1 0x0 DUP1 PUSH1 0x0 DUP1 PUSH1 0x0 SWAP3 POP PUSH1 0x0 SWAP2 POP JUMPDEST DUP7 PUSH1 0x0 ADD PUSH1 0x0 SWAP1 SLOAD SWAP1 PUSH2 0x100 EXP SWAP1 DIV PUSH1 0xFF AND PUSH1 0xFF AND DUP3 LT ISZERO PUSH2 0x6FB JUMPI DUP7 PUSH1 0x1F ADD PUSH1 0x0 DUP8 PUSH20 0xFFFFFFFFFFFFFFFFFFFFFFFFFFFFFFFFFFFFFFFF AND PUSH20 0xFFFFFFFFFFFFFFFFFFFFFFFFFFFFFFFFFFFFFFFF AND DUP2 MSTORE PUSH1 0x20 ADD SWAP1 DUP2 MSTORE PUSH1 0x20 ADD PUSH1 0x0 KECCAK256 PUSH2 0x67D DUP9 PUSH1 0x0 ADD PUSH1 0x0 SWAP1 SLOAD SWAP1 PUSH2 0x100 EXP SWAP1 DIV PUSH1 0xFF AND PUSH1 0xFF AND DUP8 PUSH2 0x14D1 SWAP1 SWAP2 SWAP1 PUSH4 0xFFFFFFFF AND JUMP JUMPDEST PUSH1 0x5 DUP2 LT ISZERO ISZERO PUSH2 0x689 JUMPI INVALID JUMPDEST PUSH1 0x2 MUL ADD SWAP1 POP DUP5 DUP2 PUSH1 0x0 ADD SLOAD EQ ISZERO PUSH2 0x6A7 JUMPI DUP1 PUSH1 0x1 ADD SLOAD SWAP4 POP PUSH2 0x78C JUMP JUMPDEST DUP3 DUP2 PUSH1 0x0 ADD SLOAD GT DUP1 ISZERO PUSH2 0x6BD JUMPI POP DUP5 DUP2 PUSH1 0x0 ADD SLOAD LT JUMPDEST ISZERO PUSH2 0x6CA JUMPI DUP1 PUSH1 0x0 ADD SLOAD SWAP3 POP JUMPDEST PUSH1 0x0 DUP6 EQ ISZERO PUSH2 0x6D8 JUMPI PUSH2 0x6FB JUMP JUMPDEST PUSH2 0x6EC PUSH1 0x1 DUP7 PUSH2 0x155E SWAP1 SWAP2 SWAP1 PUSH4 0xFFFFFFFF AND JUMP JUMPDEST SWAP5 POP DUP2 DUP1 PUSH1 0x1 ADD SWAP3 POP POP PUSH2 0x5F9 JUMP JUMPDEST PUSH1 0x0 DUP4 EQ ISZERO PUSH2 0x70D JUMPI PUSH1 0x0 SWAP4 POP PUSH2 0x78C JUMP JUMPDEST DUP7 PUSH1 0x1F ADD PUSH1 0x0 DUP8 PUSH20 0xFFFFFFFFFFFFFFFFFFFFFFFFFFFFFFFFFFFFFFFF AND PUSH20 0xFFFFFFFFFFFFFFFFFFFFFFFFFFFFFFFFFFFFFFFF AND DUP2 MSTORE PUSH1 0x20 ADD SWAP1 DUP2 MSTORE PUSH1 0x20 ADD PUSH1 0x0 KECCAK256 PUSH2 0x775 DUP9 PUSH1 0x0 ADD PUSH1 0x0 SWAP1 SLOAD SWAP1 PUSH2 0x100 EXP SWAP1 DIV PUSH1 0xFF AND PUSH1 0xFF AND DUP6 PUSH2 0x14D1 SWAP1 SWAP2 SWAP1 PUSH4 0xFFFFFFFF AND JUMP JUMPDEST PUSH1 0x5 DUP2 LT ISZERO ISZERO PUSH2 0x781 JUMPI INVALID JUMPDEST PUSH1 0x2 MUL ADD PUSH1 0x1 ADD SLOAD SWAP4 POP JUMPDEST POP POP POP SWAP4 SWAP3 POP POP POP JUMP JUMPDEST PUSH1 0x0 PUSH2 0x7D8 PUSH1 0x1 PUSH2 0x7CA DUP5 PUSH1 0x2 ADD SLOAD PUSH2 0x7BC DUP7 PUSH1 0x5 ADD SLOAD NUMBER PUSH2 0x155E SWAP1 SWAP2 SWAP1 PUSH4 0xFFFFFFFF AND JUMP JUMPDEST PUSH2 0x15E3 SWAP1 SWAP2 SWAP1 PUSH4 0xFFFFFFFF AND JUMP JUMPDEST PUSH2 0x1670 SWAP1 SWAP2 SWAP1 PUSH4 0xFFFFFFFF AND JUMP JUMPDEST SWAP1 POP SWAP2 SWAP1 POP JUMP JUMPDEST PUSH1 0x0 DUP1 DUP4 PUSH1 0x7 ADD PUSH2 0x80D DUP6 PUSH1 0x0 ADD PUSH1 0x0 SWAP1 SLOAD SWAP1 PUSH2 0x100 EXP SWAP1 DIV PUSH1 0xFF AND PUSH1 0xFF AND DUP6 PUSH2 0x14D1 SWAP1 SWAP2 SWAP1 PUSH4 0xFFFFFFFF AND JUMP JUMPDEST PUSH1 0x5 DUP2 LT ISZERO ISZERO PUSH2 0x819 JUMPI INVALID JUMPDEST PUSH1 0x3 MUL ADD SWAP1 POP DUP3 DUP2 PUSH1 0x0 ADD SLOAD EQ ISZERO ISZERO PUSH2 0x835 JUMPI PUSH1 0x0 SWAP2 POP PUSH2 0x83D JUMP JUMPDEST DUP1 PUSH1 0x2 ADD SLOAD SWAP2 POP JUMPDEST POP SWAP3 SWAP2 POP POP JUMP JUMPDEST DUP2 DUP4 PUSH1 0x2 ADD DUP2 SWAP1 SSTORE POP PUSH2 0x865 PUSH1 0x4 DUP5 PUSH1 0x2 ADD SLOAD PUSH2 0x15E3 SWAP1 SWAP2 SWAP1 PUSH4 0xFFFFFFFF AND JUMP JUMPDEST DUP4 PUSH1 0x3 ADD DUP2 SWAP1 SSTORE POP PUSH2 0x885 PUSH1 0x3 DUP5 PUSH1 0x2 ADD SLOAD PUSH2 0x15E3 SWAP1 SWAP2 SWAP1 PUSH4 0xFFFFFFFF AND JUMP JUMPDEST DUP4 PUSH1 0x4 ADD DUP2 SWAP1 SSTORE POP PUSH1 0x5 DUP4 PUSH1 0x0 ADD PUSH1 0x0 PUSH2 0x100 EXP DUP2 SLOAD DUP2 PUSH1 0xFF MUL NOT AND SWAP1 DUP4 PUSH1 0xFF AND MUL OR SWAP1 SSTORE POP PUSH1 0x3 DUP4 PUSH1 0x0 ADD PUSH1 0x1 PUSH2 0x100 EXP DUP2 SLOAD DUP2 PUSH1 0xFF MUL NOT AND SWAP1 DUP4 PUSH1 0xFF AND MUL OR SWAP1 SSTORE POP PUSH5 0x12A05F200 DUP4 PUSH1 0x1 ADD DUP2 SWAP1 SSTORE POP DUP1 DUP4 PUSH1 0x6 ADD PUSH1 0x0 PUSH2 0x100 EXP DUP2 SLOAD DUP2 PUSH20 0xFFFFFFFFFFFFFFFFFFFFFFFFFFFFFFFFFFFFFFFF MUL NOT AND SWAP1 DUP4 PUSH20 0xFFFFFFFFFFFFFFFFFFFFFFFFFFFFFFFFFFFFFFFF AND MUL OR SWAP1 SSTORE POP NUMBER DUP4 PUSH1 0x5 ADD DUP2 SWAP1 SSTORE POP POP POP POP JUMP JUMPDEST PUSH1 0x0 PUSH2 0x957 DUP3 PUSH1 0x2 ADD SLOAD PUSH2 0x949 DUP5 PUSH1 0x5 ADD SLOAD NUMBER PUSH2 0x155E SWAP1 SWAP2 SWAP1 PUSH4 0xFFFFFFFF AND JUMP JUMPDEST PUSH2 0x14D1 SWAP1 SWAP2 SWAP1 PUSH4 0xFFFFFFFF AND JUMP JUMPDEST SWAP1 POP SWAP2 SWAP1 POP JUMP JUMPDEST PUSH1 0x0 PUSH1 0x1 DUP6 PUSH1 0x40 MLOAD PUSH1 0x20 ADD DUP1 DUP1 PUSH32 0x194C69717569646974792E4E6574776F726B20417574686F72697A6174696F6E DUP2 MSTORE PUSH1 0x20 ADD PUSH32 0x3A0A333200000000000000000000000000000000000000000000000000000000 DUP2 MSTORE POP PUSH1 0x24 ADD DUP3 PUSH1 0x0 NOT AND PUSH1 0x0 NOT AND DUP2 MSTORE PUSH1 0x20 ADD SWAP2 POP POP PUSH1 0x40 MLOAD PUSH1 0x20 DUP2 DUP4 SUB SUB DUP2 MSTORE SWAP1 PUSH1 0x40 MSTORE PUSH1 0x40 MLOAD DUP1 DUP3 DUP1 MLOAD SWAP1 PUSH1 0x20 ADD SWAP1 DUP1 DUP4 DUP4 JUMPDEST PUSH1 0x20 DUP4 LT ISZERO ISZERO PUSH2 0xA0D JUMPI DUP1 MLOAD DUP3 MSTORE PUSH1 0x20 DUP3 ADD SWAP2 POP PUSH1 0x20 DUP2 ADD SWAP1 POP PUSH1 0x20 DUP4 SUB SWAP3 POP PUSH2 0x9E8 JUMP JUMPDEST PUSH1 0x1 DUP4 PUSH1 0x20 SUB PUSH2 0x100 EXP SUB DUP1 NOT DUP3 MLOAD AND DUP2 DUP5 MLOAD AND DUP1 DUP3 OR DUP6 MSTORE POP POP POP POP POP POP SWAP1 POP ADD SWAP2 POP POP PUSH1 0x40 MLOAD DUP1 SWAP2 SUB SWAP1 KECCAK256 PUSH1 0x40 MLOAD PUSH1 0x20 ADD DUP1 DUP1 PUSH32 0x19457468657265756D205369676E6564204D6573736167653A0A333200000000 DUP2 MSTORE POP PUSH1 0x1C ADD DUP3 PUSH1 0x0 NOT AND PUSH1 0x0 NOT AND DUP2 MSTORE PUSH1 0x20 ADD SWAP2 POP POP PUSH1 0x40 MLOAD PUSH1 0x20 DUP2 DUP4 SUB SUB DUP2 MSTORE SWAP1 PUSH1 0x40 MSTORE PUSH1 0x40 MLOAD DUP1 DUP3 DUP1 MLOAD SWAP1 PUSH1 0x20 ADD SWAP1 DUP1 DUP4 DUP4 JUMPDEST PUSH1 0x20 DUP4 LT ISZERO ISZERO PUSH2 0xABE JUMPI DUP1 MLOAD DUP3 MSTORE PUSH1 0x20 DUP3 ADD SWAP2 POP PUSH1 0x20 DUP2 ADD SWAP1 POP PUSH1 0x20 DUP4 SUB SWAP3 POP PUSH2 0xA99 JUMP JUMPDEST PUSH1 0x1 DUP4 PUSH1 0x20 SUB PUSH2 0x100 EXP SUB DUP1 NOT DUP3 MLOAD AND DUP2 DUP5 MLOAD AND DUP1 DUP3 OR DUP6 MSTORE POP POP POP POP POP POP SWAP1 POP ADD SWAP2 POP POP PUSH1 0x40 MLOAD DUP1 SWAP2 SUB SWAP1 KECCAK256 DUP4 DUP7 DUP7 PUSH1 0x40 MLOAD PUSH1 0x0 DUP2 MSTORE PUSH1 0x20 ADD PUSH1 0x40 MSTORE PUSH1 0x40 MLOAD DUP1 DUP6 PUSH1 0x0 NOT AND PUSH1 0x0 NOT AND DUP2 MSTORE PUSH1 0x20 ADD DUP5 PUSH1 0xFF AND PUSH1 0xFF AND DUP2 MSTORE PUSH1 0x20 ADD DUP4 PUSH1 0x0 NOT AND PUSH1 0x0 NOT AND DUP2 MSTORE PUSH1 0x20 ADD DUP3 PUSH1 0x0 NOT AND PUSH1 0x0 NOT AND DUP2 MSTORE PUSH1 0x20 ADD SWAP5 POP POP POP POP POP PUSH1 0x20 PUSH1 0x40 MLOAD PUSH1 0x20 DUP2 SUB SWAP1 DUP1 DUP5 SUB SWAP1 PUSH1 0x0 DUP7 GAS CALL ISZERO DUP1 ISZERO PUSH2 0xB5F JUMPI RETURNDATASIZE PUSH1 0x0 DUP1 RETURNDATACOPY RETURNDATASIZE PUSH1 0x0 REVERT JUMPDEST POP POP POP PUSH1 0x20 PUSH1 0x40 MLOAD SUB MLOAD SWAP1 POP SWAP5 SWAP4 POP POP POP POP JUMP JUMPDEST DUP3 PUSH1 0x0 ADD SLOAD DUP3 GT ISZERO PUSH2 0xB96 JUMPI DUP2 DUP4 PUSH1 0x0 ADD DUP2 SWAP1 SSTORE POP DUP1 DUP4 PUSH1 0x1 ADD DUP2 SWAP1 SSTORE POP PUSH2 0xBB6 JUMP JUMPDEST PUSH2 0xBAD DUP2 DUP5 PUSH1 0x1 ADD SLOAD PUSH2 0x1670 SWAP1 SWAP2 SWAP1 PUSH4 0xFFFFFFFF AND JUMP JUMPDEST DUP4 PUSH1 0x1 ADD DUP2 SWAP1 SSTORE POP JUMPDEST POP POP POP JUMP JUMPDEST PUSH1 0x0 DUP1 PUSH1 0x0 DUP1 PUSH1 0x0 DUP1 SWAP5 POP DUP9 PUSH1 0x1D ADD PUSH1 0x0 DUP10 PUSH20 0xFFFFFFFFFFFFFFFFFFFFFFFFFFFFFFFFFFFFFFFF AND PUSH20 0xFFFFFFFFFFFFFFFFFFFFFFFFFFFFFFFFFFFFFFFF AND DUP2 MSTORE PUSH1 0x20 ADD SWAP1 DUP2 MSTORE PUSH1 0x20 ADD PUSH1 0x0 KECCAK256 PUSH1 0x0 DUP9 PUSH20 0xFFFFFFFFFFFFFFFFFFFFFFFFFFFFFFFFFFFFFFFF AND PUSH20 0xFFFFFFFFFFFFFFFFFFFFFFFFFFFFFFFFFFFFFFFF AND DUP2 MSTORE PUSH1 0x20 ADD SWAP1 DUP2 MSTORE PUSH1 0x20 ADD PUSH1 0x0 KECCAK256 SWAP4 POP DUP4 PUSH1 0x6 ADD SWAP3 POP PUSH1 0x0 SWAP2 POP JUMPDEST DUP3 DUP1 SLOAD SWAP1 POP DUP3 PUSH4 0xFFFFFFFF AND LT ISZERO PUSH2 0xCD0 JUMPI DUP3 DUP3 PUSH4 0xFFFFFFFF AND DUP2 SLOAD DUP2 LT ISZERO ISZERO PUSH2 0xC77 JUMPI INVALID JUMPDEST SWAP1 PUSH1 0x0 MSTORE PUSH1 0x20 PUSH1 0x0 KECCAK256 SWAP1 PUSH1 0x2 MUL ADD SWAP1 POP DUP6 DUP2 PUSH1 0x0 ADD SLOAD EQ ISZERO PUSH2 0xCB1 JUMPI PUSH2 0xCAA DUP2 PUSH1 0x1 ADD SLOAD DUP7 PUSH2 0x1670 SWAP1 SWAP2 SWAP1 PUSH4 0xFFFFFFFF AND JUMP JUMPDEST SWAP5 POP PUSH2 0xCC3 JUMP JUMPDEST DUP6 DUP2 PUSH1 0x0 ADD SLOAD GT ISZERO PUSH2 0xCC2 JUMPI PUSH2 0xCD0 JUMP JUMPDEST JUMPDEST DUP2 DUP1 PUSH1 0x1 ADD SWAP3 POP POP PUSH2 0xC51 JUMP JUMPDEST POP POP POP POP SWAP5 SWAP4 POP POP POP POP JUMP JUMPDEST PUSH1 0x0 DUP5 PUSH1 0x1F ADD PUSH1 0x0 DUP6 PUSH20 0xFFFFFFFFFFFFFFFFFFFFFFFFFFFFFFFFFFFFFFFF AND PUSH20 0xFFFFFFFFFFFFFFFFFFFFFFFFFFFFFFFFFFFFFFFF AND DUP2 MSTORE PUSH1 0x20 ADD SWAP1 DUP2 MSTORE PUSH1 0x20 ADD PUSH1 0x0 KECCAK256 PUSH2 0xD46 DUP7 PUSH1 0x0 ADD PUSH1 0x0 SWAP1 SLOAD SWAP1 PUSH2 0x100 EXP SWAP1 DIV PUSH1 0xFF AND PUSH1 0xFF AND DUP6 PUSH2 0x14D1 SWAP1 SWAP2 SWAP1 PUSH4 0xFFFFFFFF AND JUMP JUMPDEST PUSH1 0x5 DUP2 LT ISZERO ISZERO PUSH2 0xD52 JUMPI INVALID JUMPDEST PUSH1 0x2 MUL ADD SWAP1 POP DUP3 DUP2 PUSH1 0x0 ADD SLOAD LT ISZERO PUSH2 0xDAA JUMPI PUSH2 0xD94 DUP3 PUSH2 0xD86 DUP8 DUP8 PUSH2 0xD81 PUSH1 0x1 DUP10 PUSH2 0x155E SWAP1 SWAP2 SWAP1 PUSH4 0xFFFFFFFF AND JUMP JUMPDEST PUSH2 0x5EA JUMP JUMPDEST PUSH2 0x1670 SWAP1 SWAP2 SWAP1 PUSH4 0xFFFFFFFF AND JUMP JUMPDEST DUP2 PUSH1 0x1 ADD DUP2 SWAP1 SSTORE POP DUP3 DUP2 PUSH1 0x0 ADD DUP2 SWAP1 SSTORE POP PUSH2 0xDCA JUMP JUMPDEST PUSH2 0xDC1 DUP3 DUP3 PUSH1 0x1 ADD SLOAD PUSH2 0x1670 SWAP1 SWAP2 SWAP1 PUSH4 0xFFFFFFFF AND JUMP JUMPDEST DUP2 PUSH1 0x1 ADD DUP2 SWAP1 SSTORE POP JUMPDEST POP POP POP POP POP JUMP JUMPDEST PUSH1 0x0 DUP1 PUSH1 0x0 DUP1 SWAP3 POP JUMPDEST DUP8 PUSH1 0x0 ADD PUSH1 0x0 SWAP1 SLOAD SWAP1 PUSH2 0x100 EXP SWAP1 DIV PUSH1 0xFF AND PUSH1 0xFF AND DUP4 LT ISZERO PUSH2 0xEDB JUMPI PUSH2 0xE09 DUP4 DUP8 PUSH2 0x1670 SWAP1 SWAP2 SWAP1 PUSH4 0xFFFFFFFF AND JUMP JUMPDEST SWAP2 POP DUP8 PUSH1 0x1F ADD PUSH1 0x0 DUP9 PUSH20 0xFFFFFFFFFFFFFFFFFFFFFFFFFFFFFFFFFFFFFFFF AND PUSH20 0xFFFFFFFFFFFFFFFFFFFFFFFFFFFFFFFFFFFFFFFF AND DUP2 MSTORE PUSH1 0x20 ADD SWAP1 DUP2 MSTORE PUSH1 0x20 ADD PUSH1 0x0 KECCAK256 PUSH2 0xE73 DUP10 PUSH1 0x0 ADD PUSH1 0x0 SWAP1 SLOAD SWAP1 PUSH2 0x100 EXP SWAP1 DIV PUSH1 0xFF AND PUSH1 0xFF AND DUP5 PUSH2 0x14D1 SWAP1 SWAP2 SWAP1 PUSH4 0xFFFFFFFF AND JUMP JUMPDEST PUSH1 0x5 DUP2 LT ISZERO ISZERO PUSH2 0xE7F JUMPI INVALID JUMPDEST PUSH1 0x2 MUL ADD SWAP1 POP DUP5 DUP3 GT ISZERO PUSH2 0xE92 JUMPI PUSH2 0xEDB JUMP JUMPDEST DUP2 DUP2 PUSH1 0x0 ADD SLOAD LT ISZERO PUSH2 0xECE JUMPI DUP2 DUP2 PUSH1 0x0 ADD DUP2 SWAP1 SSTORE POP PUSH2 0xEC5 DUP9 DUP9 PUSH2 0xEC0 PUSH1 0x1 DUP7 PUSH2 0x155E SWAP1 SWAP2 SWAP1 PUSH4 0xFFFFFFFF AND JUMP JUMPDEST PUSH2 0x5EA JUMP JUMPDEST DUP2 PUSH1 0x1 ADD DUP2 SWAP1 SSTORE POP JUMPDEST DUP3 DUP1 PUSH1 0x1 ADD SWAP4 POP POP PUSH2 0xDDA JUMP JUMPDEST PUSH1 0x0 SWAP3 POP JUMPDEST DUP8 PUSH1 0x0 ADD PUSH1 0x0 SWAP1 SLOAD SWAP1 PUSH2 0x100 EXP SWAP1 DIV PUSH1 0xFF AND PUSH1 0xFF AND DUP4 LT ISZERO PUSH2 0x103E JUMPI PUSH2 0xF0F DUP4 DUP8 PUSH2 0x1670 SWAP1 SWAP2 SWAP1 PUSH4 0xFFFFFFFF AND JUMP JUMPDEST SWAP2 POP DUP8 PUSH1 0x1F ADD PUSH1 0x0 DUP9 PUSH20 0xFFFFFFFFFFFFFFFFFFFFFFFFFFFFFFFFFFFFFFFF AND PUSH20 0xFFFFFFFFFFFFFFFFFFFFFFFFFFFFFFFFFFFFFFFF AND DUP2 MSTORE PUSH1 0x20 ADD SWAP1 DUP2 MSTORE PUSH1 0x20 ADD PUSH1 0x0 KECCAK256 PUSH2 0xF79 DUP10 PUSH1 0x0 ADD PUSH1 0x0 SWAP1 SLOAD SWAP1 PUSH2 0x100 EXP SWAP1 DIV PUSH1 0xFF AND PUSH1 0xFF AND DUP5 PUSH2 0x14D1 SWAP1 SWAP2 SWAP1 PUSH4 0xFFFFFFFF AND JUMP JUMPDEST PUSH1 0x5 DUP2 LT ISZERO ISZERO PUSH2 0xF85 JUMPI INVALID JUMPDEST PUSH1 0x2 MUL ADD SWAP1 POP DUP5 DUP3 GT ISZERO PUSH2 0xF98 JUMPI PUSH2 0x103E JUMP JUMPDEST DUP2 DUP2 PUSH1 0x0 ADD SLOAD LT ISZERO PUSH2 0x1012 JUMPI PUSH1 0x40 MLOAD PUSH32 0x8C379A000000000000000000000000000000000000000000000000000000000 DUP2 MSTORE PUSH1 0x4 ADD DUP1 DUP1 PUSH1 0x20 ADD DUP3 DUP2 SUB DUP3 MSTORE PUSH1 0x1 DUP2 MSTORE PUSH1 0x20 ADD DUP1 PUSH32 0x5800000000000000000000000000000000000000000000000000000000000000 DUP2 MSTORE POP PUSH1 0x20 ADD SWAP2 POP POP PUSH1 0x40 MLOAD DUP1 SWAP2 SUB SWAP1 REVERT JUMPDEST PUSH2 0x1029 DUP5 DUP3 PUSH1 0x1 ADD SLOAD PUSH2 0x155E SWAP1 SWAP2 SWAP1 PUSH4 0xFFFFFFFF AND JUMP JUMPDEST DUP2 PUSH1 0x1 ADD DUP2 SWAP1 SSTORE POP DUP3 DUP1 PUSH1 0x1 ADD SWAP4 POP POP PUSH2 0xEE0 JUMP JUMPDEST POP POP POP POP POP POP POP POP JUMP JUMPDEST PUSH1 0x0 DUP1 PUSH2 0x1072 DUP6 PUSH1 0x0 ADD PUSH1 0x0 SWAP1 SLOAD SWAP1 PUSH2 0x100 EXP SWAP1 DIV PUSH1 0xFF AND PUSH1 0xFF AND DUP6 PUSH2 0x1670 SWAP1 SWAP2 SWAP1 PUSH4 0xFFFFFFFF AND JUMP JUMPDEST DUP4 LT DUP1 ISZERO PUSH2 0x1080 JUMPI POP DUP3 DUP5 GT ISZERO JUMPDEST ISZERO ISZERO PUSH2 0x108B JUMPI PUSH1 0x0 DUP1 REVERT JUMPDEST PUSH2 0x10B2 DUP6 PUSH1 0x0 ADD PUSH1 0x0 SWAP1 SLOAD SWAP1 PUSH2 0x100 EXP SWAP1 DIV PUSH1 0xFF AND PUSH1 0xFF AND DUP6 PUSH2 0x14D1 SWAP1 SWAP2 SWAP1 PUSH4 0xFFFFFFFF AND JUMP JUMPDEST SWAP1 POP DUP5 PUSH1 0x7 ADD DUP2 PUSH1 0x5 DUP2 LT ISZERO ISZERO PUSH2 0x10C5 JUMPI INVALID JUMPDEST PUSH1 0x3 MUL ADD SWAP2 POP DUP4 DUP3 PUSH1 0x0 ADD SLOAD EQ ISZERO ISZERO PUSH2 0x10FD JUMPI DUP4 DUP3 PUSH1 0x0 ADD DUP2 SWAP1 SSTORE POP PUSH1 0x0 PUSH1 0x1 MUL DUP3 PUSH1 0x1 ADD DUP2 PUSH1 0x0 NOT AND SWAP1 SSTORE POP PUSH1 0x0 DUP3 PUSH1 0x2 ADD DUP2 SWAP1 SSTORE POP JUMPDEST DUP2 SWAP2 POP POP SWAP4 SWAP3 POP POP POP JUMP JUMPDEST PUSH1 0x0 DUP1 PUSH1 0x0 DUP1 PUSH1 0x0 DUP1 SWAP5 POP PUSH1 0x0 SWAP4 POP DUP8 PUSH1 0x1D ADD PUSH1 0x0 DUP9 PUSH20 0xFFFFFFFFFFFFFFFFFFFFFFFFFFFFFFFFFFFFFFFF AND PUSH20 0xFFFFFFFFFFFFFFFFFFFFFFFFFFFFFFFFFFFFFFFF AND DUP2 MSTORE PUSH1 0x20 ADD SWAP1 DUP2 MSTORE PUSH1 0x20 ADD PUSH1 0x0 KECCAK256 PUSH1 0x0 DUP8 PUSH20 0xFFFFFFFFFFFFFFFFFFFFFFFFFFFFFFFFFFFFFFFF AND PUSH20 0xFFFFFFFFFFFFFFFFFFFFFFFFFFFFFFFFFFFFFFFF AND DUP2 MSTORE PUSH1 0x20 ADD SWAP1 DUP2 MSTORE PUSH1 0x20 ADD PUSH1 0x0 KECCAK256 SWAP3 POP DUP8 PUSH1 0x1C ADD PUSH1 0x0 DUP9 PUSH20 0xFFFFFFFFFFFFFFFFFFFFFFFFFFFFFFFFFFFFFFFF AND PUSH20 0xFFFFFFFFFFFFFFFFFFFFFFFFFFFFFFFFFFFFFFFF AND DUP2 MSTORE PUSH1 0x20 ADD SWAP1 DUP2 MSTORE PUSH1 0x20 ADD PUSH1 0x0 KECCAK256 PUSH1 0x0 DUP8 PUSH20 0xFFFFFFFFFFFFFFFFFFFFFFFFFFFFFFFFFFFFFFFF AND PUSH20 0xFFFFFFFFFFFFFFFFFFFFFFFFFFFFFFFFFFFFFFFF AND DUP2 MSTORE PUSH1 0x20 ADD SWAP1 DUP2 MSTORE PUSH1 0x20 ADD PUSH1 0x0 KECCAK256 PUSH1 0x0 DUP8 PUSH20 0xFFFFFFFFFFFFFFFFFFFFFFFFFFFFFFFFFFFFFFFF AND PUSH20 0xFFFFFFFFFFFFFFFFFFFFFFFFFFFFFFFFFFFFFFFF AND DUP2 MSTORE PUSH1 0x20 ADD SWAP1 DUP2 MSTORE PUSH1 0x20 ADD PUSH1 0x0 KECCAK256 SWAP2 POP DUP3 PUSH1 0x0 ADD PUSH2 0x1283 DUP10 PUSH1 0x0 ADD PUSH1 0x1 SWAP1 SLOAD SWAP1 PUSH2 0x100 EXP SWAP1 DIV PUSH1 0xFF AND PUSH1 0xFF AND DUP5 PUSH1 0x2 ADD SLOAD PUSH2 0x14D1 SWAP1 SWAP2 SWAP1 PUSH4 0xFFFFFFFF AND JUMP JUMPDEST PUSH1 0x3 DUP2 LT ISZERO ISZERO PUSH2 0x128F JUMPI INVALID JUMPDEST PUSH1 0x2 MUL ADD SWAP1 POP DUP2 PUSH1 0x2 ADD SLOAD DUP2 PUSH1 0x0 ADD SLOAD EQ ISZERO PUSH2 0x12BF JUMPI PUSH2 0x12BC DUP2 PUSH1 0x1 ADD SLOAD DUP7 PUSH2 0x1670 SWAP1 SWAP2 SWAP1 PUSH4 0xFFFFFFFF AND JUMP JUMPDEST SWAP5 POP JUMPDEST PUSH2 0x12CF DUP9 DUP9 DUP9 DUP6 PUSH1 0x2 ADD SLOAD PUSH2 0xBBB JUMP JUMPDEST SWAP4 POP DUP5 DUP5 SWAP5 POP SWAP5 POP POP POP POP SWAP4 POP SWAP4 SWAP2 POP POP JUMP JUMPDEST PUSH1 0x0 DUP2 PUSH1 0x0 ADD DUP2 SWAP1 SSTORE POP PUSH1 0x0 DUP2 PUSH1 0x1 ADD DUP2 SWAP1 SSTORE POP POP JUMP JUMPDEST DUP6 PUSH1 0x16 ADD PUSH2 0x1324 DUP8 PUSH1 0x0 ADD PUSH1 0x0 SWAP1 SLOAD SWAP1 PUSH2 0x100 EXP SWAP1 DIV PUSH1 0xFF AND PUSH1 0xFF AND DUP8 PUSH2 0x14D1 SWAP1 SWAP2 SWAP1 PUSH4 0xFFFFFFFF AND JUMP JUMPDEST PUSH1 0x5 DUP2 LT ISZERO ISZERO PUSH2 0x1330 JUMPI INVALID JUMPDEST ADD SLOAD DUP6 DUP6 DUP6 DUP6 DUP6 PUSH1 0x40 MLOAD PUSH1 0x20 ADD DUP1 DUP8 PUSH1 0x0 NOT AND PUSH1 0x0 NOT AND DUP2 MSTORE PUSH1 0x20 ADD DUP7 DUP2 MSTORE PUSH1 0x20 ADD DUP6 PUSH20 0xFFFFFFFFFFFFFFFFFFFFFFFFFFFFFFFFFFFFFFFF AND PUSH20 0xFFFFFFFFFFFFFFFFFFFFFFFFFFFFFFFFFFFFFFFF AND PUSH13 0x1000000000000000000000000 MUL DUP2 MSTORE PUSH1 0x14 ADD DUP5 PUSH20 0xFFFFFFFFFFFFFFFFFFFFFFFFFFFFFFFFFFFFFFFF AND PUSH20 0xFFFFFFFFFFFFFFFFFFFFFFFFFFFFFFFFFFFFFFFF AND PUSH13 0x1000000000000000000000000 MUL DUP2 MSTORE PUSH1 0x14 ADD DUP4 PUSH1 0x2 DUP2 GT ISZERO PUSH2 0x13E0 JUMPI INVALID JUMPDEST PUSH1 0xFF AND PUSH32 0x100000000000000000000000000000000000000000000000000000000000000 MUL DUP2 MSTORE PUSH1 0x1 ADD DUP3 DUP2 MSTORE PUSH1 0x20 ADD SWAP7 POP POP POP POP POP POP POP PUSH1 0x40 MLOAD PUSH1 0x20 DUP2 DUP4 SUB SUB DUP2 MSTORE SWAP1 PUSH1 0x40 MSTORE PUSH1 0x40 MLOAD DUP1 DUP3 DUP1 MLOAD SWAP1 PUSH1 0x20 ADD SWAP1 DUP1 DUP4 DUP4 JUMPDEST PUSH1 0x20 DUP4 LT ISZERO ISZERO PUSH2 0x145C JUMPI DUP1 MLOAD DUP3 MSTORE PUSH1 0x20 DUP3 ADD SWAP2 POP PUSH1 0x20 DUP2 ADD SWAP1 POP PUSH1 0x20 DUP4 SUB SWAP3 POP PUSH2 0x1437 JUMP JUMPDEST PUSH1 0x1 DUP4 PUSH1 0x20 SUB PUSH2 0x100 EXP SUB DUP1 NOT DUP3 MLOAD AND DUP2 DUP5 MLOAD AND DUP1 DUP3 OR DUP6 MSTORE POP POP POP POP POP POP SWAP1 POP ADD SWAP2 POP POP PUSH1 0x40 MLOAD DUP1 SWAP2 SUB SWAP1 KECCAK256 DUP7 PUSH1 0x16 ADD PUSH2 0x14B4 DUP9 PUSH1 0x0 ADD PUSH1 0x0 SWAP1 SLOAD SWAP1 PUSH2 0x100 EXP SWAP1 DIV PUSH1 0xFF AND PUSH1 0xFF AND DUP9 PUSH2 0x14D1 SWAP1 SWAP2 SWAP1 PUSH4 0xFFFFFFFF AND JUMP JUMPDEST PUSH1 0x5 DUP2 LT ISZERO ISZERO PUSH2 0x14C0 JUMPI INVALID JUMPDEST ADD DUP2 PUSH1 0x0 NOT AND SWAP1 SSTORE POP POP POP POP POP POP POP JUMP JUMPDEST PUSH1 0x0 DUP1 DUP3 GT ISZERO ISZERO PUSH2 0x154A JUMPI PUSH1 0x40 MLOAD PUSH32 0x8C379A000000000000000000000000000000000000000000000000000000000 DUP2 MSTORE PUSH1 0x4 ADD DUP1 DUP1 PUSH1 0x20 ADD DUP3 DUP2 SUB DUP3 MSTORE PUSH1 0x1 DUP2 MSTORE PUSH1 0x20 ADD DUP1 PUSH32 0x2500000000000000000000000000000000000000000000000000000000000000 DUP2 MSTORE POP PUSH1 0x20 ADD SWAP2 POP POP PUSH1 0x40 MLOAD DUP1 SWAP2 SUB SWAP1 REVERT JUMPDEST DUP2 DUP4 DUP2 ISZERO ISZERO PUSH2 0x1555 JUMPI INVALID JUMPDEST MOD SWAP1 POP SWAP3 SWAP2 POP POP JUMP JUMPDEST PUSH1 0x0 DUP3 DUP3 GT ISZERO ISZERO ISZERO PUSH2 0x15D8 JUMPI PUSH1 0x40 MLOAD PUSH32 0x8C379A000000000000000000000000000000000000000000000000000000000 DUP2 MSTORE PUSH1 0x4 ADD DUP1 DUP1 PUSH1 0x20 ADD DUP3 DUP2 SUB DUP3 MSTORE PUSH1 0x1 DUP2 MSTORE PUSH1 0x20 ADD DUP1 PUSH32 0x2D00000000000000000000000000000000000000000000000000000000000000 DUP2 MSTORE POP PUSH1 0x20 ADD SWAP2 POP POP PUSH1 0x40 MLOAD DUP1 SWAP2 SUB SWAP1 REVERT JUMPDEST DUP2 DUP4 SUB SWAP1 POP SWAP3 SWAP2 POP POP JUMP JUMPDEST PUSH1 0x0 DUP1 DUP3 GT ISZERO ISZERO PUSH2 0x165C JUMPI PUSH1 0x40 MLOAD PUSH32 0x8C379A000000000000000000000000000000000000000000000000000000000 DUP2 MSTORE PUSH1 0x4 ADD DUP1 DUP1 PUSH1 0x20 ADD DUP3 DUP2 SUB DUP3 MSTORE PUSH1 0x1 DUP2 MSTORE PUSH1 0x20 ADD DUP1 PUSH32 0x2F00000000000000000000000000000000000000000000000000000000000000 DUP2 MSTORE POP PUSH1 0x20 ADD SWAP2 POP POP PUSH1 0x40 MLOAD DUP1 SWAP2 SUB SWAP1 REVERT JUMPDEST DUP2 DUP4 DUP2 ISZERO ISZERO PUSH2 0x1667 JUMPI INVALID JUMPDEST DIV SWAP1 POP SWAP3 SWAP2 POP POP JUMP JUMPDEST PUSH1 0x0 DUP1 DUP3 DUP5 ADD SWAP1 POP DUP4 DUP2 LT ISZERO ISZERO ISZERO PUSH2 0x16F0 JUMPI PUSH1 0x40 MLOAD PUSH32 0x8C379A000000000000000000000000000000000000000000000000000000000 DUP2 MSTORE PUSH1 0x4 ADD DUP1 DUP1 PUSH1 0x20 ADD DUP3 DUP2 SUB DUP3 MSTORE PUSH1 0x1 DUP2 MSTORE PUSH1 0x20 ADD DUP1 PUSH32 0x2B00000000000000000000000000000000000000000000000000000000000000 DUP2 MSTORE POP PUSH1 0x20 ADD SWAP2 POP POP PUSH1 0x40 MLOAD DUP1 SWAP2 SUB SWAP1 REVERT JUMPDEST DUP1 SWAP2 POP POP SWAP3 SWAP2 POP POP JUMP STOP LOG1 PUSH6 0x627A7A723058 KECCAK256 PUSH29 0x3463FB4CA4B0BDA181AA97EDBB9831C20CBBF74C81D84D005F577232FA 0xa7 CALLDATASIZE STOP 0x29 "
		},
		"gasEstimates": {
			"creation": {
				"codeDepositCost": "1185200",
				"executionCost": "1281",
				"totalCost": "1186481"
			},
			"external": {
				"addToAggregate(BimodalLib.AmountAggregate storage,uint256,uint256)": "infinite",
				"addToRunningPendingWithdrawals(BimodalLib.Ledger storage,ERC20,uint256,uint256)": "infinite",
				"appendOperationToEonAccumulator(BimodalLib.Ledger storage,uint256,ERC20,address,BimodalLib.Operation,uint256)": "infinite",
				"clearAggregate(BimodalLib.AmountAggregate storage)": "10504",
				"currentEon(BimodalLib.Ledger storage)": "infinite",
				"currentEra(BimodalLib.Ledger storage)": "infinite",
				"deductFromRunningPendingWithdrawals(BimodalLib.Ledger storage,ERC20,uint256,uint256,uint256)": "infinite",
				"getCurrentEonDepositsWithdrawals(BimodalLib.Ledger storage,ERC20,address)": "infinite",
				"getLiveChallenges(BimodalLib.Ledger storage,uint256)": "infinite",
				"getOrCreateCheckpoint(BimodalLib.Ledger storage,uint256,uint256)": "infinite",
				"getPendingWithdrawalsAtEon(BimodalLib.Ledger storage,ERC20,uint256)": "infinite",
				"getWalletPendingWithdrawalAmountAtEon(BimodalLib.Ledger storage,ERC20,address,uint256)": "infinite",
				"init(BimodalLib.Ledger storage,uint256,address)": "infinite",
				"signedMessageECRECOVER(bytes32,bytes32,bytes32,uint8)": "infinite"
			}
		},
		"methodIdentifiers": {
			"addToAggregate(BimodalLib.AmountAggregate storage,uint256,uint256)": "971bff52",
			"addToRunningPendingWithdrawals(BimodalLib.Ledger storage,ERC20,uint256,uint256)": "b0abcbbb",
			"appendOperationToEonAccumulator(BimodalLib.Ledger storage,uint256,ERC20,address,BimodalLib.Operation,uint256)": "f9ac8fca",
			"clearAggregate(BimodalLib.AmountAggregate storage)": "e8e95a3d",
			"currentEon(BimodalLib.Ledger storage)": "26df6e49",
			"currentEra(BimodalLib.Ledger storage)": "87d5cab9",
			"deductFromRunningPendingWithdrawals(BimodalLib.Ledger storage,ERC20,uint256,uint256,uint256)": "e37e06ea",
			"getCurrentEonDepositsWithdrawals(BimodalLib.Ledger storage,ERC20,address)": "e7f24bad",
			"getLiveChallenges(BimodalLib.Ledger storage,uint256)": "378a4719",
			"getOrCreateCheckpoint(BimodalLib.Ledger storage,uint256,uint256)": "e72b5713",
			"getPendingWithdrawalsAtEon(BimodalLib.Ledger storage,ERC20,uint256)": "207cbaba",
			"getWalletPendingWithdrawalAmountAtEon(BimodalLib.Ledger storage,ERC20,address,uint256)": "a7e478ba",
			"init(BimodalLib.Ledger storage,uint256,address)": "7fcacff9",
			"signedMessageECRECOVER(bytes32,bytes32,bytes32,uint8)": "8e9f9072"
		}
	},
	"abi": [
		{
			"constant": true,
			"inputs": [
				{
					"name": "self",
					"type": "BimodalLib.Ledger storage"
				},
				{
					"name": "token",
					"type": "ERC20"
				},
				{
					"name": "eon",
					"type": "uint256"
				}
			],
			"name": "getPendingWithdrawalsAtEon",
			"outputs": [
				{
					"name": "",
					"type": "uint256"
				}
			],
			"payable": false,
			"stateMutability": "view",
			"type": "function"
		},
		{
			"constant": true,
			"inputs": [
				{
					"name": "self",
					"type": "BimodalLib.Ledger storage"
				}
			],
			"name": "currentEon",
			"outputs": [
				{
					"name": "",
					"type": "uint256"
				}
			],
			"payable": false,
			"stateMutability": "view",
			"type": "function"
		},
		{
			"constant": true,
			"inputs": [
				{
					"name": "self",
					"type": "BimodalLib.Ledger storage"
				},
				{
					"name": "eon",
					"type": "uint256"
				}
			],
			"name": "getLiveChallenges",
			"outputs": [
				{
					"name": "",
					"type": "uint256"
				}
			],
			"payable": false,
			"stateMutability": "view",
			"type": "function"
		},
		{
			"constant": false,
			"inputs": [
				{
					"name": "self",
					"type": "BimodalLib.Ledger storage"
				},
				{
					"name": "blocksPerEon",
					"type": "uint256"
				},
				{
					"name": "operator",
					"type": "address"
				}
			],
			"name": "init",
			"outputs": [],
			"payable": false,
			"stateMutability": "nonpayable",
			"type": "function"
		},
		{
			"constant": true,
			"inputs": [
				{
					"name": "self",
					"type": "BimodalLib.Ledger storage"
				}
			],
			"name": "currentEra",
			"outputs": [
				{
					"name": "",
					"type": "uint256"
				}
			],
			"payable": false,
			"stateMutability": "view",
			"type": "function"
		},
		{
			"constant": true,
			"inputs": [
				{
					"name": "message",
					"type": "bytes32"
				},
				{
					"name": "r",
					"type": "bytes32"
				},
				{
					"name": "s",
					"type": "bytes32"
				},
				{
					"name": "v",
					"type": "uint8"
				}
			],
			"name": "signedMessageECRECOVER",
			"outputs": [
				{
					"name": "",
					"type": "address"
				}
			],
			"payable": false,
			"stateMutability": "view",
			"type": "function"
		},
		{
			"constant": false,
			"inputs": [
				{
					"name": "aggregate",
					"type": "BimodalLib.AmountAggregate storage"
				},
				{
					"name": "eon",
					"type": "uint256"
				},
				{
					"name": "value",
					"type": "uint256"
				}
			],
			"name": "addToAggregate",
			"outputs": [],
			"payable": false,
			"stateMutability": "nonpayable",
			"type": "function"
		},
		{
			"constant": true,
			"inputs": [
				{
					"name": "self",
					"type": "BimodalLib.Ledger storage"
				},
				{
					"name": "token",
					"type": "ERC20"
				},
				{
					"name": "holder",
					"type": "address"
				},
				{
					"name": "eon",
					"type": "uint256"
				}
			],
			"name": "getWalletPendingWithdrawalAmountAtEon",
			"outputs": [
				{
					"name": "amount",
					"type": "uint256"
				}
			],
			"payable": false,
			"stateMutability": "view",
			"type": "function"
		},
		{
			"constant": false,
			"inputs": [
				{
					"name": "self",
					"type": "BimodalLib.Ledger storage"
				},
				{
					"name": "token",
					"type": "ERC20"
				},
				{
					"name": "eon",
					"type": "uint256"
				},
				{
					"name": "value",
					"type": "uint256"
				}
			],
			"name": "addToRunningPendingWithdrawals",
			"outputs": [],
			"payable": false,
			"stateMutability": "nonpayable",
			"type": "function"
		},
		{
			"constant": false,
			"inputs": [
				{
					"name": "self",
					"type": "BimodalLib.Ledger storage"
				},
				{
					"name": "token",
					"type": "ERC20"
				},
				{
					"name": "eon",
					"type": "uint256"
				},
				{
					"name": "latestEon",
					"type": "uint256"
				},
				{
					"name": "value",
					"type": "uint256"
				}
			],
			"name": "deductFromRunningPendingWithdrawals",
			"outputs": [],
			"payable": false,
			"stateMutability": "nonpayable",
			"type": "function"
		},
		{
			"constant": false,
			"inputs": [
				{
					"name": "self",
					"type": "BimodalLib.Ledger storage"
				},
				{
					"name": "targetEon",
					"type": "uint256"
				},
				{
					"name": "latestEon",
					"type": "uint256"
				}
			],
			"name": "getOrCreateCheckpoint",
			"outputs": [
				{
					"name": "checkpoint",
					"type": "BimodalLib.Checkpoint storage"
				}
			],
			"payable": false,
			"stateMutability": "nonpayable",
			"type": "function"
		},
		{
			"constant": true,
			"inputs": [
				{
					"name": "self",
					"type": "BimodalLib.Ledger storage"
				},
				{
					"name": "token",
					"type": "ERC20"
				},
				{
					"name": "holder",
					"type": "address"
				}
			],
			"name": "getCurrentEonDepositsWithdrawals",
			"outputs": [
				{
					"name": "currentEonDeposits",
					"type": "uint256"
				},
				{
					"name": "currentEonWithdrawals",
					"type": "uint256"
				}
			],
			"payable": false,
			"stateMutability": "view",
			"type": "function"
		},
		{
			"constant": false,
			"inputs": [
				{
					"name": "aggregate",
					"type": "BimodalLib.AmountAggregate storage"
				}
			],
			"name": "clearAggregate",
			"outputs": [],
			"payable": false,
			"stateMutability": "nonpayable",
			"type": "function"
		},
		{
			"constant": false,
			"inputs": [
				{
					"name": "self",
					"type": "BimodalLib.Ledger storage"
				},
				{
					"name": "eon",
					"type": "uint256"
				},
				{
					"name": "token",
					"type": "ERC20"
				},
				{
					"name": "participant",
					"type": "address"
				},
				{
					"name": "operation",
					"type": "BimodalLib.Operation"
				},
				{
					"name": "value",
					"type": "uint256"
				}
			],
			"name": "appendOperationToEonAccumulator",
			"outputs": [],
			"payable": false,
			"stateMutability": "nonpayable",
			"type": "function"
		}
	]
}